:020000040800F2
:1000000000080020790200084B270008D1220008D0
:10001000492700086F0400081D2D0008000000009B
:100020000000000000000000000000004F27000852
:1000300071040008000000004D270008910200082C
:10004000930200089302000893020008930200083C
:10005000930200089302000893020008930200082C
:10006000930200089302000893020008930200081C
:10007000930200089302000893020008930200080C
:1000800093020008930200089302000893020008FC
:1000900093020008930200089302000893020008EC
:1000A00093020008930200089302000893020008DC
:1000B00093020008930200089302000893020008CC
:1000C00093020008930200089302000893020008BC
:1000D00093020008930200089302000893020008AC
:1000E000930200089302000893020008930200089C
:1000F000930200089302000893020008930200088C
:10010000930200089302000893020008930200087B
:10011000930200089302000893020008930200086B
:10012000930200089302000893020008930200085B
:10013000930200089302000893020008930200084B
:10014000930200089302000893020008930200083B
:10015000930200089302000893020008930200082B
:10016000930200089302000893020008930200081B
:10017000930200089302000893020008930200080B
:1001800093020008930200089302000893020008FB
:100190009302000800000000930200089302000888
:1001A00093020008930200089302000893020008DB
:1001B00093020008930200089302000893020008CB
:1001C00093020008930200089302000893020008BB
:1001D000930200089302000800F002F800F03CF8D7
:1001E0000AA090E8000C82448344AAF10107DA4592
:1001F00001D100F031F8AFF2090EBAE80F0013F0A8
:10020000010F18BFFB1A43F001031847EC2B000045
:100210000C2C0000103A24BF78C878C1FAD85207D5
:1002200024BF30C830C144BF04680C607047000070
:100230000023002400250026103A28BF78C1FBD8EF
:10024000520728BF30C148BF0B6070471FB502F08E
:10025000ADFD1FBD10B510BD00F0CFF81146FFF782
:10026000F5FF02F06DFD00F0EDF803B4FFF7F2FFCB
:1002700003BC00F0F5F80000094880470948004732
:10028000FEE7FEE7FEE7FEE7FEE7FEE7FEE7FEE746
:10029000FEE7FEE704480549054A064B70470000A3
:1002A000C1270008D9010008000200200008002032
:1002B000000400200004002053EA020C00F06980D2
:1002C0002DE9F04B4FF00006002B1FBFB3FA83F56A
:1002D00003FA05F424FA05F65E4012BF1643B2FA9B
:1002E00082F502FA05F4C5F120051EBF22FA05FCCD
:1002F00044EA0C04203556EA044C4FEA144418BF73
:10030000641C4FF000084FF00009904271EB030CA1
:1003100039D3002919BFB1FA81F701FA07F6B0FA0B
:1003200080F700FA07F6C7F120071EBF20FA07FC86
:1003300046EA0C062037B6FBF4FCA7EB0507103F96
:1003400007F01F0BCBF120060CFA0BFB2CFA06F67C
:1003500044BFB3460026202FA4BF5E464FF0000BDB
:100360005BEA060C08BF4FF0010B19EB0B09ABFB66
:10037000027C48EB0608C01B06FB02CC0BFB03CC3F
:1003800071EB0C01C1E70B46024641464846BDE809
:10039000F08B13B54FF000004FF00001AFF3008079
:1003A000BDE81C4070474FF0000200B5134694466C
:1003B0009646203922BFA0E80C50A0E80C50B1F1BD
:1003C0002001BFF4F7AF090728BFA0E80C5048BFD1
:1003D0000CC05DF804EB890028BF40F8042B08BF6F
:1003E000704748BF20F8022B11F0804F18BF00F86B
:1003F000012B7047704770477047754600F02CF826
:10040000AE4605006946534620F00700854618B001
:1004100020B5FFF73FFFBDE820404FF000064FF04A
:1004200000074FF000084FF0000B21F00701AC4629
:10043000ACE8C009ACE8C009ACE8C009ACE8C00948
:100440008D46704710B50446AFF300802046BDE8E6
:100450001040FFF70ABF000000487047A0010020CD
:1004600001491820ABBEFEE7260002007047FEE7F8
:10047000704772B6FEE7000070B5044600F028F938
:100480000546601C02D004484068044400F020F98E
:10049000401BA042FAD370BD000000202DE9F04FB0
:1004A000DFF80C92002301260325A9F1040B85B087
:1004B0000F2709F1040AABF1040EF1E006FA03FC80
:1004C00012EA0C027ED00C7904F00304012C01D056
:1004D000022C20D1846800945C0005FA04F804948E
:1004E000009C24EA08040094D1F80C80049C08FACB
:1004F00004F8009C48EA0408C0F80880446824EA2C
:100500000C0491F804C0CCF3001C0CFA03FC4CEA78
:10051000040CC0F804C00C79E443A40702D18C6831
:10052000012C0ED0C4684FEA430805FA08FC24EAFF
:100530000C04D1F808C00CFA08FC4CEA040CC0F812
:100540000CC00C7904F00304022C16D1DC0800EB7B
:10055000840CCDF808C0DCF820C05C074FEAD468F2
:1005600007FA08F42CEA040C0C6904FA08F444EACB
:100570000C04DDF808C0CCF8204004684FEA4308BA
:1005800005FA08FC24EA0C0491F804C00CF0030CF2
:100590000CFA08FC4CEA040CC0F800C04C6814F4D7
:1005A000403F7CD0434CD4F860C04CF0010CC4F800
:1005B00060C0246E23F0030C04F0010400943E4C50
:1005C000644400E06BE00294A4684FEA837C4FEA45
:1005D0001C7807FA08FC24EA0C04B0F1904F06D00E
:1005E000DFF8D8C0604505D14FF0010C20E04FF096
:1005F000000C1DE0DFF8C8C0604502D14FF0020CCE
:1006000016E0DFF8C0C0604502D14FF0030C0FE0E8
:10061000DFF8B4C0604502D14FF0040C08E0DFF809
:10062000ACC0604502D14FF0050C01E04FF0060C64
:100630000CFA08FC4CEA040C029CC4F808C0D9F877
:100640000040CC46D1F8048094435FEAC82800D526
:100650001443CCF80040DAF80040D446D1F80480C6
:1006600094435FEA882800D51443CCF80040DBF8B7
:100670000040DC46D1F8048094435FEA883800D516
:100680001443CCF80040DEF80040F446D1F8048072
:1006900094435FEAC83800D51443CCF800405B1C93
:1006A0000C682246DC407FF409AF05B0BDE8F08F4E
:1006B000080401400010024000000140000400480E
:1006C00000080048000C00480010004800140048D2
:1006D00001488068704700000000002010B590F8C5
:1006E000DC20012A21D0012280F8DC20022380F8BE
:1006F000DD304B1C1BD00368D3F8CC4344F002041C
:10070000C3F8CC430368D3F8CC4324F00C040C4367
:10071000C3F8CC430168D1F8CC3343F00103C1F8EE
:10072000CC3380F8DD20002010BD022010BD016810
:10073000D1F8CC3323F00203C1F8CC33EAE7000050
:1007400070B590F8DD30022B3CD090F8DC30012BF6
:1007500038D0012500F8DC5F0223437013889488A9
:1007600003F4E053C4F308041C4313896FF07E467E
:1007700003F400732343148A04F480441C439389D4
:1007800003F400432343948A06EA04441C43936918
:1007900003F000732343146AD26904F080441C43BD
:1007A00002F00042224350F8DC3CB82404EBC114B0
:1007B0001959054E314011431951457000210170FE
:1007C000084670BD022070BD0020003C30B590F896
:1007D000DD30022B14D090F8DC30012B10D0012337
:1007E00080F8DC30022480F8DD40002408293FD066
:1007F00008DC01291AD0022922D0042906D12CE0D4
:10080000022030BD10293ED0202946D0072180F893
:10081000DD1080F8DC4000BF90F8DD10072949D0DA
:1008200080F8DD3080F8DC40002030BD0168D1F870
:100830000854926825F0030545EA4202521C09E07B
:100840000168D1F80854926825F4407545EA4222BF
:1008500042F48072C1F80824DEE70168D1F8085438
:10086000128925F4403545EA424242F48032F1E7EC
:100870000168D1F80854127A25F0407545EA4262C1
:1008800042F08072E6E70168D1F80C54926825F0D6
:10089000030545EA4202521C09E00168D1F80C54F4
:1008A000926825F4407545EA422242F48072C1F80C
:1008B0000C24B1E7012030BD2DE9F04F90F8DD3078
:1008C000022B26D090F8DC30012B22D04FF0010B08
:1008D00080F8DCB0022380F8DD300768D7F8D04319
:1008E000D7F8D43315784FF4007805F00106C5F336
:1008F00040054FF4F04C4FF400494FF0000A08292E
:100900007ED009DC012935D0022947D0042907D13E
:1009100059E00220BDE8F08F10296FD020296ED059
:10092000072180F8DD1080F8DCA000BF90F8DD1012
:1009300007297CD004F07F31C7F8D013056848F24E
:10094000800123EA0102C5F8D4230268D2F8D0530B
:1009500004F080342543C2F8D0530268D2F8D4435F
:100960000B401C43C2F8D44380F8DDB080F8DCA013
:100970000020CFE7117924F0FE0401F002012143A9
:1009800041EA860423F4803141EA0543117A127B5F
:1009900001F07801214302F0800412E0516824F450
:1009A0007E4408EA0121214341EA862423F40031F0
:1009B00041EA454391680CEA01212143D46809EAE0
:1009C00004240C43B2E791884FF4003C24F47E04E5
:1009D0000CEA0141214341EA864423F4802141EAA3
:1009E000854311894FF4F00505EA014121439289BD
:1009F0004FF4000404EA0244E3E701E01BE02EE0C8
:100A000011794FF0007C24F07E440CEA016121430F
:100A100041EA866423F4002141EAC543117A4FF08C
:100A2000F04505EA01612143127B2C0100E02BE037
:100A300004EA0264C5E7117923F0FE0301F0020124
:100A4000194341EA860121F4801141EA0553117AE4
:100A5000127B01F07801194302F0800312E0516823
:100A600023F47E4308EA0121194341EA862121F457
:100A7000001141EA455391680CEA01211943D368FA
:100A800009EA03230B4351E7012043E730B590F80F
:100A9000DD30022B14D090F8DC30012B10D0012374
:100AA00080F8DC30022480F8DD400024082941D0A1
:100AB00008DC01291AD0022923D0042906D12EE00E
:100AC000022030BD102940D0202949D0072180F8CC
:100AD000DD1080F8DC4000BF90F8DD1007294DD014
:100AE00080F8DD3080F8DC40002030BD11685268AD
:100AF000890041EAC2120168D1F8085425F0BC050A
:100B000009E011685268890241EAC2320168D1F8ED
:100B1000085425F43C452A43C1F80824DCE7118831
:100B20009288890441EAC2520168D1F8085425F438
:100B30003C05F0E711781279890641EAC272016832
:100B4000D1F8085425F03C45E5E711685268890062
:100B500041EAC2120168D1F80C5425F0BC0509E045
:100B600011685268890241EAC2320168D1F80C5416
:100B700025F43C452A43C1F80C24ADE7012030BDE3
:100B800010B5CB0706D00368D3F8D04362F3000456
:100B9000C3F8D0438B0706D50368D3F8D04362F37C
:100BA0000824C3F8D0434B0706D50368D3F8D043D5
:100BB00062F31044C3F8D0430B0706D50368D3F89B
:100BC000D04362F31864C3F8D043CB0606D503685C
:100BD000D3F8D44362F30004C3F8D443890606D59E
:100BE0000068D0F8D41362F30821C0F8D41310BD04
:100BF00010B590F8DD20022A18D090F8DC20012AE8
:100C000014D0012200F8DC2F0223437050F8DC3CA2
:100C1000D3F8D44301F0407124F040740C43C3F87E
:100C2000D443427000210170084610BD022010BD5F
:100C300038B5040056D0022084F8DD000025C4F841
:100C4000E050C4F8E450C4F8E850C4F8EC50C4F8DC
:100C5000F050C4F8F450C4F8F850207AC0071BD004
:100C600021492068884208D12048016E41F0806106
:100C70000166006E00F0806000902168086820F432
:100C80004042208A00F44040104320F44052A08AA1
:100C900000F4405010430860204600F029F8207A04
:100CA000800708D52168086820F44072A08900F404
:100CB000407010430860012084F8DD0084F8DC50A7
:100CC0005FF00001C1EBC10004EB8000491C8561AD
:100CD000C561056245628562C9B205630629F1D91D
:100CE000002038BD012038BD0068014000100240DE
:100CF00070B586B0044614216846FFF754FB1C49C2
:100D00002068884231D11B48016E41F08061016644
:100D1000016E01F080610591C16C41F00201C16476
:100D2000C16C01F002010591C16C41F00101C16487
:100D3000C06C022500F0010005904FF400600090A7
:100D40000024CDE901540D26CDE9034669460A4841
:100D5000FFF7A4FBE8020090CDE90154CDE903467A
:100D600069464FF09040FFF799FB06B070BD000058
:100D70000068014000100240000400482DE9F041E5
:100D800086B0044614216846FFF70DFB264920680B
:100D9000884246D12548C16C41F00201C164C16C52
:100DA00001F002010591C16C41F00401C164C16C04
:100DB00001F004010591C16C41F00101C164C06CF6
:100DC000022500F0010005904FF4704000268DE8E8
:100DD000610003240D27CDE9034769461448FFF756
:100DE0005DFBC0208DE86100DFF84880CDE9034756
:100DF00069464046FFF752FB2002CDE90005CDE9E8
:100E00000264694604944046FFF748FB4FF4706063
:100E10008DE86100CDE9034769464FF09040FFF748
:100E20003DFB06B0BDE8F0810068014000100240C3
:100E3000000400480008004870B50D460446FFF75E
:100E400047FC064607E0681C05D0FFF741FC801B05
:100E5000A8420DD865B12068D0F88803C043C0030C
:100E6000F1D4012084F8DD00002084F8DC0070BD9E
:100E7000072084F8DD00032070BD70B590F8DD30E8
:100E8000022B23D0022380F8DD30062920D08023D6
:100E9000046803EBC115635923F0070693683343D5
:100EA00023F01806D368334363519425046805EB97
:100EB000C115136863519824036804EBC11152688B
:100EC0005A50012180F8DD10002070BD022070BD55
:100ED0000368196821F007049168214321F0180480
:100EE000D16821431960036811685961516802682B
:100EF0009161E6E72DE9F04F90F8DD40022C25D016
:100F000090F8DC40012C21D04FF0010980F8DC90F2
:100F1000022480F8DD4000274FF0070C062918D086
:100F20009C2404EBC116012A39D08024A8254FF453
:100F3000005A4FF4405B05EBC11504EBC114022AC3
:100F40002FD0042A45D0082A0BD144E00220BDE866
:100F5000F08F012A0AD0022A0CD0042A0ED0082AC7
:100F600010D080F8DDC080F8DC700EE002681968EF
:100F7000D1610AE002681968516206E002681968E6
:100F8000916202E002681968D16290F8DD100729C9
:100F900048D080F8DD9080F8DC700020D7E7196831
:100FA00035E04FF0A408D0F800C008EBC1111A6872
:100FB0004CF801205968002901680A5922F440526E
:100FC0002ED00A5101680A59D3F804C042EA0C0233
:100FD00018E0196821E04FF0AC08D0F800C008EB29
:100FE000C1111A684CF801205968002901680A5992
:100FF00022F4404214D00A5101680A59D3F804C0BF
:1010000042EA8C020A515968514503D19968026835
:101010009151BAE75945B8D1996802685151B4E77E
:101020000A51B2E7012092E770B5044690F8DD005E
:10103000022811D094F8DC0001280ED0012584F894
:10104000DC50022084F8DD00204601F006F884F828
:10105000DD50002084F8DC0070BD022070BD2DE959
:10106000F041044690F8DD0015460E46022826D0D1
:1010700094F8DC00012821D0012784F8DC700220DC
:1010800084F8DD00062E1CD0204601F055F8C6EB92
:10109000C60004EB80002968016269684162A968A2
:1010A0008162E968C162296901633146204600F026
:1010B00056FF062E15D0E86A40B112E00220BDE8C6
:1010C000F0811146204600F07FFFE0E78021206894
:1010D00001EBC6114258EB6D22F4007242EA432242
:1010E000425084F8DD70002084F8DC00E7E770B53A
:1010F00090F8DD30022B23D090F8DC30012B1FD08C
:10110000012380F8DC30022480F8DD40EC250468FF
:1011100005EBC1156159166821F0100141EA06116D
:1011200021F480165168314321F48036D16831436F
:1011300021F40036916831439669012E02D00BE00C
:10114000022070BD21F004061169314321F002062E
:101150005169314341F00101615180F8DD300021D6
:1011600080F8DC10084670BD10B50024032000F0A4
:1011700065F8002000F008F808B1012401E000F053
:1011800025F8204610BD000070B50E4E054600241F
:10119000706898B14FF47A71B1FBF0F00A490968B0
:1011A000B1FBF0F000F08EFD40B9102D06D2002208
:1011B0002946501E00F022F8356000E00124204648
:1011C00070BD0000000000200C0000200A4882B022
:1011D000016E41F001010166016E01F00101009113
:1011E000816D41F080518165806D00F080500090EC
:1011F00002B000F093B8000000100240F0B40E4BB3
:101200001B680C46C3F30223C3F10705042D00D964
:101210000425191D072901D2002300E0DB1E012649
:1012200006FA05F1491E214099409E40761E16405F
:101230003143F0BC01F073BD0CED00E0064900F055
:10124000070208684FF6FF03184040EA0220034AED
:1012500010430860704700000CED00E00000FA0544
:101260002B492C4B0A6832214A432B4940B1B0F537
:10127000007F086829D020F4C06040F480602CE032
:101280000868C0F34120022804D051F8800F20F4F0
:10129000807022E0D1F8800020F48070C1F88000D6
:1012A000086820F4C06040F400700860B2FBF3F0FE
:1012B000401C00E0401E4A69520501D50028F9D1C2
:1012C000486940050AD503207047C0F34120022831
:1012D00006D051F8800F40F48070086000207047FD
:1012E000D1F8800040F48070C1F88000086820F4D4
:1012F000C06040F400700860B2FBF3F0401C00E0F6
:10130000401E4A695205DBD50028F9D1D8E7000014
:101310000C00002040420F0000700040024881682D
:1013200041F4804181607047007000402DE9F8432E
:10133000044600680026BB4D00035ED5A86D00275B
:10134000C00008D4A86D40F08050A865A86D0127A2
:1013500000F080500090DFF8D092D9F8001041F4EE
:101360008071C9F80010FFF7B3F9804606E000BFAE
:10137000FFF7AEF9A0EB080002282BD8D9F800003F
:10138000C005F5D5D5F8900010F4407014D0216D4B
:10139000814211D0D5F89000D5F8901020F440701B
:1013A00041F48031C5F89010D5F8901021F48031C7
:1013B000C5F89010C5F89000C00711D0FFF788F964
:1013C000804641F2883907E0FFF782F9A0EB080177
:1013D000494501D903260BE0D5F890008007F3D5E5
:1013E000D5F89000216D20F440700843C5F89000B6
:1013F0001FB1A86D20F08050A8652078C00707D0E5
:10140000D5F88800616820F003000843C5F888001B
:101410002078800707D5D5F88800A16820F00C0057
:101420000843C5F888002078400707D5D5F888001C
:10143000E16820F030000843C5F8880020780007F4
:1014400007D5D5F88800216920F0C0000843C5F809
:1014500088002078C00607D5D5F88800616920F497
:1014600040700843C5F888002078800607D5D5F875
:101470008800A16920F440600843C5F888002078FE
:10148000400607D5D5F88800E16920F440500843AC
:10149000C5F888002078000607D5D5F88800216AAD
:1014A00020F440400843C5F888002088C00507D5CF
:1014B000D5F88800616A20F440300843C5F88800F8
:1014C0002068800307D5D5F89C00A16A20F00300AE
:1014D0000843C5F89C002088800507D5D5F888000A
:1014E000E16A20F440200843C5F8880020884005C0
:1014F0000FD5D5F88800216B20F440100843C5F8BB
:101500008800206BB0F5801F03D1E86840F480109C
:10151000E860208800050FD5D5F88800616B20F4BD
:1015200040000843C5F88800606BB0F5800F03D118
:10153000E86840F48010E8602088C0040FD5D5F832
:101540008800A16B20F040700843C5F88800A06BAC
:10155000B0F1807F03D1E86840F48010E860208813
:101560004FF0006180040ED5D5F88800E26B20F0C2
:1015700040601043C5F88800E06B884203D1E868FA
:1015800040F48010E860208840040ED5D5F888002B
:10159000226C20F040601043C5F88800206C88421F
:1015A00003D1E86840F48010E860208800040FD57B
:1015B000D5F88800616C20F040500843C5F88800D9
:1015C000606CB0F1805F03D1E86840F48030E8607F
:1015D0002068C0030FD5D5F88800A16C20F04040EA
:1015E0000843C5F88800A06CB0F1804F03D1E868CB
:1015F00040F48030E860206840030FD5D5F89C00A7
:10160000E16C20F440100843C5F89C00E06CB0F594
:10161000001F03D1E86840F48010E8603046BDE860
:10162000F883000000100240007000402DE9F047F0
:101630000E4605004FF0000725D0DFF8AC81D8F842
:10164000000000F00F00B0420CD2D8F8001021F0DA
:101650000F013143C8F80010D8F8000000F00F0067
:10166000B04210D12968614CC80741F2883A5AD07B
:101670006868DFF87C91032808D0022820682DD004
:10168000400500282CDB0120BDE8F08720688001A0
:10169000F9D5E06800F00302E068C0F30310401CD5
:1016A000032A19D0534A00BFB2FBF0F0E268C2F33C
:1016B00006225043E268C2F34162521C5200B0FB62
:1016C000F2F0484517D9A06810F0F00F0CD0880749
:1016D00011D5A86840B10EE0474AE5E78003D0E79E
:1016E00000F0B6F8484506D9A06820F0F00040F0B8
:1016F0008000A0608027A068696820F0030008438C
:10170000A060FEF7E5FF814606E000BFFEF7E0FFC0
:10171000A0EB090151453AD8A068696800F00C00B7
:10172000B0EB810FF2D12868810714D5400703D5AB
:10173000A06840F4E060A0602878000705D5A068A4
:1017400020F4605040F4E060A060A068A96820F038
:10175000F000084304E0802F03D1A06820F0F000DF
:10176000A060D8F80010404601F00F01B14216D930
:10177000016821F00F0131430160FEF7A9FF074620
:1017800007E000BFFEF7A4FFC11B514501D90320AC
:101790007AE7D8F8000000F00F00B042F2D12878C4
:1017A000400705D5A068E96820F4E0600843A06020
:1017B0002878000706D5A068296920F4605040EA1F
:1017C000C100A06000F044F8A1680C4AC1F3031105
:1017D000515C01F01F01C8400949086009480068D0
:1017E000BDE8F047FFF7D0BC0020024000100240E7
:1017F00000B4C4040024F40040787D01DE2D00080C
:101800000C00002000000020054806490068896897
:10181000054AC1F30221515C01F01F01C840704725
:101820000C00002000100240EE2D0008054806497B
:1018300000688968054AC1F3C221515C01F01F01AB
:10184000C84070470C00002000100240EE2D000838
:10185000184910B58868C0F381021748012A0BD0D7
:101860008A68164BC2F38102022A06D08A68C2F344
:101870008102032A03D0002010BD184610BDCA689B
:1018800002F00304CA68C2F30312521C032C02D0F4
:10189000B0FBF2F001E0B3FBF2F0CA68C968C2F332
:1018A00006225043C1F34161491C4900B0FBF1F0ED
:1018B00010BD0000001002400024F40040787D01BB
:1018C0002DE9F84304007AD02078F84DC00747D0BE
:1018D000A868E96800F00C0001F003010C2802D0B0
:1018E000082817D001E0032914D06068B0F5803FC4
:1018F00017D0B0F5A02F286817D020F480302860CA
:10190000286820F4802028606068E0B1FEF7E0FEDF
:10191000064614E02868800322D560680028D2D0EB
:101920001EE0286840F48030EDE740F48020286015
:10193000F7E700BFFEF7CCFE801B642870D828684C
:101940008003F7D50CE0FEF7C3FE064605E000BFB6
:10195000FEF7BEFE801B6428F0D828688003F7D409
:10196000207880074CD5A868E96800F00C0001F0E9
:1019700003010C2802D004280DD001E002290AD06E
:10198000E068002828682BD040F480702860FEF7BB
:101990009FFE064619E02868400502D5E068002849
:1019A00091D06868217C20F0FE4040EA01606860C8
:1019B000BF480068FFF7E8FB002800D120E072E193
:1019C000FEF786FE801B0228B8D828684005F7D5A8
:1019D0006868217C20F0FE4040EA016068600FE00A
:1019E00020F480702860FEF773FE064605E000BF15
:1019F000FEF76EFE801B0228A0D828684005F7D4A9
:101A00002078000729D560690028D5F8940013D004
:101A100040F00100C5F89400FEF75AFE064606E0C5
:101A200090E000BFFEF754FE801B022886D8D5F850
:101A300094008007F6D510E020F00100C5F894006E
:101A4000FEF746FE064604E0FEF742FE801B022833
:101A500078D8D5F894008007F6D42078400761D56F
:101A6000A86D0026C00008D4A86D40F08050A8657D
:101A7000A86D012600F0805000908E480168C905CD
:101A800011D40168804641F480710160FEF720FEA8
:101A9000074604E0FEF71CFEC01B022852D8D8F807
:101AA0000000C005F6D5A068012815D00528D5F896
:101AB000900016D020F00100C5F89000D5F89000F5
:101AC00020F00400C5F89000A06841F28838B8B151
:101AD000FEF7FEFD07460EE0D5F8900040F001004D
:101AE000F0E740F00400C5F89000F5E7FEF7F0FDE0
:101AF000C11B414526D8D5F890008007F6D50CE0EB
:101B0000FEF7E6FD074604E0FEF7E2FDC11B414596
:101B100018D8D5F890008007F6D41EB1A86D20F033
:101B20008050A8652078800629D5A0690028D5F8BE
:101B3000980013D040F00100C5F89800FEF7C8FDEA
:101B4000064606E075E000BFFEF7C2FD801B0228D6
:101B50006FD8D5F898008007F6D510E020F0010086
:101B6000C5F89800FEF7B4FD064604E0FEF7B0FDA8
:101B7000801B02285DD8D5F898008007F6D4E0696C
:101B8000F0B3A968C1F3810103295DD00228286858
:101B900020F08070286003D0FEF79AFD04464BE0E9
:101BA000FEF796FD064604E0FEF792FD801B022834
:101BB0003FD828688001F7D4F4E908016FF00F02DC
:101BC00002EB01110843218A5204490802EB4151FA
:101BD000A26841EA02210843217D4FF07E42490874
:101BE00002EB41610843217B40EAC160E968324A67
:101BF00011400843E860286840F08070286000E0E9
:101C00005EE0E86840F08070E860FEF761FD044641
:101C100005E000BFFEF75CFD001B022809D828681C
:101C20008001F7D54CE000BFFEF752FD001B0228F3
:101C300002D90320BDE8F88328688001F4D4E8685D
:101C40001E490840E8603BE00128F3D0E868226ABA
:101C500000F00301914226D1616A00F0F00209010F
:101C6000103991421FD1A26A00F4FE41B1EB022F5C
:101C700019D194F82C2000F07841B1EBC26F12D149
:101C8000218E00F4C00249084905A1F500119142D6
:101C900009D194F8341000F0C06049084906A1F158
:101CA000007181420CD00120C4E700000010024006
:101CB00000000020007000400C809F01FCFFEEFE41
:101CC0000020B7E710B5401EB0F1807F01D301209E
:101CD00010BD4FF0E02460610F21601701F01FF884
:101CE0000020A06107202061002010BD90F8841022
:101CF000012918D0012180F884102421C0F888100F
:101D000001680A680B6823F001030B6022F00051A0
:101D100000224266036819602021C0F8881080F80C
:101D20008420104670470220704770B5044690F832
:101D3000840001281DD0012084F884002420C4F8E8
:101D4000880020680568026822F0010202602068AD
:101D5000826822F060620A438260204600F042FD01
:101D6000206805602020C4F88800002084F88400E2
:101D700070BD022070BD70B5044690F88400012843
:101D80001DD0012084F884002420C4F88800206835
:101D90000568026822F0010202602068826822F071
:101DA00060420A438260204600F01CFD2068056006
:101DB0002020C4F88800002084F8840070BD022030
:101DC00070BD10B5040003D0D4F8880010B107E04E
:101DD000012010BD002084F88400204600F026F881
:101DE0002420C4F888002068016821F00101016006
:101DF000A06A10B1204600F017FD204600F0F8FD63
:101E00000128E6D02068416821F4904141602068B3
:101E1000816821F02A0181602068016841F0010198
:101E200001602046BDE8104000F062BD10B59CB0D6
:101E30000446142115A8FEF7B6FA54216846FEF7A9
:101E4000B2FA16492068884226D101200224CDE941
:101E500000046846FFF76AFA08B1FEF70AFB10486B
:101E6000016E41F480410166016E01F480411A91D6
:101E7000C16C41F00401C164C06C15A900F00400FC
:101E80001A903020CDE915040020179018900720F3
:101E900019900448FEF702FB1CB010BD0038014049
:101EA00000100240000800482DE9F84F0446D0F821
:101EB0008800984615460E46202802D00220BDE82C
:101EC000F88F96B38DB30020C4F890004FF021092D
:101ED000C4F888901834FEF7FBFBA5878246E58797
:101EE00054F8100C183CB0F5805F01D1206910B196
:101EF0003546002600E000255FF02007B4F85600C4
:101F000053464FF00002CDF80080D8B18021204622
:101F100000F0BAFED8B955B115F8010B21688862F6
:101F2000D4F8881039EA010006D00120C7E736F856
:101F3000020BC0F30800F1E7B4F85600401EA4F805
:101F40005600DBE74021204600F09EFE18B1C4F8A1
:101F500088700320B3E7C4F888700020AFE7072932
:101F600012D2DFE801F00A12181E242A04000068C9
:101F7000D0F8841341F0010104E00068D0F8841324
:101F800041F00201C0F8841370470068D0F8841350
:101F900041F00401F6E70068D0F8841341F008012D
:101FA000F0E70068D0F8841341F01001EAE7006818
:101FB000D0F8841341F02001E4E70068D0F88413DE
:101FC00041F04001DEE7000070B503681A68D3F8FD
:101FD000A0534C6922F020022646144324F0C0028C
:101FE000202E2BD08C69022C28D0032C2BD0042C33
:101FF0002ED022F0E00200BF22F40064CA6922431E
:1020000022F480640A6A224322F0C0644A6A2243AE
:1020100022F000648A6A2243CC6A22F0404242EAFB
:10202000840222F000544A6B096B224325F4803469
:1020300021431A600068C0F8A01370BD22F0C002EE
:1020400042F02002D8E722F0800242F04002D3E7BB
:1020500022F0400242F08002CEE7F0B50024E426F0
:10206000056806EBC11755F807C0B82606EBC11680
:10207000AE59402A20D00EDC082A2CD006DC012ADA
:102080001AD0022A27D0042A31D115E0102A13D001
:10209000202A2CD11FE0B2F5007F1CD005DC802A5D
:1020A00019D0B2F5807F22D106E0B2F5806F03D05F
:1020B000B2F5006F1BD10EE04FF0BC0E0EEBC11E4F
:1020C0005A6845F80E204FF0C00E05680EEBC1119E
:1020D0009A686A500BE0C42404EBC1145A682A5170
:1020E000C825046805EBC1119A6862501024FE21CE
:1020F000A1401A682CEA010CA240D96842EA0C02FD
:10210000A14011431A69D3F814C01546A2400A43EE
:102110000CFA04FC99694CEA020CA14041EA0C015A
:10212000082D06D1B20504D4B20102D4DA69A24066
:1021300011430068C151F0BD2DE9F04F80240368C0
:1021400004EBC1169C5924F070449C5103689A46D4
:102150009D59E82404EBC114A64653F80490E424E6
:1021600004EBC114A3461C59D3F8A033576925F0DA
:1021700020053D43202F24D09769022F21D0032F23
:1021800024D0042F27D025F4D07500BF25F4006794
:10219000D5693D4325F48067156A3D4325F0C06746
:1021A000556A3D4325F00067956A3D4325F0704729
:1021B000D56A3D43576B25F40035B7F1005F0FD06A
:1021C00010E025F4C07545F02005DFE725F48075A3
:1021D00045F08005DAE725F0800545F48075D5E700
:1021E00045F4003525F04007956BD2F850802F4319
:1021F00027F4802C976D47EA0C07DFF8D0C007EA78
:102200000C0748EA070892F83C7029F03F0C07F0E9
:102210003F0747EA0C0727F0004C176C47EA0C070A
:1022200025B924F4807C546C44EA0C04D2F848C0EC
:10223000BCF5606F02D0BCF5F05F01D1402D03D139
:1022400024F4F0544CEA040424F48045D46C2C4368
:10225000556D062927D2DFE801F003090F151B2170
:10226000126B23F4003343EA42031CE0126B23F4A5
:10227000802343EA820316E0126B23F4002343EA2F
:10228000C20310E0126B23F4801343EA02130AE046
:10229000126B23F4001343EA421304E0126B23F49D
:1022A000800343EA82134AF80680066846F80E70F7
:1022B000066846F80B40D424026804EBC11155505F
:1022C0000068C0F8A033BDE8F08F0000FFFF06FEF5
:1022D000FEE7000070B5BEB000243A9437943894FD
:1022E00039943594369434943094319432941C213A
:1022F00020A83394FEF757F860216846FEF753F89C
:102300003B943C94242127A83D94FEF74CF82021CF
:1023100018A8FEF748F8F248F049C0E900148460B4
:10232000FEF786FC08B172B6FEE70C21EC48FEF71A
:10233000D5F908B172B6FEE70A21E948FEF77CFD3F
:1023400008B172B6FEE70021E548FEF751FC08B17E
:1023500072B6FEE70220CDE93740399437AA012151
:10236000DF483A94FEF7A8FA08B172B6FEE7349453
:10237000359434AA0121DA483694FEF787FB08B178
:1023800072B6FEE734AA0121D548FEF71FFA08B15C
:1023900072B6FEE701221146D148FEF7F1FB34AADE
:1023A0000821CF48FEF772FB08B172B6FEE734AAE7
:1023B0000821CB48FEF70AFA08B172B6FEE737AA41
:1023C0000821C748FEF778FA08B172B6FEE7012285
:1023D0000821C348FEF7D4FB48F2D040CDE93004D1
:1023E00003200825CDE9320530AA0021BC48FEF7BC
:1023F00044FD08B172B6FEE72094239420AA002180
:10240000B7482694FEF773FE08B172B6FEE7009453
:10241000019401200294CDE90340059406940794A9
:10242000C0060894CDE909408000CDE90C4046156E
:102430000B94CDE910460F9412940E9414941594B5
:1024400016946A460021A6481794FEF708FE08B1C4
:1024500072B6FEE76A460121A148FEF700FE08B108
:1024600072B6FEE76A4602219D48FEF7F8FD08B104
:1024700072B6FEE70D940A9411946A4603219848B7
:102480001294FEF7ECFD08B172B6FEE76A4604212D
:102490009348FEF7E4FD08B172B6FEE76A460521EF
:1024A0008F481294FEF7DBFD08B172B6FEE74FF6D7
:1024B000FB703B903BAB012200218948FEF71AFDDF
:1024C00008B172B6FEE74FF4C05027904FF4887001
:1024D000CDE928042A94CDE92B402D942E9427AAE7
:1024E00000217F482F94FEF72BF908B172B6FEE762
:1024F00027AA01217A48FEF723F908B172B6FEE750
:1025000027AA02217648FEF71BF908B172B6FEE74A
:102510000420CDE91840CDE91A541C941D941E9452
:1025200018AB012200216E481F94FEF77DFD08B113
:1025300072B6FEE718AB042201216948FEF774FD6C
:1025400008B172B6FEE718AB102202216448FEF70C
:102550006BFD08B172B6FEE7199418AB4022032157
:102560005F481A94FEF760FD08B172B6FEE718AB3B
:10257000324604215A48FEF757FD08B172B6FEE70D
:1025800018AB4FF4806205215548FEF74DFD08B1A8
:1025900072B6FEE718AB022200215148FEF744FD57
:1025A00008B172B6FEE718AB082201214C48FEF7CD
:1025B0003BFD08B172B6FEE718AB20220221484865
:1025C000FEF732FD08B172B6FEE718AB8022032198
:1025D0004348FEF729FD08B172B6FEE718AB4FF489
:1025E000007204213E48FEF71FFD08B172B6FEE7F7
:1025F00018AB4FF4006205213948FEF715FD08B10C
:1026000072B6FEE730AA01213548FEF736FC08B164
:1026100072B6FEE720AA01213148FEF768FD08B135
:1026200072B6FEE701223BAB11462D48FEF762FC75
:1026300008B172B6FEE730AA02212948FEF71DFC58
:1026400008B172B6FEE720AA02212548FEF74FFD29
:1026500008B172B6FEE73BAB012202212048FEF72B
:1026600049FC08B172B6FEE74FF6DF70309030AA31
:10267000032132941A48FEF700FC08B172B6FEE757
:1026800020AA03211648FEF732FD08B172B6FEE714
:1026900030AA04211248FEF7F0FB08B172B6FEE73B
:1026A00020AA04210E48FEF722FD08B172B6FEE70B
:1026B00030AA05210A48FEF7E0FB08B172B6FEE732
:1026C00020AA05210648FEF712FD08B172B6FEE702
:1026D0000348FEF753FB3EB070BD000000680140A8
:1026E00010000020174810B5154901604FF4E13182
:1026F0004160002181600C22C160C0E90412816147
:10270000C161016241628162FFF75BFB08B172B691
:10271000FEE700210B48FFF72EFB08B172B6FEE77B
:1027200000210848FFF701FB08B172B6FEE7054833
:10273000FFF7DCFA002801D072B6FEE710BD0000FA
:10274000003801400C010020FEE7FEE770477047AB
:1027500010B594B038216846FDF725FE14210EA867
:10276000FDF721FE0020FEF77BFD03244FF48030AF
:10277000CDE9004000120390402004900521CDE9EE
:10278000084102204421CDE90A1007900C900D90D9
:102790006846FFF795F808B172B6FEE70F20CDE95D
:1027A0000E04002010901190129004210EA8FEF744
:1027B0003DFF002801D072B6FEE714B010BD000046
:1027C0000248016841F470010160704788ED00E043
:1027D00001B56423012269460148FFF765FB08BD86
:1027E0000C01002030B5416EB9B102689168926861
:1027F000C1F342610B4B520F9C5CE50003F10804EE
:10280000A25CB5FBF2F2A0F86A205A5C615CD200CF
:10281000B2FBF1F1A0F8681030BD0121A0F86A10F8
:10282000F8E70000CE2D000890F82810090706D51B
:1028300001684A68836B22F400421A434A6090F8A8
:102840002810C90706D001684A68C36A22F400321A
:102850001A434A6090F82810890706D501684A682B
:10286000036B22F480321A434A6090F8281049071B
:1028700006D501684A68436B22F480221A434A60F5
:1028800090F82810C90606D501688A68C36B22F43F
:1028900080521A438A6090F82810890606D501688C
:1028A0008A68036C22F400521A438A6090F8281058
:1028B000490611D501684A68436C22F480121A4314
:1028C0004A60416CB1F5801F06D101684A68836C8B
:1028D00022F4C0021A434A6090F82810090606D56F
:1028E00001684A68C06C22F4002202434A607047C3
:1028F0002DE9F84300260446C0F89060FDF7E8FE95
:102900008046206800684FF0200500076FF07E4782
:1029100013D54346002229042046009700F0B4F95D
:1029200058B1216851E8000F20F0800041E8000212
:10293000002AF6D1C4F8885021E0206800684007DA
:1029400022D5434600224FF480012046009700F034
:102950009BF9C8B1216851E8000F20F4907041E85C
:102960000002002AF6D12068083050E8001F21F04C
:10297000010140E80012002AF5D1C4F88C5084F817
:1029800084600320BDE8F883C4F88850C4F88C50F4
:1029900044F86C6F666026760020F3E710B5026895
:1029A00052E8001F21F4907142E80013002BF6D189
:1029B0000E4B0268083252E8001F194042E800142A
:1029C000002CF6D1C16E012908D1016851E8002F11
:1029D00022F0100241E80023002BF6D12021C0F89C
:1029E0008C100021C166416710BD0000FEFFFFEFA3
:1029F0002DE9F0410446016880682269E3691043CB
:102A0000626900251A431043DFF84CC20A68934BF1
:102A10001A4002430A6020684168E26821F440518C
:102A2000114341602168A069614501D0226A1043C9
:102A30008A688B4B1A4002438A602068C16A626AC6
:102A400021F00F011143C1628649236886488B42F9
:102A50000DD1D0F8880010F0030006D0012867D00F
:102A6000022854D0032851D164E001204FE07F496F
:102A70008B420BD1D0F8880010F00C0047D004280E
:102A800045D0082852D00C2840D153E078498B42D9
:102A90000BD1D0F8880010F0300038D0102847D083
:102AA000202843D0302831D144E072498B420BD1E9
:102AB000D0F8880010F0C00029D0402838D08028F5
:102AC00034D0C02822D135E06B498B420ED1D0F8EA
:102AD000880010F440701AD0B0F5807F28D0B0F58F
:102AE000007F23D0B0F5407F10D123E063450DD1A6
:102AF000D0F8880010F4406009D0B0F5806F17D08E
:102B0000B0F5006F12D0B0F5406F13D010205B4AC3
:102B10005B4F00264FF40041634539D160B1022874
:102B20000DD004280DD0082831D10EE00220EEE7A8
:102B30000420ECE70820EAE7FEF766FE03E0114612
:102B400003E0FEF785FE01007BD0606A37F81020B5
:102B50006768B1FBF2F007EB4703834269D8B0EB3B
:102B6000073F66D8002308461946FDF7A5FB090272
:102B700041EA106102027808101871413A460023B8
:102B8000FDF79AFB3F4AA0F54071914257D950E0BA
:102B9000E3694FF6EF788B422BD1092849D2DFE861
:102BA00000F005080D48254848480E00FEF72CFEA9
:102BB00001E0FEF73BFE010001D142E01146606AF0
:102BC00037F81000B1FBF0F04100606801EB5001F4
:102BD000B1FBF0F1A1F1100040452AD84FF6F07298
:102BE00001EA0200C1F34201084328E0FEF730FE8B
:102BF000E1E709281DD2DFE800F005080D1C1E1CC6
:102C00001C1C0E00FEF700FE01E0FEF70FFE0100A7
:102C100001D116E01146606A37F81000B1FBF0F1FF
:102C2000606801EB5001B1FBF0F0A0F110014145EB
:102C300004D9012505E0FEF70BFEE8E780B2216824
:102C4000C8600120A4F86A0024F8680F2846E660EE
:102C50002661BDE8F081000000800040F369FFCFED
:102C6000FFF4FF1100380140001002400044004012
:102C700000480040004C0040005000400024F40098
:102C8000B62D0008FFFC0F002DE9F04799461746C6
:102C90000D4604464FF00008089E33E0701C31D00A
:102CA000FDF716FDA0EB0900B04218D8BEB12068B0
:102CB0000168490726D5802D24D0402D22D0C16936
:102CC000C94309070DD4082505622046FFF766FEB3
:102CD000C4F8905084F884800120BDE8F087032078
:102CE000FBE7C069C04300050CD421684FF40060C5
:102CF00008622046FFF752FE2020C4F8900084F8B6
:102D00008480ECE72068C06935EA000004D0002028
:102D1000B842C3D00020E0E70120F9E7FEE7090749
:102D2000090E002804DB00F1E02080F80014704751
:102D300000F00F0000F1E02080F8141D7047000043
:102D400008B5FEF711FAFFF703FD1748C16C41F013
:102D50002001C164C16C01F020010091C16C41F0FF
:102D60000401C164C16C01F004010091C16C41F027
:102D70000201C164C16C01F002010091C16C41F01B
:102D80000101C164C06C00F001000090FFF7A2FADD
:102D9000FFF7A8FC4FF4FA740820FFF719FD20464E
:102DA000FDF76AFBF8E70000001002404FF04070AA
:102DB000E1EE100A7047010002000400060008005E
:102DC0000A000C00100020004000800000010101FA
:102DD00001030701000008040204080101010000CA
:102DE00000000000000001020304060708090000BB
:102DF0000000010203040000182E0008000000205B
:102E00001000000014020008282E00081000002006
:102E1000F007000030020008100000000100000070
:082E2000000000000024F40092
:04000005080001D915
:00000001FF
