:020000040800F2
:10000000D00B00209902000807530008394A000865
:100010007950000873150008AD6300080000000067
:10002000000000000000000000000000615900080E
:100030005316000800000000095300086359000827
:10004000B3020008B3020008B3020008B3020008BC
:10005000B3020008B3020008B3020008B3020008AC
:10006000B3020008B3020008B302000875150008C7
:1000700081150008B30200088D15000899150008C5
:10008000B3020008B3020008B3020008B30200087C
:10009000B3020008B3020008B3020008B30200086C
:1000A000B3020008B3020008E5590008B3020008D3
:1000B000B3020008F1590008B3020008B3020008B7
:1000C000B3020008B3020008B3020008B30200083C
:1000D000B3020008A1630008B3020008B3020008DD
:1000E000B3020008B3020008B3020008B30200081C
:1000F000FD590008B3020008B3020008B30200086B
:10010000B3020008B3020008B3020008B3020008FB
:10011000B3020008B3020008B3020008B3020008EB
:10012000B3020008B3020008B3020008B3020008DB
:10013000B3020008B3020008B3020008B3020008CB
:10014000B3020008B3020008B3020008B3020008BB
:10015000BD430008B3020008B3020008B302000860
:10016000B3020008B3020008B3020008B30200089B
:10017000B3020008B3020008B3020008B30200088B
:10018000B3020008B3020008B3020008B30200087B
:10019000B302000800000000B3020008B302000828
:1001A000B3020008B3020008B3020008B30200085B
:1001B000B3020008B3020008B3020008B30200084B
:1001C000B3020008B3020008B3020008B30200083B
:1001D000B3020008B302000800F002F800F04CF887
:1001E0000AA090E8000C82448344AAF10107DA4592
:1001F00001D100F041F8AFF2090EBAE80F0013F098
:10020000010F18BFFB1A43F00103184710650000E7
:1002100030650000103A24BF78C878C1FAD8520778
:1002200024BF30C830C144BF04680C607047000070
:100230000023002400250026103A28BF78C1FBD8EF
:10024000520728BF30C148BF0B607047662906F0CF
:10025000F981642900F0D480002070471FB506F0B2
:10026000ECF900F049FC04000020002106F058F9E8
:10027000E0601FBD10B510BD00F03EFD1146FFF758
:10028000EDFF06F0C3F800F05CFD03B4FFF7F2FFEA
:1002900003BC00F09FFD0000094880470948004763
:1002A000FEE7FEE7FEE7FEE7FEE7FEE7FEE7FEE726
:1002B000FEE7FEE704480549054A064B7047000083
:1002C000D5590008D9010008D0050020D00B002026
:1002D000D0070020D007002053EA020C00F069800C
:1002E0002DE9F04B4FF00006002B1FBFB3FA83F54A
:1002F00003FA05F424FA05F65E4012BF1643B2FA7B
:1003000082F502FA05F4C5F120051EBF22FA05FCAC
:1003100044EA0C04203556EA044C4FEA144418BF52
:10032000641C4FF000084FF00009904271EB030C81
:1003300039D3002919BFB1FA81F701FA07F6B0FAEB
:1003400080F700FA07F6C7F120071EBF20FA07FC66
:1003500046EA0C062037B6FBF4FCA7EB0507103F76
:1003600007F01F0BCBF120060CFA0BFB2CFA06F65C
:1003700044BFB3460026202FA4BF5E464FF0000BBB
:100380005BEA060C08BF4FF0010B19EB0B09ABFB46
:10039000027C48EB0608C01B06FB02CC0BFB03CC1F
:1003A00071EB0C01C1E70B46024641464846BDE8E9
:1003B000F08B13B54FF000004FF00001AFF3008059
:1003C000BDE81C40704700000FB47CB50C0009AAC2
:1003D000009001D02044401E084B7B4469460190A8
:1003E000089800F068FB05461CB10020694600F043
:1003F00075FB28467CBC5DF814FB00000907000073
:100400002DE9F0410646002410687529314616A5ED
:1004100010D0AFF30080002802DA404213A507E0B5
:1004200031688A0701D512A502E0490704D511A554
:10043000012401E0AFF3008000210A2206F1240725
:1004400009E0B0FBF2FCB0FBF2F302FB1C00303021
:1004500078541846491C0028F3D123462A463046D2
:10046000BDE8F04100F0B9B8000000002D00000028
:100470002B000000200000002DE9F0474FF0000A9B
:1004800089460446C0F820A02046E1688847002835
:1004900076D0252806D0D4E901219047206A401C57
:1004A0002062F1E7E168204600258847C4F81CA0D7
:1004B00006460027C4F818A02A2E09D0304605F0B9
:1004C0009EFF38B304EB8708303EC8F8186019E087
:1004D00059F8041B204604EB87029161E1688847C4
:1004E000012F064618D1E069002820DA25F0200502
:1004F0001DE0D8F8180000EB800006EB4000303813
:10050000C8F818002046E1688847064605F077FFDE
:100510000028EED1012F0AD02E2E08D12046E16806
:1005200088477F1C0646022F45F02005C4DBA069E2
:10053000002803DA404245F00105A061E80701D038
:1005400025F01005B6B1A6F14100192802D82036D1
:1005500045F400654A463146204625604D46FFF782
:1005600075FE58B1012806D0ED1D25F0070000F1F9
:10057000080989E704E005F1040985E730468AE7C0
:10058000206ABDE8F0874FF0000200B5134694469C
:100590009646203922BFA0E80C50A0E80C50B1F1DB
:1005A0002001BFF4F7AF090728BFA0E80C5048BFEF
:1005B0000CC05DF804EB890028BF40F8042B08BF8D
:1005C000704748BF20F8022B11F0804F18BF00F889
:1005D000012B70477047704770472DE9F0470D4673
:1005E00099469246044600F124080168880604D51D
:1005F000E06921F01001216000E00120A84201DD46
:10060000471B00E00027A1697A1902EB0900081ACC
:10061000A0612078C00602D42046AFF300800026F7
:1006200008E0D4E901211AF806009047206A401C2E
:10063000761C20624E45F4DB2078C0060AD52046A1
:10064000AFF3008006E0D4E9012130209047206A12
:10065000401C2062381EA7F10107F4DC07E0D4E952
:10066000012118F805009047206A401C2062281ECE
:10067000A5F10105F3DC2046AFF3008020780006E9
:1006800002D50220BDE8F0870120FBE770472DE985
:10069000FF4F0C461E464FF0FF378BB0D2E90001EA
:1006A000DDF860800A908A46C1F30A5505B93D46D7
:1006B000002108464FF00000BAF1000F00F440009E
:1006C00005DA00EB80004FF4400101EA50004FEAE8
:1006D0009059B9F1010F00DDB9460A9850EA4A0075
:1006E0000ED044F61050A5F2FF3545432F14B8F153
:1006F000000F1ED07542291E1EDDC9F100021CE04C
:10070000B8F1010F4FF0000001D0302103E0F243B7
:1007100005E02154401CB042FBDB304600220021A2
:1007200021540B99C1F80880C1E900200FB0BDE841
:10073000F08FBD1B6D1CDEE74A4600DA694206A851
:1007400000F064FA06AB93E8070003AB83E8070008
:1007500050460A9900F045FB8DE80700A0F50050CF
:100760001F3800900398002D0ADD42F21F014A460F
:100770000844002303A90390684600F0AEFD09E099
:10078000A0F500504A461F38002303A9039068468D
:1007900000F0B8FD8DE807000004000C03D04FF016
:1007A000FF30410800E01046B8F1000F03D00022EE
:1007B000009215461EE0751E05D400F0A1F93032F6
:1007C00062556D1EF9D5B3460122084302D00022BE
:1007D0007F1C04E02078302801D100227F1E002AEF
:1007E000099784D01DE0112D07DA00F089F9303225
:1007F00062556D1C50EA0102F5D1084302D0009801
:10080000C8B10EE00021681E05E0235C625C635401
:100810002254401E491C8142F7DBAB46A81B401EF8
:100820000990002004F80B000B98099AC0F8088082
:10083000C0E9002B7AE711264FF0000857E72DE9B1
:10084000F04F88460446D21D22F0070191B0D1E94D
:100850000001CDE90A0105F0AAFD02460B98C00F80
:1008600001D02D2007E02068810701D52B2002E070
:10087000202101EAC000032A099001D0072A05DBE4
:1008800003464146204600F081F90BE120788006BE
:1008900001D5E06900E00620B8F1650F814606D079
:1008A000B8F1660F18D0B8F1670F70D131E00020B1
:1008B000B9F1110F009001DB112301E009F10103EF
:1008C0000AAA01A90CA8FFF7E2FEDDE90C700026D8
:1008D00009F10105834647E001204B4600904FF0A7
:1008E00000470AAA01A90CA8FFF7D1FEDDE90DB067
:1008F0000C995D46002610B909F101000D18B9EBFD
:10090000050003D4C0F1FF3609F10105A5EB09008C
:100910002BE0B9F1010F01DA4FF001090020B9F124
:10092000110F0090484601DD112300E003460AAA9A
:1009300001A90CA8FFF7ABFEDDE90C704D460026BF
:100940008346207800070AD4AB4500DA5D4601A84B
:10095000012D04DD411911F8011C302907D04F4544
:1009600002DA17F1040F04DA012082460FE06D1E4F
:10097000EEE7002F02DCED1B3E4403E0781CA842AA
:1009800000DD7D1CB81B00F1010A4FF00047207804
:10099000000703D4AA4501DB4FF0FF3A0021B7F16D
:1009A000004F0DF143088DF8431024D002202B2373
:1009B000002F01DA7F422D230A21021EA0F101003F
:1009C00000DC5FB197FBF1FC97FBF1F201FB1C7CB3
:1009D00017460CF1300C08F801CDEEE7A8F1010044
:1009E00003702188090501D5452100E06521A0F1AA
:1009F000010800F8011C09980FA9A1EB0807FF1DC9
:100A000000B10120411901EBEA70A1693844081ACC
:100A1000401EA0612078C00602D42046AFF30080BB
:100A2000099828B1D4E901219047206A401C20622E
:100A30002078C00622D52046AFF300801EE0002EAD
:100A400004DBB34502DD01A8805D00E03020D4E97D
:100A500001219047206A401C2062761CAAF1010007
:100A60005FEA000A0AD100F047F8C0680168405CFC
:100A7000D4E901219047206A401C2062281EA5F17C
:100A80000105DCDC07E0D4E9012118F8010B9047EF
:100A9000206A401C2062381EA7F10107F3DC2046C3
:100AA000AFF30080032011B041E6000001694A1C49
:100AB00002610878704700B58FB0CDE9013100219F
:100AC000059105497944CDE9031011466846FFF7C1
:100AD000D3FC0FB000BD0000E5FFFFFF0A6802F87D
:100AE000010B0A607047D1E900239A4202D2531CDD
:100AF0000B601070704700000048704790050020A0
:100B000030B5B0F10A024FEA900E71F100034EEADF
:100B1000817EB0EB0E0061EB91014FEA101E4EEAB0
:100B2000017E10EB0E0041EB11114FEA102E4EEA40
:100B3000016E10EB0E0041EB11214FEA104E4EEA10
:100B4000014E10EB0E0041EB1141401841F1000144
:100B50004FEAD00040EA41704FEAD10110EB800526
:100B60004FEA810444EA907444EB01046D1944EBAC
:100B70000404521BA3414FF0000348BF0A3200D5C2
:100B800030BD401C41F1000130BD00002DE9F041B5
:100B90001F46044603260168072A01F4006004DBAF
:100BA00008B116A505E016A503E008B115A500E0FB
:100BB00015A521F010002060A069C01EA0610FB132
:100BC000401EA0612046AFF300804FB1D4E901215F
:100BD00038469047206A401C2062C01C206206E014
:100BE000206AFAE7D4E9012115F8010B9047761E37
:100BF000F8D22046AFF30080BDE8F0814E414E00B0
:100C00006E616E00494E4600696E66002DE9F04740
:100C1000814616468AB0354878440DC88DE80D00E7
:100C200032487844801C03AC0DC884E80D0041F6BE
:100C30009B300844372190FBF1F290FBF1F5A5F1D0
:100C4000800501FB12041B3C02D56442012000E038
:100C50000020DFF898A080460027FA44AAF1BE0AD7
:100C60000EE0E0070AD03246684607EB4701012351
:100C70000AEB810100F046FB8DE8070064107F1C41
:100C8000002CEED1194F7F44AE3F19E0E80715D094
:100C900007EB04100DF1180A90E80E008AE80E0028
:100CA000C068F04201D1981908903246012306A984
:100CB00003A800F027FB03AB83E807006D10641C5A
:100CC000002DE3D14FF0010332466946B8F1000F21
:100CD00003A802D000F001FB01E000F013FBC9E91A
:100CE0000001C9F808200AB0BDE8F087E85A000002
:100CF00000487047700500207546FFF7F9FFAE46C3
:100D000005006946534620F00700854618B020B517
:100D1000FFF7D0FABDE820404FF000064FF0000783
:100D20004FF000084FF0000B21F00701AC46ACE893
:100D3000C009ACE8C009ACE8C009ACE8C0098D4600
:100D4000704710B50446AFF300802046BDE8104060
:100D5000FFF79BBA4FF0013C50F8042B51F8043BCD
:100D60009A4221D1A2EB0C03934313EACC1317D17F
:100D700050F8042B51F8043B9A4215D1A2EB0C0316
:100D8000934313EACC130BD150F8042B51F8043BD6
:100D90009A4209D1A2EB0C03934313EACC13DBD0A4
:100DA0004FF00000704700BFD01A01BAB1FA81F1CC
:100DB00001F0180122FA01F0CB40C1F12001DBB2B1
:100DC000C0B2C01A2CFA01F3D11A914311EAC3112F
:100DD000E6D1704701491820ABBEFEE726000200AD
:100DE00070475FEA400C08BF91F0000F4FEA8C2378
:100DF0004FEAC12243EA51514FEA1C5018BF00F597
:100E0000F0404FEA300018BF41F000415FEA6C5CEF
:100E100000F02980BCF1FF3F08BF40F080407047E0
:100E2000130C06BF12044FF0100C4FF0000C130E01
:100E300004BF12020CF1080C130F04BF12010CF1D5
:100E4000040C930F04BF92000CF1020CD30F04BFEB
:100E500052000CF1010C11464FF00002A0F11F00EE
:100E6000A0EB0C00704711F0004F08BF704731F045
:100E700000413FF4D5AF0B0C06BF09044FF0100C36
:100E80004FF0000C0B0E04BF09020CF1080C0B0F05
:100E900004BF09010CF1040C8B0F04BF89000CF195
:100EA000020CCB0F04BF49000CF1010CCCF1200364
:100EB000A0EB0C0022FA03F302FA0CF241EA030160
:100EC00000F10100704720F07F4C80EA030023F01E
:100ED0007F47ACEB070303F57C5300F0004003F1C0
:100EE000FF032DE980494FEA154B09B44FEA14433B
:100EF00025EA0B4E24EA03480FF2042606EB1327DB
:100F000049083E785FEA320203FB0667C7F500072F
:100F100007FB06F64FEA54374FEAD64606F10206BB
:100F200007FB066CCCF1005C4FEA1C472CEA074C2F
:100F300007FB06F40CFB06F504EB15464FEA961684
:100F400034BF00204FF000404FEAD13706FB07FCCA
:100F50004FEA1C4C0CFB0BF7D21B03FB0CF761EBAD
:100F600007010CFB0EF7B0EB074072EB17420CFBCE
:100F700008F734BFA2EB0742B2EB074261EB17411F
:100F80004FEA0C444FEA910706FB07FC4FEA1C4C62
:100F90000CFB0BF7B0EBC74072EB573203FB0CF7BF
:100FA00034BFA2EBC742B2EBC74261EB57310CFB37
:100FB0000EF7B0EBC70072EB57720CFB08F734BFAB
:100FC000A2EBC702B2EBC70261EB5771039F4FEA76
:100FD000816141EA921104EBCC044FEAD1374FEA28
:100FE000826206FB07FC42EA90124FEA80604FEAF9
:100FF0001C4C0CFB0BF7D21B03FB0CF761EB07013E
:101000000CFB0EF7B0EB074072EB17420CFB08F736
:1010100034BFA2EB0742B2EB074261EB17414FEA44
:101020008C554FEA910704EB9C2406FB07FC4FEA22
:101030001C4C0CFB0BF7B0EBC74072EB573203FBB9
:101040000CF734BFA2EBC742B2EBC74261EB57319A
:101050000CFB0EF7B0EBC70072EB57720CFB08F7F6
:1010600034BFA2EBC702B2EBC70261EB577115EBBD
:101070004C254FEA816141EA92114FEA82624FEAC0
:10108000D13742EA901206FB07FC44F100044FEA14
:1010900080604FEA1C4C0CFB0BF7D21B03FB0CF7D8
:1010A00061EB07010CFB0EF7B0EB074072EB174248
:1010B0000CFB08F734BFA2EB0742B2EB074261EB2F
:1010C000174115EB1C154FEA813141EA92414FEA75
:1010D000823242EA90424FEA80304FEA0C7644F185
:1010E000000448EA03434EEA0B484FF0000EB2EB0F
:1010F000080C71EB030724BF624639464EEB0E0E17
:101100004FF0000B0018524149414BEB0B0BB2EB77
:10111000080C71EB03077BF1000B24BF62463946D4
:101120004EEB0E0E4FF0000B0018524149414BEBB5
:101130000B0BB2EB080C71EB03077BF1000B24BF28
:10114000624639464EEB0E0E51EA020718BF46F0D2
:10115000010616EB0E7655F1000254F1000103D59D
:10116000BDE88901BDE80088BDE88901BDE8004807
:10117000B619524141EB0101A3F101037047808090
:101180007F7E7D7C7B7A79787776767574737271E1
:1011900071706F6E6E6D6C6C6B6A6A696868676699
:1011A00066656464636362616160605F5F5E5E5D2B
:1011B0005D5C5C5B5B5A5A5959585857575656559F
:1011C00055555454535352525251515050504F4F01
:1011D0004F4E4E4D4D4D4C4C4C4B4B4B4A4A4A4951
:1011E0004949484848474747474646464545454494
:1011F0004444444343434342424242414141002B21
:101200009C4630D477002BD01CB54FEA370703B487
:101210004FF010004FF01001BAF1000F06D0BCF1F2
:10122000000FDCBF40F0080040F008014FF0000064
:101230000FBCBDE810400BF1010BBBF1010F08BF63
:101240005FEA170722BF12F1010211F101014FF00D
:10125000004143F1000300F0004043EA0000704702
:10126000F9D35708D0E746EA064613F1400F4FEA94
:1012700016461FDD13F1200FDFBF16430A4600217B
:1012800020335B42BED0C3F1200746EA064602FA8D
:1012900007F74FEA164646EA0706C3F1200722FA87
:1012A00003F201FA07F721FA03F14FF0000342EAD3
:1012B0000702A7E746EA020646EA06464FEA16464E
:1012C00046EA0106BCBF46EA0646360C4FF000036C
:1012D0004FF000024FF0000194E72DE9804C9A4650
:1012E000934670B491E8380007C831EA400C48BF13
:1012F00034EA430C03D5FFF7E6FDFFF780FFF0BCAF
:10130000BDE8008C2DE9804C9A46934670B491E874
:10131000380007C810F0804F08BF13F0804F03D18A
:1013200000F005F8FFF76BFFF0BCBDE8008C20F083
:101330007F4780EA030023F07F4C07EB0C03A3F503
:101340007C5300F00040A3F1FE0392F0000F00F088
:10135000B38095F0000F00F077802DE901494FEA46
:1013600011404FEA144621EA004800FB06FC24EA3B
:10137000064708FB06F607FB08F800FB07F718EB23
:1013800006484CEB164C4FEA124B18EB07484FEA55
:1013900015464CEB174022EA0B4E0BFB06FC25EAE8
:1013A00006470EFB06F607FB0EFE0BFB07F71EEBD0
:1013B000064E4CEB164C4FF000061EEB074E4CEB66
:1013C000174B18EB0B0840F1000018EB0E0B58EB15
:1013D000000840F100008F1A4FF000013CBFC943E4
:1013E000661B14BFB5EB040C00213CBFC943F61BC0
:1013F0004FEA17444EEA8E0E27EA04454FEA1C478F
:1014000004FB07622CEA074C05FB07F70CFB05F60B
:1014100004FB0CFC16EB074642EB174216EB0C469E
:1014200042EB1C421BEB060658EB0202414146EA26
:101430009E0601D5BDE80189B619524141EB010173
:10144000A3F10103BDE801894FEA14454FEA1147B2
:1014500024EA054621EA074C05FB07F406FB07F7DB
:101460000CFB06F105FB0CFC11EB074144EB1744A8
:101470004FEA124711EB0C4144EB1C4422EA074CA3
:1014800005FB07F206FB07F70CFB06F605FB0CFC59
:1014900016EB074642EB174216EB0C4642EB1C4597
:1014A0006A1854F1000148BF7047B619524141EB28
:1014B0000101A3F10103704795F0000F37D04FEA07
:1014C00011424FEA144721EA024624EA074C02FB84
:1014D00007F106FB07F70CFB06F402FB0CFC14EB10
:1014E000074441EB17414FEA154714EB0C4441EB1D
:1014F0001C4125EA074C02FB07F506FB07F70CFB2E
:1015000006F602FB0CFC16EB074645EB174516EBFF
:101510000C4645EB1C42121951F1000148BF7047BF
:10152000B619524141EB0101A3F1010370474FEAA3
:1015300014454FEA114724EA054621EA074C05FB0A
:1015400007F106FB07F70CFB06F24FF0000605FB60
:101550000CFC12EB074241EB174112EB0C4251EB32
:101560001C4148BF7047921841EB0101A3F10103F0
:101570007047FEE7014800F035B90000F003002095
:10158000014800F02FB9000050040020014800F08D
:1015900029B90000B0040020014800F023B9000080
:1015A0001005002010B501680E4CCAB21423083A89
:1015B000A14203D2B2FBF3F20B4904E0B2FBF3F217
:1015C000094920310832436C02F01F0223F0030363
:1015D0001944816404498031C1640121914001654D
:1015E00010BD000008040240000802400179084ACA
:1015F00001F07F0102EB81024265054A4432491E37
:10160000826501F01F0201219140C1657047000011
:10161000FC08024030B5D0E913456560446D14B153
:10162000D0E91645656090F8444004F01F05012498
:10163000AC40056C6C60046863608368102B0368C1
:1016400003D099600068C26030BD9A600068C160D4
:1016500030BD704772B6FEE730B590F821300022F9
:10166000012B06D0416A41F002014162012210467D
:1016700030BD8C690B680D6923434C6800682C43AE
:1016800023434C6923438C68C96823430B43016897
:10169000024C21400B430360E9E7000000F887FF9C
:1016A00070B5040004D094F82100002510B106E0C4
:1016B000012070BD84F82050204600F00BF86562D0
:1016C0006560A560E56025610120656184F8210001
:1016D000002070BD08B500680649884208D1064858
:1016E000816C41F008018164806C00F0080000907A
:1016F00008BD0000000C02400010024010B500219F
:1017000040B190F825300122022B05D00421C1639D
:10171000012124E0012010BD03681C6824F00104AD
:101720001C6003681C6824F00E041C60836C1C6839
:1017300024F480741C6090F84430046C03F01F03A0
:1017400002FA03F36360D0E913345C60436D33B194
:101750001C6824F480741C60D0E916345C6080F846
:101760002520002280F82420084610BD70B590F88E
:101770002520002401212346022A07D00422C26327
:1017800080F8251080F82430012429E002681568CB
:1017900025F0010515600268156825F00E05156035
:1017A000826C156825F48075156090F84420056CEE
:1017B00002F01F0201FA02F26A60D0E913255560B7
:1017C000426D32B1156825F480751560D0E9162593
:1017D000556080F8251080F82430816B01B188476E
:1017E000204670BDF0B4016C0C6801680D6890F87B
:1017F000442002F01F06042202FA06F3234211D00D
:101800006B070FD50B689B0603D40B6823F004030A
:101810000B6090F8441001F01F018A40016C4A608F
:10182000016B1DE0022303FA06F727424FF0000C7C
:101830004FF0010218D0AF0716D50C68A40605D4E6
:101840000C6824F00A040C6080F8252090F84410FD
:1018500001F01F018B40016C4B6080F824C0C16A0D
:1018600000291AD0F0BC08470823B340234214D003
:101870002B0712D50B6823F00E030B6090F8441071
:10188000036C01F01F0102FA01F15960C26380F894
:10189000252080F824C0416BE2E7F0BC70470000CF
:1018A00070B504000CD02C4A21681420914209D252
:1018B0002A4A0A44B2FBF0F08000606428480AE03B
:1018C000012070BD244A52420A44B2FBF0F080006D
:1018D0006064214808382064022084F825000A68E2
:1018E00047F6F0708243D4E902031843D4E9043583
:1018F0002B431843A3691843E3691843236A184329
:10190000104308602046FFF74DFEA0680025B0F5A3
:10191000804F00D165602079A16C00F07F000860E5
:10192000D4E9130141606068401E032808D82046AE
:10193000FFF75CFE606D0560D4E91601416002E0CE
:101940006565A565E565E563012084F8250084F8F3
:101950002450002070BD000008040240F8FFFDBFC5
:101960000000024070B5044690F8240000250128CC
:101970000CD0012084F8240094F825600020012E6A
:1019800006D084F824000225284670BD022070BDD0
:10199000022684F82560E0632068066826F00106C8
:1019A00006602046FFF736FE206B0028206801689D
:1019B00002D041F00E0106E021F004010160206830
:1019C000016841F00A010160A06C0168C90303D5F8
:1019D000016841F480710160606D18B1016841F4E3
:1019E000807101602068016841F001010160CBE76E
:1019F00070B5044600F02EF90546601C02D004487C
:101A00004068044400F026F9401BA042FAD370BDA0
:101A1000000000202DE9F04FDFF80C920023012692
:101A20000325A9F1040B85B00F2709F1040AABF1D6
:101A3000040EF1E006FA03FC12EA0C027ED00C79E7
:101A400004F00304012C01D0022C20D184680094FE
:101A50005C0005FA04F80494009C24EA080400944D
:101A6000D1F80C80049C08FA04F8009C48EA0408A9
:101A7000C0F80880446824EA0C0491F804C0CCF350
:101A8000001C0CFA03FC4CEA040CC0F804C00C79EE
:101A9000E443A40702D18C68012C0ED0C4684FEA3D
:101AA000430805FA08FC24EA0C04D1F808C00CFA33
:101AB00008FC4CEA040CC0F80CC00C7904F00304D8
:101AC000022C16D1DC0800EB840CCDF808C0DCF841
:101AD00020C05C074FEAD46807FA08F42CEA040C2B
:101AE0000C6904FA08F444EA0C04DDF808C0CCF8E8
:101AF000204004684FEA430805FA08FC24EA0C0475
:101B000091F804C00CF0030C0CFA08FC4CEA040C2D
:101B1000C0F800C04C6814F4403F7CD0434CD4F86B
:101B200060C04CF0010CC4F860C0246E23F0030CBC
:101B300004F0010400943E4C644400E06BE0029425
:101B4000A4684FEA837C4FEA1C7807FA08FC24EA71
:101B50000C04B0F1904F06D0DFF8D8C0604505D135
:101B60004FF0010C20E04FF0000C1DE0DFF8C8C082
:101B7000604502D14FF0020C16E0DFF8C0C06045AE
:101B800002D14FF0030C0FE0DFF8B4C0604502D182
:101B90004FF0040C08E0DFF8ACC0604502D14FF014
:101BA000050C01E04FF0060C0CFA08FC4CEA040CA2
:101BB000029CC4F808C0D9F80040CC46D1F8048093
:101BC00094435FEAC82800D51443CCF80040DAF803
:101BD0000040D446D1F8048094435FEA882800D5B9
:101BE0001443CCF80040DBF80040DC46D1F8048018
:101BF00094435FEA883800D51443CCF80040DEF8FF
:101C00000040F446D1F8048094435FEAC83800D518
:101C10001443CCF800405B1C0C682246DC407FF487
:101C200009AF05B0BDE8F08F080401400010024084
:101C3000000001400004004800080048000C004873
:101C400000100048001400480AB1816170478162A9
:101C500070470000014880687047000000000020C5
:101C600070477047704770477047704770477047BC
:101C7000704710B590F8DC20012A21D0012280F8AD
:101C8000DC20022380F8DD304B1C1BD00368D3F826
:101C9000CC4344F00204C3F8CC430368D3F8CC43EC
:101CA00024F00C040C43C3F8CC430168D1F8CC33C6
:101CB00043F00103C1F8CC3380F8DD20002010BDD3
:101CC000022010BD0168D1F8CC3323F00203C1F823
:101CD000CC33EAE770B590F8DD30022B3CD090F8B9
:101CE000DC30012B38D0012500F8DC5F0223437083
:101CF0001388948803F4E053C4F308041C43138945
:101D00006FF07E4603F400732343148A04F4804486
:101D10001C43938903F400432343948A06EA044452
:101D20001C43936903F000732343146AD26904F0DF
:101D300080441C4302F00042224350F8DC3CB824AB
:101D400004EBC1141959054E314011431951457026
:101D500000210170084670BD022070BD0020003CCB
:101D60007047704770477047704770477047000072
:101D700030B590F8DD30022B14D090F8DC30012B18
:101D800010D0012380F8DC30022480F8DD400024EC
:101D900008293FD008DC01291AD0022922D00429C1
:101DA00006D12CE0022030BD10293ED0202946D09B
:101DB000072180F8DD1080F8DC4000BF90F8DD10CE
:101DC000072949D080F8DD3080F8DC40002030BDA4
:101DD0000168D1F80854926825F0030545EA4202EB
:101DE000521C09E00168D1F80854926825F4407546
:101DF00045EA422242F48072C1F80824DEE7016815
:101E0000D1F80854128925F4403545EA424242F49B
:101E10008032F1E70168D1F80854127A25F0407554
:101E200045EA426242F08072E6E70168D1F80C545C
:101E3000926825F0030545EA4202521C09E0016858
:101E4000D1F80C54926825F4407545EA422242F4D8
:101E50008072C1F80C24B1E7012030BD2DE9F04FAC
:101E600090F8DD30022B26D090F8DC30012B22D008
:101E70004FF0010B80F8DCB0022380F8DD300768FA
:101E8000D7F8D043D7F8D43315784FF4007805F05D
:101E90000106C5F340054FF4F04C4FF400494FF0F4
:101EA000000A08297ED009DC012935D0022947D053
:101EB000042907D159E00220BDE8F08F10296FD026
:101EC00020296ED0072180F8DD1080F8DCA000BF4B
:101ED00090F8DD1007297CD004F07F31C7F8D013CB
:101EE000056848F2800123EA0102C5F8D42302689C
:101EF000D2F8D05304F080342543C2F8D05302689E
:101F0000D2F8D4430B401C43C2F8D44380F8DDB070
:101F100080F8DCA00020CFE7117924F0FE0401F066
:101F20000201214341EA860423F4803141EA05435A
:101F3000117A127B01F07801214302F0800412E053
:101F4000516824F47E4408EA0121214341EA8624B1
:101F500023F4003141EA454391680CEA0121214311
:101F6000D46809EA04240C43B2E791884FF4003C9A
:101F700024F47E040CEA0141214341EA864423F41F
:101F8000802141EA854311894FF4F00505EA0141BA
:101F9000214392894FF4000404EA0244E3E701E09C
:101FA0001BE02EE011794FF0007C24F07E440CEA17
:101FB0000161214341EA866423F4002141EAC543DB
:101FC000117A4FF0F04505EA01612143127B2C01A3
:101FD00000E02BE004EA0264C5E7117923F0FE0378
:101FE00001F00201194341EA860121F4801141EA1E
:101FF0000553117A127B01F07801194302F0800336
:1020000012E0516823F47E4308EA0121194341EAB2
:10201000862121F4001141EA455391680CEA01211F
:102020001943D36809EA03230B4351E7012043E72F
:1020300030B590F8DD30022B14D090F8DC30012B55
:1020400010D0012380F8DC30022480F8DD40002429
:10205000082941D008DC01291AD0022923D00429FB
:1020600006D12EE0022030BD102940D0202949D0D1
:10207000072180F8DD1080F8DC4000BF90F8DD100B
:1020800007294DD080F8DD3080F8DC40002030BDDD
:1020900011685268890041EAC2120168D1F80854F7
:1020A00025F0BC0509E011685268890241EAC23294
:1020B0000168D1F8085425F43C452A43C1F80824A6
:1020C000DCE711889288890441EAC2520168D1F89C
:1020D000085425F43C05F0E711781279890641EAA5
:1020E000C2720168D1F8085425F03C45E5E7116853
:1020F0005268890041EAC2120168D1F80C5425F0F7
:10210000BC0509E011685268890241EAC2320168DF
:10211000D1F80C5425F43C452A43C1F80C24ADE712
:10212000012030BD10B5CB0706D00368D3F8D043EB
:1021300062F30004C3F8D0438B0706D50368D3F8D5
:10214000D04362F30824C3F8D0434B0706D5036895
:10215000D3F8D04362F31044C3F8D0430B0706D53D
:102160000368D3F8D04362F31864C3F8D043CB06B6
:1021700006D50368D3F8D44362F30004C3F8D4430C
:10218000890606D50068D0F8D41362F30821C0F898
:10219000D41310BD10B590F8DD20022A18D090F8A5
:1021A000DC20012A14D0012200F8DC2F0223437026
:1021B00050F8DC3CD3F8D44301F0407124F0407473
:1021C0000C43C3F8D443427000210170084610BD8F
:1021D000022010BDFF2903D0062903D002F0ACBABB
:1021E00002F026B902F0C1B938B5040056D0022079
:1021F00084F8DD000025C4F8E050C4F8E450C4F8C9
:10220000E850C4F8EC50C4F8F050C4F8F450C4F8E6
:10221000F850207AC0071BD021492068884208D195
:102220002048016E41F080610166006E00F0806020
:1022300000902168086820F44042208A00F4404061
:10224000104320F44052A08A00F44050104308602C
:10225000204600F029F8207A800708D52168086810
:1022600020F44072A08900F44070104308600120FF
:1022700084F8DD0084F8DC505FF00001C1EBC100A0
:1022800004EB8000491C8561C56105624562856279
:10229000C9B205630629F1D9002038BD012038BD37
:1022A000006801400010024070B586B00446142159
:1022B0006846FEF768F920492068884239D11F48EE
:1022C000016E41F080610166016E01F0806105914F
:1022D000C16C41F00201C164C16C01F002010591C1
:1022E000C16C41F00101C164C06C022500F0010025
:1022F00005904FF4006000900024CDE901540D26B4
:10230000CDE9034669460E48FFF784FBE8020090DA
:10231000CDE90154CDE9034669464FF09040FFF7FF
:1023200079FB00221146442000F0AEFA442000F070
:102330009DFA06B070BD0000006801400010024028
:102340000004004870B586B0044614216846FEF7C4
:102350001AF91849206888422AD11748C16C41F0FF
:102360000401C164C16C01F004010591C16C41F02C
:102370000101C164C06C022500F0010005904FF41A
:10238000407003240026CDE90005CDE902646946CA
:1023900004940A48FFF73EFB4FF470608DE861003B
:1023A0000D20CDE9034069464FF09040FFF732FB26
:1023B00006B070BD006801400010024000080048EF
:1023C000704770477047704770B50D460446FFF779
:1023D00041FC064607E0681C05D0FFF73BFC801B6C
:1023E000A8420DD865B12068D0F88803C043C00367
:1023F000F1D4012084F8DD00002084F8DC0070BDF9
:10240000072084F8DD00032070BD7047002902D149
:10241000014802F03BBF70472C0300207047704713
:1024200070B590F8DD30022B23D0022380F8DD3028
:10243000062920D08023046803EBC115635923F0DB
:1024400007069368334323F01806D3683343635178
:102450009425046805EBC11513686351982403683B
:1024600004EBC11152685A50012180F8DD100020A0
:1024700070BD022070BD0368196821F007049168DF
:10248000214321F01804D1682143196003681168C1
:102490005961516802689161E6E72DE9F04F90F8C3
:1024A000DD40022C25D090F8DC40012C21D04FF0EB
:1024B000010980F8DC90022480F8DD4000274FF00D
:1024C000070C062918D09C2404EBC116012A39D028
:1024D0008024A8254FF4005A4FF4405B05EBC1154A
:1024E00004EBC114022A2FD0042A45D0082A0BD1AC
:1024F00044E00220BDE8F08F012A0AD0022A0CD065
:10250000042A0ED0082A10D080F8DDC080F8DC70D4
:102510000EE002681968D1610AE002681968516228
:1025200006E002681968916202E002681968D162E7
:1025300090F8DD10072948D080F8DD9080F8DC7035
:102540000020D7E7196835E04FF0A408D0F800C0A4
:1025500008EBC1111A684CF801205968002901687C
:102560000A5922F440522ED00A5101680A59D3F870
:1025700004C042EA0C0218E0196821E04FF0AC08F0
:10258000D0F800C008EBC1111A684CF80120596856
:10259000002901680A5922F4404214D00A51016806
:1025A0000A59D3F804C042EA8C020A5159685145CD
:1025B00003D1996802689151BAE75945B8D1996831
:1025C00002685151B4E70A51B2E7012092E710B511
:1025D00090F8DC20012A0ED0012200F8DC2F022323
:1025E000437050F8DC3C1C680C431C6042700021B6
:1025F0000170084610BD022010BD10B590F8DC2017
:10260000012A0ED0012200F8DC2F0223437050F87B
:10261000DC3C1C688C431C60427000210170084641
:1026200010BD022010BD70B5044690F8DD000228F0
:1026300011D094F8DC0001280ED0012584F8DC507C
:10264000022084F8DD00204602F007F884F8DD500F
:10265000002084F8DC0070BD022070BD10B590F839
:10266000DC20012A10D0012200F8DC2F0223437065
:1026700050F8DC3CD3F894430C43C3F894434270C5
:1026800000210170084610BD022010BD10B590F861
:10269000DC20012A10D0012200F8DC2F0223437035
:1026A00050F8DC3CD3F898430C43C3F8984342708D
:1026B00000210170084610BD022010BD2DE9F04137
:1026C000044690F8DD0015460E46022826D094F800
:1026D000DC00012821D0012784F8DC70022084F876
:1026E000DD00062E1CD0204602F0DAF8C6EBC6004C
:1026F00004EB80002968016269684162A96881620F
:10270000E968C162296901633146204601F05CFE37
:10271000062E15D0E86A40B112E00220BDE8F08133
:102720001146204601F0D8FEE0E78021206801EB49
:10273000C6114258EB6D22F4007242EA4322425025
:1027400084F8DD70002084F8DC00E7E770B590F8CD
:10275000DD30022B23D090F8DC30012B1FD0012379
:1027600080F8DC30022480F8DD40EC25046805EBBD
:10277000C1156159166821F0100141EA061121F4D2
:1027800080165168314321F48036D168314321F4F9
:102790000036916831439669012E02D00BE0022089
:1027A00070BD21F004061169314321F00206516920
:1027B000314341F00101615180F8DD30002180F8A2
:1027C000DC10084670BD0000024881684268114470
:1027D000816070470000002010B50024032000F045
:1027E00073F80F2000F008F808B1012401E000F0B0
:1027F00025F8204610BD000070B50E4E0546002499
:10280000706898B14FF47A71B1FBF0F00A49096829
:10281000B1FBF0F000F075FF40B9102D06D2002298
:102820002946501E00F030F8356000E001242046B3
:1028300070BD0000000000200C0000200A4882B09B
:10284000016E41F001010166016E01F0010100918C
:10285000816D41F080518165806D00F08050009065
:1028600002B000F0A1B8000000100240002809DB0F
:1028700000F01F02012191404009800000F1E0209A
:10288000C0F8001170470000F0B40E4B1B680C46F6
:10289000C3F30223C3F10705042D00D90425191D34
:1028A000072901D2002300E0DB1E012606FA05F10C
:1028B000491E214099409E40761E16403143F0BC8F
:1028C00003F08DBD0CED00E0064900F0070208683A
:1028D0004FF6FF03184040EA0220034A1043086005
:1028E000704700000CED00E00000FA052B492C4B6E
:1028F0000A6832214A432B4940B1B0F5007F08688D
:1029000029D020F4C06040F480602CE00868C0F357
:102910004120022804D051F8800F20F4807022E07A
:10292000D1F8800020F48070C1F88000086820F49D
:10293000C06040F400700860B2FBF3F0401C00E09F
:10294000401E4A69520501D50028F9D14869400561
:102950000AD503207047C0F34120022806D051F861
:10296000800F40F48070086000207047D1F880002C
:1029700040F48070C1F88000086820F4C06040F422
:1029800000700860B2FBF3F0401C00E0401E4A6992
:102990005205DBD50028F9D1D8E700000C00002053
:1029A00040420F00007000400248816841F48041BD
:1029B00081607047007000402DE9F84304460068CC
:1029C0000026BB4D00035ED5A86D0027C00008D4CB
:1029D000A86D40F08050A865A86D012700F08050D8
:1029E0000090DFF8D092D9F8001041F48071C9F856
:1029F0000010FFF72FF9804606E000BFFFF72AF925
:102A0000A0EB080002282BD8D9F80000C005F5D5A6
:102A1000D5F8900010F4407014D0216D814211D08F
:102A2000D5F89000D5F8901020F4407041F4803132
:102A3000C5F89010D5F8901021F48031C5F89010A9
:102A4000C5F89000C00711D0FFF704F9804641F2A5
:102A5000883907E0FFF7FEF8A0EB0801494501D9E6
:102A600003260BE0D5F890008007F3D5D5F8900049
:102A7000216D20F440700843C5F890001FB1A86D87
:102A800020F08050A8652078C00707D0D5F88800CE
:102A9000616820F003000843C5F8880020788007AB
:102AA00007D5D5F88800A16820F00C000843C5F8C8
:102AB00088002078400707D5D5F88800E16820F025
:102AC00030000843C5F888002078000707D5D5F8FE
:102AD0008800216920F0C0000843C5F888002078EC
:102AE000C00607D5D5F88800616920F44070084316
:102AF000C5F888002078800607D5D5F88800A16938
:102B000020F440600843C5F888002078400607D5C7
:102B1000D5F88800E16920F440500843C5F88800E2
:102B20002078000607D5D5F88800216A20F44040B7
:102B30000843C5F888002088C00507D5D5F8880067
:102B4000616A20F440300843C5F88800206880039B
:102B500007D5D5F89C00A16A20F003000843C5F80A
:102B60009C002088800507D5D5F88800E16A20F40C
:102B700040200843C5F88800208840050FD5D5F8C7
:102B80008800216B20F440100843C5F88800206BB2
:102B9000B0F5801F03D1E86840F48010E860208819
:102BA00000050FD5D5F88800616B20F4400008437C
:102BB000C5F88800606BB0F5800F03D1E86840F479
:102BC0008010E8602088C0040FD5D5F88800A16B7C
:102BD00020F040700843C5F88800A06BB0F1807FFA
:102BE00003D1E86840F48010E86020884FF000616D
:102BF00080040ED5D5F88800E26B20F040601043C9
:102C0000C5F88800E06B884203D1E86840F4801082
:102C1000E860208840040ED5D5F88800226C20F0AA
:102C200040601043C5F88800206C884203D1E868F2
:102C300040F48010E860208800040FD5D5F88800A3
:102C4000616C20F040500843C5F88800606CB0F11A
:102C5000805F03D1E86840F48030E8602068C003FA
:102C60000FD5D5F88800A16C20F040400843C5F886
:102C70008800A06CB0F1804F03D1E86840F4803048
:102C8000E860206840030FD5D5F89C00E16C20F483
:102C900040100843C5F89C00E06CB0F5001F03D15C
:102CA000E86840F48010E8603046BDE8F883000032
:102CB00000100240007000402DE9F0470E4605006C
:102CC0004FF0000725D0DFF8AC81D8F8000000F005
:102CD0000F00B0420CD2D8F8001021F00F013143A0
:102CE000C8F80010D8F8000000F00F00B04210D172
:102CF0002968614CC80741F2883A5AD06868DFF801
:102D00007C91032808D0022820682DD04005002897
:102D10002CDB0120BDE8F08720688001F9D5E06850
:102D200000F00302E068C0F30310401C032A19D02E
:102D3000534A00BFB2FBF0F0E268C2F306225043F0
:102D4000E268C2F34162521C5200B0FBF2F0484507
:102D500017D9A06810F0F00F0CD0880711D5A8681B
:102D600040B10EE0474AE5E78003D0E700F0B6F84F
:102D7000484506D9A06820F0F00040F08000A0602F
:102D80008027A068696820F003000843A060FEF770
:102D900061FF814606E000BFFEF75CFFA0EB090182
:102DA00051453AD8A068696800F00C00B0EB810F7B
:102DB000F2D12868810714D5400703D5A06840F4F4
:102DC000E060A0602878000705D5A06820F4605076
:102DD00040F4E060A060A068A96820F0F00008431B
:102DE00004E0802F03D1A06820F0F000A060D8F8A4
:102DF0000010404601F00F01B14216D9016821F0E0
:102E00000F0131430160FEF725FF074607E000BFD1
:102E1000FEF720FFC11B514501D903207AE7D8F8FE
:102E2000000000F00F00B042F2D12878400705D52D
:102E3000A068E96820F4E0600843A06028780007F3
:102E400006D5A068296920F4605040EAC100A0605E
:102E500000F044F8A1680C4AC1F30311515C01F081
:102E60001F01C8400949086009480068BDE8F047EB
:102E7000FFF7C2BC002002400010024000B4C404AE
:102E80000024F40040787D01706600080C000020EA
:102E9000000000200548064900688968054AC1F31A
:102EA0000221515C01F01F01C84070470C00002056
:102EB00000100240806600080548064900688968DD
:102EC000054AC1F3C221515C01F01F01C84070479F
:102ED0000C0000200010024080660008184910B560
:102EE0008868C0F381021748012A0BD08A68164B04
:102EF000C2F38102022A06D08A68C2F38102032A41
:102F000003D0002010BD184610BDCA6802F00304AB
:102F1000CA68C2F30312521C032C02D0B0FBF2F0B9
:102F200001E0B3FBF2F0CA68C968C2F3062250435D
:102F3000C1F34161491C4900B0FBF1F010BD000034
:102F4000001002400024F40040787D012DE9F84390
:102F500004007AD02078F84DC00747D0A868E96807
:102F600000F00C0001F003010C2802D0082817D053
:102F700001E0032914D06068B0F5803F17D0B0F5A8
:102F8000A02F286817D020F480302860286820F40B
:102F9000802028606068E0B1FEF75CFE064614E021
:102FA0002868800322D560680028D2D01EE02868F7
:102FB00040F48030EDE740F480202860F7E700BF60
:102FC000FEF748FE801B642870D828688003F7D578
:102FD0000CE0FEF73FFE064605E000BFFEF73AFEB6
:102FE000801B6428F0D828688003F7D420788007F5
:102FF0004CD5A868E96800F00C0001F003010C282A
:1030000002D004280DD001E002290AD0E06800288F
:1030100028682BD040F480702860FEF71BFE06461F
:1030200019E02868400502D5E068002891D068685A
:10303000217C20F0FE4040EA01606860BF480068E3
:10304000FFF7DAFB002800D120E072E1FEF702FE74
:10305000801B0228B8D828684005F7D56868217C0D
:1030600020F0FE4040EA016068600FE020F48070CC
:103070002860FEF7EFFD064605E000BFFEF7EAFD1B
:10308000801B0228A0D828684005F7D420780007C4
:1030900029D560690028D5F8940013D040F00100CC
:1030A000C5F89400FEF7D6FD064606E090E000BFA6
:1030B000FEF7D0FD801B022886D8D5F89400800743
:1030C000F6D510E020F00100C5F89400FEF7C2FD2F
:1030D000064604E0FEF7BEFD801B022878D8D5F82E
:1030E00094008007F6D42078400761D5A86D0026AB
:1030F000C00008D4A86D40F08050A865A86D0126D6
:1031000000F0805000908E480168C90511D4016814
:10311000804641F480710160FEF79CFD074604E0A3
:10312000FEF798FDC01B022852D8D8F80000C00551
:10313000F6D5A068012815D00528D5F8900016D03E
:1031400020F00100C5F89000D5F8900020F00400B0
:10315000C5F89000A06841F28838B8B1FEF77AFD52
:1031600007460EE0D5F8900040F00100F0E740F08F
:103170000400C5F89000F5E7FEF76CFDC11B414562
:1031800026D8D5F890008007F6D50CE0FEF762FD52
:10319000074604E0FEF75EFDC11B414518D8D5F88F
:1031A00090008007F6D41EB1A86D20F08050A8656D
:1031B0002078800629D5A0690028D5F8980013D07A
:1031C00040F00100C5F89800FEF744FD064606E011
:1031D00075E000BFFEF73EFD801B02286FD8D5F8D2
:1031E00098008007F6D510E020F00100C5F898009F
:1031F000FEF730FD064604E0FEF72CFD801B02289A
:103200005DD8D5F898008007F6D4E069F0B3A968D6
:10321000C1F3810103295DD00228286820F0807065
:10322000286003D0FEF716FD04464BE0FEF712FDC2
:10323000064604E0FEF70EFD801B02283FD82868F2
:103240008001F7D4F4E908016FF00F0202EB0111DD
:103250000843218A5204490802EB4151A26841EA1D
:1032600002210843217D4FF07E42490802EB416173
:103270000843217B40EAC160E968324A11400843B3
:10328000E860286840F08070286000E05EE0E86850
:1032900040F08070E860FEF7DDFC044605E000BF0A
:1032A000FEF7D8FC001B022809D828688001F7D552
:1032B0004CE000BFFEF7CEFC001B022802D9032021
:1032C000BDE8F88328688001F4D4E8681E49084006
:1032D000E8603BE00128F3D0E868226A00F00301CF
:1032E000914226D1616A00F0F00209011039914241
:1032F0001FD1A26A00F4FE41B1EB022F19D194F85C
:103300002C2000F07841B1EBC26F12D1218E00F475
:10331000C00249084905A1F50011914209D194F86C
:10332000341000F0C06049084906A1F100718142E3
:103330000CD00120C4E70000001002400000002073
:10334000007000400C809F01FCFFEEFE0020B7E7FC
:10335000704770B5040009D0606A002540B125614E
:103360006561A56294F85D0040B10CE0012070BD7C
:103370006068B0F5827FF4D0E561F2E784F85C50D4
:10338000204600F05BF8022084F85D0020680168A8
:1033900021F040010160E1684FF4E062914201D9FF
:1033A000002001E04FF48050B1F5706F02D09142DF
:1033B00000D0A562A188228901F4827102F404423E
:1033C0001143227C02F002021143227D02F001022D
:1033D0001143228B02F400721143227F02F0380263
:1033E000114394F8202002F080021143228D02F450
:1033F0000052114322681160A169042202EA1141BE
:1034000094F8242000F4805002F01002114394F844
:10341000342002F008021143A28902F470621143C1
:103420000143206841602068C16921F40061C161E5
:103430002566012084F85D00002070BD2DE9F04173
:1034400086B0054614216846FDF79DF82A4928688C
:1034500088424ED12948016E41F480510166016EC7
:1034600001F480510591C16C41F00101C164C06C4F
:103470004FF0000800F001000590E02000900220CD
:10348000CDE901080520CDE90380474669464FF0A4
:103490009040FEF7BFFA1B4C1948802620600A2096
:1034A000C4E90107C4E903766761A761E7617701B1
:1034B00020462762FEF7F4F908B1FEF7CBF8AC65B9
:1034C000A5620F48104C143020600B206060102063
:1034D000A060C4E90386C4F81480C4F81880C4E965
:1034E00007872046FEF7DCF908B1FEF7B3F86C65F4
:1034F000A56206B0BDE8F081003001400010024036
:1035000008000240F003002050040020704770477C
:1035100070B5044690F85D006568012806D0B5F5E1
:10352000827F32D1A5687DBB04282ED151B34AB326
:1035300043B394F85C00012827D0012084F85C0094
:1035400094F85D50042D02D0052584F85D500025C7
:103550002566A163A387E3872264A4F84430A4F816
:103560004630E564256521684A6822F4C0424A6015
:10357000E168B1F5E06F0AD92068416821F4805113
:10358000416035E0012070BDFFE70220FBE72168C4
:103590004A6842F480524A60616D4FF480628969E2
:1035A00091420CD194F83C10C90721684B6838D07F
:1035B00043F480434B60E18F00EB5101E187A16D43
:1035C0008969914214D121684A6822F480524A6084
:1035D000B4F84610C9072AD021684A6842F400525C
:1035E0004A60B4F8461000EB510000BFA4F8460052
:1035F00094F85D00042823D0A16D2D4808632D4860
:10360000A16DC862A16D2C484863A06D8563B4F8B4
:1036100046302168226C0C31A06DFEF7A3F948BB3F
:1036200013E023F480434B60E18F4908C6E720682C
:10363000416821F400514160B4F846004008D5E7E4
:10364000A16D1E4808631E48DAE72068416841F012
:1036500001014160606D0563606DC562606D456329
:10366000606D8563E38F2268A16B0C32606DFEF79D
:1036700079F930B1206E40F01000206684F85C507B
:1036800080E720680168490603D4016841F04001E1
:10369000016084F85C502068416841F0200141607D
:1036A0002068416841F00201416000206BE70000A2
:1036B00037530008AD5300080B5300082D53000882
:1036C0004153000810B500680B49884213D10B48DC
:1036D00001F0B3F909484C3090F8390028B1074897
:1036E000BDE810404C3001F0EBBF0448BDE810408D
:1036F0001C3001F057BD10BD003001401003002008
:10370000704710B5401EB0F1807F01D3012010BD7D
:103710004FF0E02460610F21601702F060FE00208E
:10372000A06107202061002010BD704770477047DE
:103730007047704770470000F0B590F83C20012AB0
:1037400043D0012580F83C50022280F83D200368D8
:103750005A689C681E4E1F4FDFF87CC0B34203D0EE
:10376000BB4201D0634504D122F4700E4A6842EA9C
:103770000E02DFF868E002EA0E02D1F800E04EEA3D
:10378000020EC3F804E00268B24212D0B2F1804FD8
:103790000FD0134B9A420CD0124B9A4209D0124BC5
:1037A0009A4206D0BA4204D0104B9A4201D06245E8
:1037B00004D1896824F080031943916080F83D505A
:1037C000002180F83C100846F0BD0220F0BD00004A
:1037D000002C014000340140005001408FFFFFFDEC
:1037E0000004004000080040000C00400040014080
:1037F000704710B5040003D094F83D0010B107E005
:10380000012010BD002084F83C00204600F022F882
:10381000022084F83D00211D206802F0F5F8012007
:1038200084F8480084F83E0084F83F0084F84000A3
:1038300084F8410084F8420084F8430084F844008E
:1038400084F8450084F8460084F8470084F83D0079
:10385000002010BD08B5154A0168154891420ED1E7
:10386000016E41F400510166006E002200F4005028
:1038700000900A212C20FFF707F82C2010E00D4AB9
:10388000914211D1016E41F480210166006E002247
:1038900000F48020009001211A20FEF7F5FF1A2085
:1038A000BDE80840FEF7E2BF08BD0000003401405B
:1038B000001002400048014090F83D10012901D05D
:1038C00001207047022180F83D100168CA6842F06B
:1038D0000102CA6000681349884214D0B0F1804FD9
:1038E00011D0114988420ED0104988420BD010499E
:1038F000884208D00F49884205D00F49884202D03B
:103900000E49884207D181680D4A1140062906D028
:10391000B1F5803F03D0016841F001010160002052
:1039200070470000002C01400004004000080040E7
:10393000000C0040003401400040014000500140B4
:103940000700010070B5044690F83C0000250128EE
:103950001CD0012684F83C60022084F83D002268D7
:103960009068334B184020F47F4090600868B0F5B1
:10397000005F2ED016DC402849D009DCD0B11028D9
:1039800018D0202816D0302849D113E0022070BD6D
:1039900050282AD0602830D070280FD0B0F5805F32
:1039A0003DD13DE010F00F0F39D10111A1F580316B
:1039B000072934D822680146104625E0CB68D1E9B2
:1039C0000121206802F09BF82068816841F07701AE
:1039D00009E0CB68D1E90121206802F090F8206865
:1039E000816841F4804181601AE0CA6849682068B2
:1039F00002F09AF85021206806E0CA6849682068F9
:103A000002F0C6F86021206802F084F808E0CA6875
:103A10004968206802F088F840212068F4E7012511
:103A200084F83D60002084F83C00284670BD00000A
:103A300088FFCEFF2DE9F0410D46040003D094F835
:103A40003D0018B108E00120BDE8F081002084F8B5
:103A50003C00204600F042F8022084F83D00206837
:103A600081681D4A11408160211D206801F0CCFF52
:103A7000226890689169166A2B68AF69034340F227
:103A80000330814341EA0721A868EF6908434FF6F4
:103A9000FC418843E96840EA0720014328692F6A0E
:103AA000000140EA0730084369686D6926F0AA06FC
:103AB00046EA0515294393602268906154F8480B43
:103AC0000162012004F81F096075A075E076207777
:103AD00020750020B8E70000F8BFFEFF10B586B0E3
:103AE000044614216846FCF74EFD154920688842BB
:103AF00024D11448816D41F002018165816D01F08E
:103B000002010591C16C41F00201C164C06C002149
:103B100000F002000590302000900220CDE9010164
:103B2000CDE9031069460848FDF774FF002205211E
:103B30001D20FEF7A9FE1D20FEF798FE06B010BD61
:103B400000040040001002400004004870B590F8E6
:103B50003E60044690F83F5090F8443090F845207D
:103B6000022021B104290ED0012E1BD114E0012E18
:103B700018D1012B16D184F83E0084F844000122AC
:103B80000021206820E0012D0CD1012A0AD184F8FF
:103B90003F0084F8450014E0012D03D1012B01D131
:103BA000012A01D0012070BD84F83E0084F83F0056
:103BB00084F8440084F8450001220021206801F0C7
:103BC00091FF01220421206801F08CFF2068016828
:103BD00041F001010160002070BD70472DE9F04106
:103BE00004460068C66805694FF00007A90713D5A9
:103BF000B10711D5F91E0161012020772068806985
:103C00008007204602D0FFF7E8FF04E000F0B7F895
:103C1000204600F0B5F82777680716D5700714D549
:103C200021686FF004000861022020772068806915
:103C300010F4407F204602D0FFF7CFFF04E000F0F1
:103C40009EF8204600F09CF82777280715D5300706
:103C500013D521686FF008000861042020772068E0
:103C6000C0698007204602D0FFF7B7FF04E000F0EC
:103C700086F8204600F084F82777E80616D5F00687
:103C800014D521686FF010000861082020772068A3
:103C9000C06910F4407F204602D0FFF79EFF04E089
:103CA00000F06DF8204600F06BF82777E80708D0A1
:103CB000F00706D021686FF001000861204600F08F
:103CC00061F8280601D4A80408D5300606D5216875
:103CD0006FF4025008612046FFF728FDE80508D57B
:103CE000300606D521686FF4807008612046FFF722
:103CF0001CFD680608D5700606D521686FF04000E7
:103D00000861204600F054F8A80608D5B00606D58C
:103D100021686FF0200008612046FFF708FDE802E7
:103D200008D5F00206D521686FF48010086120469E
:103D3000FFF7FFFCA80208D5B00206D521686FF492
:103D4000001008612046FFF7F3FC680208D57002F6
:103D500006D521686FF4800008612046FFF7EAFC71
:103D600028020AD5300208D521686FF400000861E6
:103D70002046BDE8F041FFF73BBDBDE8F08170474C
:103D80007047000000680749884202D1064801F0E8
:103D900001BD0649884203D103483C3002F09EBA77
:103DA00070470000004801405C03002000340140DF
:103DB000704790F88410012918D0012180F88410F0
:103DC0002421C0F8881001680A680B6823F00103F9
:103DD0000B6022F000510022426603681960202126
:103DE000C0F8881080F88420104670470220704781
:103DF0007047704770B5044690F8840001281DD0C4
:103E0000012084F884002420C4F888002068056814
:103E1000026822F0010202602068826822F060627B
:103E20000A438260204601F0D9FE20680560202008
:103E3000C4F88800002084F8840070BD022070BDA2
:103E400070B5044690F8840001281DD0012084F844
:103E500084002420C4F8880020680568026822F0E5
:103E6000010202602068826822F060420A43826098
:103E7000204601F0B3FE206805602020C4F88800C9
:103E8000002084F8840070BD022070BD7047704728
:103E9000704700002DE9F04103680446D8691968AD
:103EA0009A6840F60F0528424FF000054FF00206D1
:103EB0000AD187067ED501F0200702F0805C57EA20
:103EC0000C0777D0616F42E1B64FDFF8DCC21740D4
:103ED00001EA0C0C57EA0C0C6CD05FEAC07C0CD0E9
:103EE0005FEAC15C09D54FF0010CC3F820C0D4F8DB
:103EF000903043F00103C4F89030830709D5D3070D
:103F000007D023681E62D4F8903043F00403C4F84D
:103F1000903043070AD5D30708D0266804233362BC
:103F2000D4F8903043F00203C4F8903003070CD566
:103F300001F020033B4308D0266808233362D4F8FD
:103F4000903043F00803C4F8903003050BD54B01C3
:103F500009D526684FF400633362D4F8903043F0FB
:103F60002003C4F89030D4F89030002B3DD0800668
:103F700009D501F0200002F08051084303D0616FA1
:103F800009B120468847D4F890002168896849061D
:103F900002D410F0280F2AD0204601F049FF2068F3
:103FA000806840061ED52068083050E8001F21F0C8
:103FB000400100E021E040E80012002AF3D1D4F8EB
:103FC000800078B179498163D4F88000FDF7CEFB99
:103FD00000280AD0D4F88000816B00E02046BDE8BC
:103FE000F04108472046FFF753FFBDE8F081204627
:103FF000FFF74EFFC4F89050F7E7D4F86CC02027C5
:10400000BCF1010F7ED15FEAC06C7BD55FEAC16C69
:1040100078D51020186220688068400651D5D4F801
:1040200080100A6850680004000C3ED0B4F85C3080
:1040300083423AD9A4F85E000868006880062CD450
:10404000216851E8000F20F4807041E80002002A46
:10405000F6D12068083050E8001F21F0010140E847
:104060000012002AF5D12068083050E8001F21F026
:10407000400140E80012002AF5D1C4F88C70E566D2
:10408000216851E8000F20F0100041E80002002AEA
:10409000F6D1D4F88000FDF731FB2667B4F85C0058
:1040A000B4F85E10401A81B207E0B4F85C108142A7
:1040B0009BD11068800698D526672046FFF798FEAA
:1040C00093E7B4F85C00B4F85E10401A81B2B4F81B
:1040D0005E00002889D0002987D0226852E8000FAE
:1040E00020F4907042E80003002BF6D12D4BDB4307
:1040F0002068083050E8002F1A4040E8002CBCF13E
:10410000000F00E00EE0F3D1C4F88C70E56665673F
:10411000206850E8002F22F0100240E80023002B16
:10412000F6D1C9E7C60209D5560207D54FF480106B
:1041300018622046BDE8F041FFF7A9BE03060AD584
:1041400001F0800302F40002134304D0A16F0029A0
:104150007FF444AF49E7420611D54A060FD5204601
:10416000016851E8002F22F0400241E80023002BB3
:10417000F6D1C0F88870856700F012F935E70202C1
:1041800006D54A0004D52046BDE8F041FFF77EBEC3
:10419000C00195D5002993DA2046BDE8F041FFF72C
:1041A00028BE00000100001020010004955D0008F9
:1041B00010B5040003D0D4F8880010B107E0012046
:1041C00010BD002084F88400204600F027F8242049
:1041D000C4F888002068016821F001010160A06A2C
:1041E00010B1204601F01CFD204601F063FE0128BD
:1041F000E6D02068416821F49041416020688168E0
:1042000021F02A0181602068016841F0010101600C
:104210002046BDE8104001F067BD0000F0B59BB03E
:104220000646142115A8FCF7AEF954216846FCF7A0
:10423000AAF93149306888425BD101200224CDE9D6
:1042400000046846FEF7B8FB08B1FDF703FA2B48F7
:10425000016E41F480410166016E01F480411A91C2
:10426000C16C41F00401C164C06C15A900F00400E8
:104270001A903020CDE9150400240720CDE918401C
:1042800017941F48FDF7C6FB1F4D1E488027286066
:104290001820C5E90104C5E903476C61AC61EC6114
:1042A00028462C62FDF7FCFA08B1FDF7D3F9C6F8F1
:1042B0008050AE621348154D143005F10801286096
:1042C00019206860102081E891006C61AC61EC619C
:1042D00028462C62FDF7E4FA08B1FDF7BBF9F56753
:1042E000002206212520AE62FEF7CEFA2520FEF739
:1042F000BDFA1BB0F0BD00000038014000100240C4
:104300000008004844000240B004002010050020CE
:1043100070B50446D0F88800202801D0022070BD76
:1043200039B332B32165A4F85420A4F856200021F3
:10433000C4F890102120C4F88800E06FD8B1154B64
:10434000C362E36F14481863E36F14485863E06F67
:10435000134681632068E56F00F128022846216D2D
:10436000FDF700FB38B11020C4F890002020C4F8FD
:104370008800012070BD2168402008622068083054
:1043800050E8001F41F0800140E80012002AF5D1FA
:10439000002070BDE35D0008255E00089F5D0008F9
:1043A00000680349884202D1024801F0F5BF704716
:1043B00000380140980300207047000000210148A8
:1043C000FDF708BF38000020072912D2DFE801F00E
:1043D0000A12181E242A04000068D0F8841341F041
:1043E000010104E00068D0F8841341F00201C0F834
:1043F000841370470068D0F8841341F00401F6E795
:104400000068D0F8841341F00801F0E70068D0F8A4
:10441000841341F01001EAE70068D0F8841341F0FA
:104420002001E4E70068D0F8841341F04001DEE7A2
:1044300070B506460068D0F88853D0F89043E90775
:1044400007D0E10705D00121C0F88C133046FDF7F5
:1044500088FCA80708D5A00706D531680220C1F856
:104460008C033046FDF77EFC680708D5600706D54B
:1044700031680420C1F88C033046FDF774FC28072E
:1044800008D5200706D531680820C1F88C033046CE
:10449000FDF76AFCE80608D5E00606D5316810206D
:1044A000C1F88C033046FDF760FC680608D560064D
:1044B00006D531684020C1F88C033046FDF756FC24
:1044C000A80608D5A00606D531682020C1F88C03BF
:1044D0003046FDF7A4FF70BD70B503681A68D3F8C5
:1044E000A0534C6922F020022646144324F0C00257
:1044F000202E2BD08C69022C28D0032C2BD0042CFE
:104500002ED022F0E00200BF22F40064CA692243E8
:1045100022F480640A6A224322F0C0644A6A224379
:1045200022F000648A6A2243CC6A22F0404242EAC6
:10453000840222F000544A6B096B224325F4803434
:1045400021431A600068C0F8A01370BD22F0C002B9
:1045500042F02002D8E722F0800242F04002D3E786
:1045600022F0400242F08002CEE72DE9F0470446F7
:104570000068D0F88883D0F890734668C5685FEA11
:10458000C8314FF001090DD5F9030BD54FF4803137
:10459000C0F88C1384F8DD90002084F8DC002046FD
:1045A000FDF766FB5FEA883009D5B80307D52168B7
:1045B0004FF40030C1F88C032046FDF751FBF007A3
:1045C00008D0E80706D02168C1F8089006212046E7
:1045D000FDF749FBB00708D5A80706D521680220DA
:1045E000886006212046FDF73FFB700708D5680765
:1045F00006D521680420886006212046FDF735FB9A
:10460000300708D5280706D52168082088600621CC
:104610002046FDF72BFBF00608D5E80606D52168F5
:104620001020886006212046FDF7F0FEB00607D571
:10463000A80605D52168202088602046FDF7EEFEFB
:10464000700608D5680606D52168402088600621D6
:104650002046FDF7DAFEBDE8F087F0B50024E42639
:10466000056806EBC11755F807C0B82606EBC1165A
:10467000AE59402A20D00EDC082A2CD006DC012AB4
:104680001AD0022A27D0042A31D115E0102A13D0DB
:10469000202A2CD11FE0B2F5007F1CD005DC802A37
:1046A00019D0B2F5807F22D106E0B2F5806F03D039
:1046B000B2F5006F1BD10EE04FF0BC0E0EEBC11E29
:1046C0005A6845F80E204FF0C00E05680EEBC11178
:1046D0009A686A500BE0C42404EBC1145A682A514A
:1046E000C825046805EBC1119A6862501024FE21A8
:1046F000A1401A682CEA010CA240D96842EA0C02D7
:10470000A14011431A69D3F814C01546A2400A43C8
:104710000CFA04FC99694CEA020CA14041EA0C0134
:10472000082D06D1B20504D4B20102D4DA69A24040
:1047300011430068C151F0BD2DE9F041074688469C
:104740000068842202EBC81146588C2202EBC81183
:1047500045584FF08802F30702EBC81407D0E90769
:1047600005D00121015141463846FDF77CFAB007DA
:1047700008D5A80706D539680220085141463846B1
:10478000FDF772FA700708D5680706D53968042066
:10479000085141463846FDF768FA300708D5280722
:1047A00006D539680820085141463846FDF75EFABB
:1047B000F00608D5E80606D53968102008514146AC
:1047C0003846FDF723FE700608D5680606D5396819
:1047D0004020085141463846FDF717FE300608D5FF
:1047E000280606D539688020085141463846FDF72D
:1047F00038FAF00509D5E80507D539684FF4807017
:10480000085141463846FDF72DFAB00509D5A805EF
:1048100007D539684FF40070085141463846FDF716
:10482000D0FD700509D5680507D539684FF480605B
:10483000085141463846FDF7C3FD300509D5280526
:1048400007D539684FF40060085141463846FDF7F6
:10485000BAFDF00409D5E80407D539684FF4805053
:10486000085141463846FDF7ADFDB00409D5A8040E
:1048700007D539684FF40050085141463846FDF7D6
:10488000F6F9700409D5680407D539684FF48040FB
:10489000085141463846FDF763FABDE8F081000053
:1048A0002DE9F04F8024036804EBC1169C5924F0D5
:1048B00070449C5103689A469D59E82404EBC11446
:1048C000A64653F80490E42404EBC114A3461C59F3
:1048D000D3F8A033576925F020053D43202F24D07D
:1048E0009769022F21D0032F24D0042F27D025F43D
:1048F000D07500BF25F40067D5693D4325F4806776
:10490000156A3D4325F0C067556A3D4325F00067B1
:10491000956A3D4325F07047D56A3D43576B25F4B2
:104920000035B7F1005F0FD010E025F4C07545F0F9
:104930002005DFE725F4807545F08005DAE725F0EE
:10494000800545F48075D5E745F4003525F040072E
:10495000956BD2F850802F4327F4802C976D47EA4F
:104960000C07DFF8D0C007EA0C0748EA070892F8FE
:104970003C7029F03F0C07F03F0747EA0C0727F08F
:10498000004C176C47EA0C0725B924F4807C546C62
:1049900044EA0C04D2F848C0BCF5606F02D0BCF504
:1049A000F05F01D1402D03D124F4F0544CEA04040B
:1049B00024F48045D46C2C43556D062927D2DFE8BA
:1049C00001F003090F151B21126B23F4003343EA96
:1049D00042031CE0126B23F4802343EA820316E0B7
:1049E000126B23F4002343EAC20310E0126B23F49A
:1049F000801343EA02130AE0126B23F4001343EA24
:104A0000421304E0126B23F4800343EA82134AF852
:104A10000680066846F80E70066846F80B40D424F7
:104A2000026804EBC11155500068C0F8A033BDE81E
:104A3000F08F0000FFFF06FEFEE710B50446018977
:104A400040680122FDF700F9A07CE17CC00140EA4A
:104A500051002083207DA076607DE0760120A07546
:104A600010BD008B704770B504461646C4E90012AD
:104A700003810120A07500252583A5760246E576F1
:104A800019463046FDF7E0F8A020A0720320E0723E
:104A900025736573A573E57370BD10B504460020DA
:104AA000A075218900226068FDF7CEF804F110029C
:104AB00020680623BDE81040911FFEF729BD0000C5
:104AC000194808B5816C41F004018164816C01F0E2
:104AD00004010091816C41F001018164806C00222D
:104AE00000F00100009011460B20FDF7CDFE0B20D9
:104AF000FDF7BCFE002211460C20FDF7C5FE0C2080
:104B0000FDF7B4FE002209210E20FDF7BDFE0E20A8
:104B1000FDF7ACFE002209210F20FDF7B5FEBDE830
:104B200008400F20FDF7A2BE0010024070B586B00D
:104B300014216846FBF727FD1E48C16C41F0200197
:104B4000C164C16C01F020010591C16C41F001010B
:104B5000C164C16C01F001010591C16C41F0040117
:104B6000C164C16C01F004010591C16C41F0020106
:104B7000C164C06C4FF0904600F002000590002226
:104B800018213046FDF760F801241820CDE9000413
:104B9000002569463046CDE90245FCF73BFF802001
:104BA000CDE90005694602940348FCF733FF06B0DF
:104BB00070BD00000010024000040048F0B5BFB016
:104BC000002439943A943894349435943694379434
:104BD00029942A942B94602168462C94FBF7D3FCEB
:104BE0001C212DA8FBF7CFFC3B943C94242120A84A
:104BF0003D94FBF7C8FC202118A8FBF7C4FCBB4878
:104C0000B949C0E900148460FDF7EEFA08B172B644
:104C1000FEE70C21B548FDF72CF808B172B6FEE7A7
:104C20000A21B248FDF7D0FB08B172B6FEE70021B9
:104C3000AE48FDF7AFFA08B172B6FEE70220CDE943
:104C40003740399437AA0121A8483A94FDF706F96C
:104C500008B172B6FEE73494359434AA0121A34812
:104C60003694FDF7E5F908B172B6FEE734AA0121E2
:104C70009E48FDF77DF808B172B6FEE701221146A5
:104C80009A48FDF74FFA34AA08219848FDF7D0F961
:104C900008B172B6FEE734AA08219448FDF768F817
:104CA00008B172B6FEE737AA08219048FDF7D6F89A
:104CB00008B172B6FEE7012208218C48FDF732FAEE
:104CC0004FF6DF75CDE929540826CDE92B4629AAF0
:104CD00006218648FDF7A4FB08B172B6FEE70094F2
:104CE000019401200294CDE90340089405940694B0
:104CF00007940D9409940A940B940C946A46062127
:104D00007A481794FDF7DAFC08B172B6FEE748F26C
:104D1000D040299003202B9029AA00217348FDF749
:104D20007FFB08B172B6FEE72D9430942DAA0021C6
:104D30006E483394FDF70AFD08B172B6FEE70094A1
:104D40004FF000600A9080000194CDE90D044715F2
:104D5000CDE910470F941294149415946A460021DB
:104D600062481694FDF7AAFC08B172B6FEE76A46DF
:104D700001215E48FDF7A2FC08B172B6FEE76A4663
:104D800004215A481294FDF799FC08B172B6FEE767
:104D90004FF6FB703B903BAB012200215348FDF7DF
:104DA0007CFB08B172B6FEE74FF4C05020904FF480
:104DB0008870CDE92104CDE92440239426942794DA
:104DC00020AA002149482894FCF784FF08B172B654
:104DD000FEE720AA01214548FCF77CFF08B172B626
:104DE000FEE720AA04214148FCF774FF08B172B61F
:104DF000FEE70420CDE91840CDE91A641C941D9407
:104E00001E9418AB0122002138481F94FDF70BFCBB
:104E100008B172B6FEE718AB042201213348FDF752
:104E200002FC08B172B6FEE718AB3A4604212F48DF
:104E3000FDF7F9FB08B172B6FEE7199418AB022230
:104E400000212A481A94FDF7EEFB08B172B6FEE77E
:104E500018AB082201212548FDF7E5FB08B172B621
:104E6000FEE718AB4FF4007204212048FDF7DBFB8E
:104E700008B172B6FEE729AA01211C48FDF7D0FA55
:104E800008B172B6FEE72DAA01211848FDF75EFCB5
:104E900008B172B6FEE701223BAB11461348FDF79D
:104EA000FCFA08B172B6FEE729AA04210F48FDF703
:104EB000B7FA08B172B6FEE72DAA04210B48FDF738
:104EC00045FC08B172B6FEE73BAB0122042107485E
:104ED0003B95FDF7E2FA08B172B6FEE70348FDF72D
:104EE00031FA3FB0F0BD00000068014038000020FA
:104EF000114810B50F4901604FF4827141600021E3
:104F00004FF4E062C0E90212022202610122426112
:104F1000520282611822C0E9072107224162C0E9DA
:104F20000A1201634163FEF714FA002801D072B639
:104F3000FEE710BD003001403401002010B58CB0F8
:104F400024216846FBF71FFB0024164809940A94A5
:104F500013490B94C0E900144FF6FF71C0E90241F8
:104F6000046184610120CDE90004CDE902040494C8
:104F7000CDE90540079469460A480894FEF75AFDB2
:104F800008B172B6FEE7099409A906480B94FEF72A
:104F9000D3FB002801D072B6FEE70CB010BD0000B4
:104FA000000400409801002010B588B00024184883
:104FB0000594069403940494009401941349029474
:104FC00001600F21C0E9011440F2E731C0E9031488
:104FD00044618461FEF70DFC08B172B6FEE74FF440
:104FE0008050039003A90A48FEF7ACFC08B172B6E2
:104FF000FEE700940194694605480294FEF79CFB85
:10500000002801D072B6FEE708B010BD00340140A0
:10501000E4010020174810B5154901604FF4E12163
:105020004160002181600C22C160C0E904128161ED
:10503000C161016241628162FFF7BAF808B172B6DC
:10504000FEE700210B48FEF7FBFE08B172B6FEE753
:1050500000210848FEF7CEFE08B172B6FEE705480B
:10506000FEF7A7FE002801D072B6FEE710BD0000D3
:10507000003801407C020020FEE700002DE9F041ED
:10508000DFF8F4800446D8F80450B5EEC00AF1EE1B
:1050900010FA02D29FED390A06E010EE100AB0F1C4
:1050A0007E5F01DDB7EE000A6068006841606068FD
:1050B00000680168C943FCD48168806800EE901ADA
:1050C0009FED2F1A9FED303AF8EEE00A60EE811A5C
:1050D00000EE900AF8EEE00A60EE812AFEEE000A89
:1050E0009FED281A61EEA00A21EE000AB0EE602AB8
:1050F00042EE830A02EEC32AF0EE412A40EE212A54
:10510000FDEEE21A11EE900AF0EE411A00EE021ADC
:1051100040EE201ABDEEC10AFDEEE10A10EE106A63
:1051200010EE907A00F032F8A082384600F02EF8A7
:10513000E082304600F02AF820832168A08A0968BE
:10514000C1F89C002168E08A0968C1F81C01216847
:10515000208B0968C1F89C02D8F80400401BE0616C
:10516000216A814200D22062A16A814202D2606A31
:10517000401C6062BDE8F081001000E0000000000B
:105180000000003000D08446D7B35D3F602801DACC
:105190006020704748F27041884201DD0846704740
:1051A00080B2704710B5044690F82C0000280ED04D
:1051B000A068FFF756FC2169C0EBC00001EB40413D
:1051C00094ED030A2046BDE81040FFF757BF10BD1D
:1051D0002DE9F04188B004469FED280A0160C4E93A
:1051E0000123002580ED030A056144F26820A082B6
:1051F000E0822083E5612248256265620E460068F0
:1052000044F62061B0FBF1F090460127A06200B99E
:10521000A76284F82C501B48016841F0807101603E
:1052200019484560016841F0010101603068D0F81B
:10523000801241F00061C0F880121C216846FBF723
:10524000A2F9CDE900754FF40020CDE904506020AB
:1052500006900295039569464046FCF7FDF93168D2
:10526000A08AC1F89C003168E08AC1F81C0131684D
:10527000208BC1F89C0208B0BDE8F081000000005E
:105280000C000020FCED00E0001000E090F82C1075
:10529000002905D08068817D002901D0FFF7FDBB82
:1052A00070470161704710B50446012084F82C0056
:1052B0002068006850F88C1F41F01001016040F236
:1052C0000F312068FDF7CAF92068BDE810404FF49F
:1052D0001811FDF77CB910B50446002084F82C00A5
:1052E0002068006850F88C1F21F01001016040F226
:1052F0000F312068FDF7CAF92068BDE810404FF46F
:105300001811FDF77AB9FEE7704710B5806A016899
:105310004A6822F003024A60016E41F01001016602
:10532000012180F85D10FEF713F810BD10B5806AFA
:10533000FEF7EDF810BD10B5806AFEF7E1F910BD7B
:1053400070B50546846AFCF785FC0246286800684B
:10535000800627D42068416821F020014160A068C0
:1053600018B96068B0F5827F17D02068416821F0D5
:10537000010141606421204600F046F808B1202078
:1053800020660020A4F84600012084F85D00206E0D
:1053900040B12046FDF7DCFF70BD2068416821F078
:1053A0000301E6E72046FEF7B1F870BD70B505468B
:1053B000846AFCF74FFC02462868006880061FD408
:1053C0002068416821F0200141606421204600F0FE
:1053D00055F818B1206E40F0200020662068416822
:1053E00021F0030141600020E087A4F8460001207D
:1053F00084F85D00206E18B12046FDF7A9FF70BD4E
:105400002046FEF75FF970BD2DE9F8430446406879
:105410004FF48276154689464FF400474FF4806872
:10542000B04209D1A068B84201D0404504D12068FB
:10543000016821F0400101604B4600228021204696
:10544000009500F0AFF880B96068B04214D1A06850
:10545000B84201D040450FD14B4600224FF4C06105
:105460002046009500F02EF830B1206E40F020006C
:1054700020660320BDE8F8830020FBE7F8B5154659
:105480000E460B460092044600224FF4C05100F035
:1054900019F888B93346002280212046009500F093
:1054A00081F848B9334600224FF4C0612046009588
:1054B00000F008F8002804D0206E40F0200020669C
:1054C0000320F8BD2DE9FE4F4FF0000A984617461D
:1054D0000E4604460C9D8DF804A0FCF7BBFB411B57
:1054E000A8EB0105FCF7B6FB814620684FF4C06BC2
:1054F0000C3002902A480068C0EBC00000EB80002E
:10550000000D6843009016E05E4506D12FB9029861
:1055100000788DF804009DF80400B8F1FF3F0AD030
:10552000FCF798FBA0EB0900A8420CD25DB10098F3
:1055300098B3401E0090206880683040B842E3D1A4
:105540000020BDE8FE8F2068416821F0E001416045
:105550006068B0F5827F0BD1A068B0F5004F02D033
:10556000B0F5806F04D12068016821F0400101602E
:10557000A06AB0F5005F09D12068016821F40051EC
:1055800001602068016841F400510160012084F845
:105590005D0084F85CA00320D3E7FFE70025CAE79D
:1055A0000C0000202DE9F8431E469146884604462B
:1055B000089DFCF74FFB401B351AFCF74BFB0746D9
:1055C00026480068C0F3CB3068430AE0701C09D05D
:1055D000FCF740FBC01BA8420FD275B10098B8B3CE
:1055E000401E00902068816838EA010033D0002115
:1055F0004945EBD10020BDE8F8832068416821F0DF
:10560000E00141606068B0F5827F0BD1A068B0F521
:10561000004F02D0B0F5806F04D12068016821F0FE
:1056200040010160A06AB0F5005F09D120680168FF
:1056300021F4005101602068016841F400510160CB
:10564000012084F85D00002084F85C000320D2E78C
:10565000FFE70025C6E70121CAE700000C00002093
:1056600010B5040029D02068002826D081680029C0
:1056700023D0012184F83A1084F839109FED0F0AE5
:1056800084ED070A84ED0C0AFFF70DFE4FF47A70E3
:10569000FCF7AEF920688068FFF7E3F9A0EBC000E3
:1056A0004104E1622068FFF7FCFD2068FFF713FE6C
:1056B000002084F83A0084F8390010BD0000000092
:1056C00010B5040029D02068002826D08068002862
:1056D00023D094F8391000291FD094F83A1019B14A
:1056E00000219FED0E0A12E0FFF7BBF9E16AC0EB63
:1056F000C00001EB404094F93810002902DB4FF064
:10570000804101E04FF0404194ED0C0A0144616397
:105710002068BDE81040FFF7B1BC10BD9A99993ED2
:1057200000282DD000292BD0002A29D0C0E9001252
:105730000022028509699FED130AC16280ED0C0AFF
:105740000121426380F8381080F8392080F83A202F
:10575000DFED0D0AC0ED020ADFED0C0AC0ED030A11
:1057600080ED040A80ED050A80ED060A80ED070A47
:10577000B7EE000A80ED080A9FED050A80ED090AE0
:1057800070470000000000000AD7233C6F12833AE4
:1057900000007A4410B504007ED0206800287BD039
:1057A0008068002878D094F8391000297ED094F8C9
:1057B0003A1000297AD1FFF754F9218D081AB0F573
:1057C000804F01DDA0F5004010F5804F01DA00F5B3
:1057D000004000EE100ADFED360AB8EEC00A20EEF7
:1057E000200AD4ED050A30EE801A84ED051AD4EDB6
:1057F000090AB4EEE01AF1EE10FA01DDC4ED050A73
:1058000094ED051AF1EE600AB4EEE01AF1EE10FA2A
:1058100001D2C4ED050AD4ED060A84ED060A94ED22
:10582000031AD4ED051A70EE600A21EE211AD4EDA8
:10583000021A01EE801A94ED040A00EE201AD4ED4B
:10584000080AB0EE410AF4EEC00AF1EE10FA01D2F5
:10585000B0EE600AF1EE600AF4EEC00AF1EE10FA62
:1058600001DDB0EE600A10EE100A124984ED070A5D
:10587000884201DD012005E010EE100A0E49884241
:1058800002D9FF2084F83800B5EEC00AF1EE10FA14
:1058900001DAB1EE400A00E008E010EE100AB0F1C3
:1058A0007E5F01DDB7EE000A84ED0C0A10BD00003A
:1058B0000000343C0AD7233C0AD723BC002802D07E
:1058C000083080EC030A7047DFED0F0A002819D07A
:1058D0000E4A00BF10EE101A914205DB30EE600A4E
:1058E000F8E700BF30EE200AB5EEC00AF1EE10FA7C
:1058F000F8D3DFED070A20EE200ABCEEC00A10EE56
:10590000101A0185704700000000B4430000B44342
:10591000610BB64210B504001FD0206800281CD0CF
:105920006168002919D001219FED0C0A84ED050A58
:1059300084ED060A84ED070A84ED0C0A84F8381019
:1059400084F83910E16AFFF7ACFC2068FFF7ABFC84
:105950006068BDE81040FDF7AFBF10BD000000005B
:105960007047FCF731BF10B594B038216846FAF79C
:105970000AFE14210EA8FAF706FE0020FCF7B6FF77
:1059800003244FF48030CDE9004000120390402002
:1059900004900521CDE9084102204421CDE90A10F7
:1059A00007900C900D906846FDF7D0FA08B172B6DA
:1059B000FEE70F20CDE90E04002010901190129008
:1059C00004210EA8FDF778F9002801D072B6FEE791
:1059D00014B010BD0248016841F4700101607047C5
:1059E00088ED00E00148FEF7F9B800003002002021
:1059F0000148FEF7F3B80000980100200148FEF7C7
:105A0000EDB80000E40100202DE9F04F02682C4BB6
:105A10002C4E2D4FDFF8B4C02D4C2E4D4FF0804B47
:105A200098420BD0584509D0B04207D0B84205D0B3
:105A3000604503D0A04201D0A84204D122F07008F2
:105A40004A6842EA0802DFF89080DFF89090DFF8B9
:105A500090A0984211D058450FD0B0420DD0B84216
:105A60000BD0604509D0A04207D0404505D048453D
:105A700003D0504501D0A84203D122F44076CA6831
:105A800032434E6922F0800232438E68C6620E684D
:105A90008662984209D0A04207D0404505D04845CB
:105AA00003D0504501D0A84201D1096901630168C2
:105AB00041F004010160012141610260BDE8F08F05
:105AC000002C01400004004000080040000C004091
:105AD00000340140005001400040014000440140BA
