:020000040800F2
:10000000200A002099020008554600082D3F0008EC
:1000100081440008C31500086D4F0008000000006F
:10002000000000000000000000000000B1490008CE
:10003000971600080000000057460008B349000862
:10004000B3020008B3020008B3020008B3020008BC
:10005000B3020008B3020008B3020008B3020008AC
:10006000B3020008B3020008B3020008C515000877
:10007000D1150008DD150008B3020008B30200081E
:10008000B3020008B3020008B3020008B30200087C
:10009000B3020008B3020008B3020008B30200086C
:1000A000B3020008B3020008B3020008B30200085C
:1000B000B3020008B3020008B3020008B30200084C
:1000C000B3020008B3020008B3020008B30200083C
:1000D000B3020008B3020008B3020008B30200082C
:1000E000B3020008B3020008B3020008B30200081C
:1000F000B3020008B3020008B3020008B30200080C
:10010000B3020008B3020008B3020008B3020008FB
:10011000B3020008B3020008B3020008B3020008EB
:10012000B3020008B3020008B3020008B3020008DB
:10013000B3020008B3020008B3020008B3020008CB
:10014000B3020008B3020008B3020008B3020008BB
:10015000B1380008B3020008B3020008B302000877
:10016000B3020008B3020008B3020008B30200089B
:10017000B3020008B3020008B3020008B30200088B
:10018000B3020008B3020008B3020008B30200087B
:10019000B302000800000000B3020008B302000828
:1001A000B3020008B3020008B3020008B30200085B
:1001B000B3020008B3020008B3020008B30200084B
:1001C000B3020008B3020008B3020008B30200083B
:1001D000B3020008B302000800F002F800F04CF887
:1001E0000AA090E8000C82448344AAF10107DA4592
:1001F00001D100F041F8AFF2090EBAE80F0013F098
:10020000010F18BFFB1A43F001031847D05000003C
:10021000F0500000103A24BF78C878C1FAD85207CD
:1002200024BF30C830C144BF04680C607047000070
:100230000023002400250026103A28BF78C1FBD8EF
:10024000520728BF30C148BF0B607047662904F0D1
:10025000D987752900F0FC80002070471FB504F095
:10026000CCFF00F071FC04000020002104F038FFF6
:10027000E0601FBD10B510BD00F066FD1146FFF730
:10028000EDFF04F0A3FE00F084FD03B4FFF7F2FFDE
:1002900003BC00F0C7FD000009488047094800473B
:1002A000FEE7FEE7FEE7FEE7FEE7FEE7FEE7FEE726
:1002B000FEE7FEE704480549054A064B7047000083
:1002C000254A0008D901000820040020200A002047
:1002D000200600202006002053EA020C00F069806E
:1002E0002DE9F04B4FF00006002B1FBFB3FA83F54A
:1002F00003FA05F424FA05F65E4012BF1643B2FA7B
:1003000082F502FA05F4C5F120051EBF22FA05FCAC
:1003100044EA0C04203556EA044C4FEA144418BF52
:10032000641C4FF000084FF00009904271EB030C81
:1003300039D3002919BFB1FA81F701FA07F6B0FAEB
:1003400080F700FA07F6C7F120071EBF20FA07FC66
:1003500046EA0C062037B6FBF4FCA7EB0507103F76
:1003600007F01F0BCBF120060CFA0BFB2CFA06F65C
:1003700044BFB3460026202FA4BF5E464FF0000BBB
:100380005BEA060C08BF4FF0010B19EB0B09ABFB46
:10039000027C48EB0608C01B06FB02CC0BFB03CC1F
:1003A00071EB0C01C1E70B46024641464846BDE8E9
:1003B000F08B13B54FF000004FF00001AFF3008059
:1003C000BDE81C40704700000FB47CB50C0009AAC2
:1003D000009001D02044401E084B7B4469460190A8
:1003E000089800F090FB05461CB10020694600F01B
:1003F0009DFB28467CBC5DF814FB000059070000FB
:1004000070B5044685690068C10601D5302600E054
:100410002026C00707D070BDD4E90121304690479F
:10042000206A401C20626D1EF6D570BD70B5044672
:1004300085690078C00707D170BDD4E9012120206B
:100440009047206A401C20626D1EF6D570BD0000EA
:100450002DE9F0410646002410687529314616A59D
:1004600010D0AFF30080002802DA404213A507E065
:1004700031688A0701D512A502E0490704D511A504
:10048000012401E0AFF3008000210A2206F12407D5
:1004900009E0B0FBF2FCB0FBF2F302FB1C003030D1
:1004A00078541846491C0028F3D123462A46304682
:1004B000BDE8F04100F0B9B8000000002D000000D8
:1004C0002B000000200000002DE9F0474FF0000A4B
:1004D00089460446C0F820A02046E16888470028E5
:1004E00076D0252806D0D4E901219047206A401C07
:1004F0002062F1E7E168204600258847C4F81CA087
:1005000006460027C4F818A02A2E09D0304604F069
:1005100056FD38B304EB8708303EC8F8186019E080
:1005200059F8041B204604EB87029161E168884773
:10053000012F064618D1E069002820DA25F02005B1
:100540001DE0D8F8180000EB800006EB40003038C2
:10055000C8F818002046E1688847064604F02FFDD9
:100560000028EED1012F0AD02E2E08D12046E168B6
:1005700088477F1C0646022F45F02005C4DBA06992
:10058000002803DA404245F00105A061E80701D0E8
:1005900025F01005B6B1A6F14100192802D8203681
:1005A00045F400654A463146204625604D46FFF732
:1005B0004DFE58B1012806D0ED1D25F0070000F1D1
:1005C000080989E704E005F1040985E730468AE770
:1005D000206ABDE8F0874FF0000200B5134694464C
:1005E0009646203922BFA0E80C50A0E80C50B1F18B
:1005F0002001BFF4F7AF090728BFA0E80C5048BF9F
:100600000CC05DF804EB890028BF40F8042B08BF3C
:10061000704748BF20F8022B11F0804F18BF00F838
:10062000012B70477047704770472DE9F0470D4622
:1006300099469246044600F124080168880604D5CC
:10064000E06921F01001216000E00120A84201DDF5
:10065000471B00E00027A1697A1902EB0900081A7C
:10066000A0612078C00602D42046FFF7C9FE00260C
:1006700008E0D4E901211AF806009047206A401CDE
:10068000761C20624E45F4DB2078C0060AD5204651
:10069000FFF7B6FE06E0D4E9012130209047206A3A
:1006A000401C2062381EA7F10107F4DC07E0D4E902
:1006B000012118F805009047206A401C2062281E7E
:1006C000A5F10105F3DC2046FFF7B0FE2078000617
:1006D00002D50220BDE8F0870120FBE770472DE935
:1006E000FF4F0C461E464FF0FF378BB0D2E900019A
:1006F000DDF860800A908A46C1F30A5505B93D4687
:10070000002108464FF00000BAF1000F00F440004D
:1007100005DA00EB80004FF4400101EA50004FEA97
:100720009059B9F1010F00DDB9460A9850EA4A0024
:100730000ED044F61050A5F2FF3545432F14B8F102
:10074000000F1ED07542291E1EDDC9F100021CE0FB
:10075000B8F1010F4FF0000001D0302103E0F24367
:1007600005E02154401CB042FBDB30460022002152
:1007700021540B99C1F80880C1E900200FB0BDE8F1
:10078000F08FBD1B6D1CDEE74A4600DA694206A801
:1007900000F064FA06AB93E8070003AB83E80700B8
:1007A00050460A9900F045FB8DE80700A0F500507F
:1007B0001F3800900398002D0ADD42F21F014A46BF
:1007C0000844002303A90390684600F0AEFD09E049
:1007D000A0F500504A461F38002303A9039068463D
:1007E00000F0B8FD8DE807000004000C03D04FF0C6
:1007F000FF30410800E01046B8F1000F03D000229E
:10080000009215461EE0751E05D400F0A1F93032A5
:1008100062556D1EF9D5B3460122084302D000226D
:100820007F1C04E02078302801D100227F1E002A9E
:10083000099784D01DE0112D07DA00F089F93032D4
:1008400062556D1C50EA0102F5D1084302D00098B0
:10085000C8B10EE00021681E05E0235C625C6354B1
:100860002254401E491C8142F7DBAB46A81B401EA8
:100870000990002004F80B000B98099AC0F8088032
:10088000C0E9002B7AE711264FF0000857E72DE961
:10089000F04F88460446D21D22F0070191B0D1E9FD
:1008A0000001CDE90A0104F062FB02460B98C00F7B
:1008B00001D02D2007E02068810701D52B2002E020
:1008C000202101EAC000032A099001D0072A05DB94
:1008D00003464146204600F081F90BE1207880066E
:1008E00001D5E06900E00620B8F1650F814606D029
:1008F000B8F1660F18D0B8F1670F70D131E0002061
:10090000B9F1110F009001DB112301E009F101039E
:100910000AAA01A90CA8FFF7E2FEDDE90C70002687
:1009200009F10105834647E001204B4600904FF056
:1009300000470AAA01A90CA8FFF7D1FEDDE90DB016
:100940000C995D46002610B909F101000D18B9EBAC
:10095000050003D4C0F1FF3609F10105A5EB09003C
:100960002BE0B9F1010F01DA4FF001090020B9F1D4
:10097000110F0090484601DD112300E003460AAA4A
:1009800001A90CA8FFF7ABFEDDE90C704D4600266F
:100990008346207800070AD4AB4500DA5D4601A8FB
:1009A000012D04DD411911F8011C302907D04F45F4
:1009B00002DA17F1040F04DA012082460FE06D1EFF
:1009C000EEE7002F02DCED1B3E4403E0781CA8425A
:1009D00000DD7D1CB81B00F1010A4FF000472078B4
:1009E000000703D4AA4501DB4FF0FF3A0021B7F11D
:1009F000004F0DF143088DF8431024D002202B2323
:100A0000002F01DA7F422D230A21021EA0F10100EE
:100A100000DC5FB197FBF1FC97FBF1F201FB1C7C62
:100A200017460CF1300C08F801CDEEE7A8F10100F3
:100A300003702188090501D5452100E06521A0F159
:100A4000010800F8011C09980FA9A1EB0807FF1D78
:100A500000B10120411901EBEA70A1693844081A7C
:100A6000401EA0612078C00602D42046FFF7C8FCD3
:100A7000099828B1D4E901219047206A401C2062DE
:100A80002078C00622D52046FFF7BAFC1EE0002ED3
:100A900004DBB34502DD01A8805D00E03020D4E92D
:100AA00001219047206A401C2062761CAAF10100B7
:100AB0005FEA000A0AD100F047F8C0680168405CAC
:100AC000D4E901219047206A401C2062281EA5F12C
:100AD0000105DCDC07E0D4E9012118F8010B90479F
:100AE000206A401C2062381EA7F10107F3DC204673
:100AF000FFF79CFC032011B041E6000001694A1C8D
:100B000002610878704700B58FB0CDE9013100214E
:100B1000059105497944CDE9031011466846FFF770
:100B2000D3FC0FB000BD0000E5FFFFFF0A6802F82C
:100B3000010B0A607047D1E900239A4202D2531C8C
:100B40000B6010707047000000487047E003002001
:100B500030B5B0F10A024FEA900E71F100034EEA8F
:100B6000817EB0EB0E0061EB91014FEA101E4EEA60
:100B7000017E10EB0E0041EB11114FEA102E4EEAF0
:100B8000016E10EB0E0041EB11214FEA104E4EEAC0
:100B9000014E10EB0E0041EB1141401841F10001F4
:100BA0004FEAD00040EA41704FEAD10110EB8005D6
:100BB0004FEA810444EA907444EB01046D1944EB5C
:100BC0000404521BA3414FF0000348BF0A3200D572
:100BD00030BD401C41F1000130BD00002DE9F04165
:100BE0001F46044603260168072A01F4006004DB5F
:100BF00008B116A505E016A503E008B115A500E0AB
:100C000015A521F010002060A069C01EA0610FB1E1
:100C1000401EA0612046FFF7F3FB4FB1D4E901214C
:100C200038469047206A401C2062C01C206206E0C3
:100C3000206AFAE7D4E9012115F8010B9047761EE6
:100C4000F8D22046FFF7F2FBBDE8F0814E414E009E
:100C50006E616E00494E4600696E66002DE9F047F0
:100C6000814616468AB0354878440DC88DE80D0097
:100C700032487844801C03AC0DC884E80D0041F66E
:100C80009B300844372190FBF1F290FBF1F5A5F180
:100C9000800501FB12041B3C02D56442012000E0E8
:100CA0000020DFF898A080460027FA44AAF1BE0A87
:100CB0000EE0E0070AD03246684607EB4701012301
:100CC0000AEB810100F046FB8DE8070064107F1CF1
:100CD000002CEED1194F7F44AE3F19E0E80715D044
:100CE00007EB04100DF1180A90E80E008AE80E00D8
:100CF000C068F04201D1981908903246012306A934
:100D000003A800F027FB03AB83E807006D10641C09
:100D1000002DE3D14FF0010332466946B8F1000FD0
:100D200003A802D000F001FB01E000F013FBC9E9C9
:100D30000001C9F808200AB0BDE8F0875846000055
:100D400000487047C00300207546FFF7F9FFAE4624
:100D500005006946534620F00700854618B020B5C7
:100D6000FFF7A8FABDE820404FF000064FF000075B
:100D70004FF000084FF0000B21F00701AC46ACE843
:100D8000C009ACE8C009ACE8C009ACE8C0098D46B0
:100D9000704710B50446AFF300802046BDE8104010
:100DA000FFF773BA4FF0013C50F8042B51F8043BA5
:100DB0009A4221D1A2EB0C03934313EACC1317D12F
:100DC00050F8042B51F8043B9A4215D1A2EB0C03C6
:100DD000934313EACC130BD150F8042B51F8043B86
:100DE0009A4209D1A2EB0C03934313EACC13DBD054
:100DF0004FF00000704700BFD01A01BAB1FA81F17C
:100E000001F0180122FA01F0CB40C1F12001DBB260
:100E1000C0B2C01A2CFA01F3D11A914311EAC311DE
:100E2000E6D1704701491820ABBEFEE7260002005C
:100E300070475FEA400C08BF91F0000F4FEA8C2327
:100E40004FEAC12243EA51514FEA1C5018BF00F546
:100E5000F0404FEA300018BF41F000415FEA6C5C9F
:100E600000F02980BCF1FF3F08BF40F08040704790
:100E7000130C06BF12044FF0100C4FF0000C130EB1
:100E800004BF12020CF1080C130F04BF12010CF185
:100E9000040C930F04BF92000CF1020CD30F04BF9B
:100EA00052000CF1010C11464FF00002A0F11F009E
:100EB000A0EB0C00704711F0004F08BF704731F0F5
:100EC00000413FF4D5AF0B0C06BF09044FF0100CE6
:100ED0004FF0000C0B0E04BF09020CF1080C0B0FB5
:100EE00004BF09010CF1040C8B0F04BF89000CF145
:100EF000020CCB0F04BF49000CF1010CCCF1200314
:100F0000A0EB0C0022FA03F302FA0CF241EA03010F
:100F100000F10100704720F07F4C80EA030023F0CD
:100F20007F47ACEB070303F57C5300F0004003F16F
:100F3000FF032DE980494FEA154B09B44FEA1443EA
:100F400025EA0B4E24EA03480FF2042606EB13278A
:100F500049083E785FEA320203FB0667C7F50007DF
:100F600007FB06F64FEA54374FEAD64606F102066B
:100F700007FB066CCCF1005C4FEA1C472CEA074CDF
:100F800007FB06F40CFB06F504EB15464FEA961634
:100F900034BF00204FF000404FEAD13706FB07FC7A
:100FA0004FEA1C4C0CFB0BF7D21B03FB0CF761EB5D
:100FB00007010CFB0EF7B0EB074072EB17420CFB7E
:100FC00008F734BFA2EB0742B2EB074261EB1741CF
:100FD0004FEA0C444FEA910706FB07FC4FEA1C4C12
:100FE0000CFB0BF7B0EBC74072EB573203FB0CF76F
:100FF00034BFA2EBC742B2EBC74261EB57310CFBE7
:101000000EF7B0EBC70072EB57720CFB08F734BF5A
:10101000A2EBC702B2EBC70261EB5771039F4FEA25
:10102000816141EA921104EBCC044FEAD1374FEAD7
:10103000826206FB07FC42EA90124FEA80604FEAA8
:101040001C4C0CFB0BF7D21B03FB0CF761EB0701ED
:101050000CFB0EF7B0EB074072EB17420CFB08F7E6
:1010600034BFA2EB0742B2EB074261EB17414FEAF4
:101070008C554FEA910704EB9C2406FB07FC4FEAD2
:101080001C4C0CFB0BF7B0EBC74072EB573203FB69
:101090000CF734BFA2EBC742B2EBC74261EB57314A
:1010A0000CFB0EF7B0EBC70072EB57720CFB08F7A6
:1010B00034BFA2EBC702B2EBC70261EB577115EB6D
:1010C0004C254FEA816141EA92114FEA82624FEA70
:1010D000D13742EA901206FB07FC44F100044FEAC4
:1010E00080604FEA1C4C0CFB0BF7D21B03FB0CF788
:1010F00061EB07010CFB0EF7B0EB074072EB1742F8
:101100000CFB08F734BFA2EB0742B2EB074261EBDE
:10111000174115EB1C154FEA813141EA92414FEA24
:10112000823242EA90424FEA80304FEA0C7644F134
:10113000000448EA03434EEA0B484FF0000EB2EBBE
:10114000080C71EB030724BF624639464EEB0E0EC6
:101150004FF0000B0018524149414BEB0B0BB2EB27
:10116000080C71EB03077BF1000B24BF6246394684
:101170004EEB0E0E4FF0000B0018524149414BEB65
:101180000B0BB2EB080C71EB03077BF1000B24BFD8
:10119000624639464EEB0E0E51EA020718BF46F082
:1011A000010616EB0E7655F1000254F1000103D54D
:1011B000BDE88901BDE80088BDE88901BDE80048B7
:1011C000B619524141EB0101A3F101037047808040
:1011D0007F7E7D7C7B7A7978777676757473727191
:1011E00071706F6E6E6D6C6C6B6A6A696868676649
:1011F00066656464636362616160605F5F5E5E5DDB
:101200005D5C5C5B5B5A5A5959585857575656554E
:1012100055555454535352525251515050504F4FB0
:101220004F4E4E4D4D4D4C4C4C4B4B4B4A4A4A4900
:101230004949484848474747474646464545454443
:101240004444444343434342424242414141002BD0
:101250009C4630D477002BD01CB54FEA370703B437
:101260004FF010004FF01001BAF1000F06D0BCF1A2
:10127000000FDCBF40F0080040F008014FF0000014
:101280000FBCBDE810400BF1010BBBF1010F08BF13
:101290005FEA170722BF12F1010211F101014FF0BD
:1012A000004143F1000300F0004043EA00007047B2
:1012B000F9D35708D0E746EA064613F1400F4FEA44
:1012C00016461FDD13F1200FDFBF16430A4600212B
:1012D00020335B42BED0C3F1200746EA064602FA3D
:1012E00007F74FEA164646EA0706C3F1200722FA37
:1012F00003F201FA07F721FA03F14FF0000342EA83
:101300000702A7E746EA020646EA06464FEA1646FD
:1013100046EA0106BCBF46EA0646360C4FF000031B
:101320004FF000024FF0000194E72DE9804C9A46FF
:10133000934670B491E8380007C831EA400C48BFC2
:1013400034EA430C03D5FFF7E6FDFFF780FFF0BC5E
:10135000BDE8008C2DE9804C9A46934670B491E824
:10136000380007C810F0804F08BF13F0804F03D13A
:1013700000F005F8FFF76BFFF0BCBDE8008C20F033
:101380007F4780EA030023F07F4C07EB0C03A3F5B3
:101390007C5300F00040A3F1FE0392F0000F00F038
:1013A000B38095F0000F00F077802DE901494FEAF6
:1013B00011404FEA144621EA004800FB06FC24EAEB
:1013C000064708FB06F607FB08F800FB07F718EBD3
:1013D00006484CEB164C4FEA124B18EB07484FEA05
:1013E00015464CEB174022EA0B4E0BFB06FC25EA98
:1013F00006470EFB06F607FB0EFE0BFB07F71EEB80
:10140000064E4CEB164C4FF000061EEB074E4CEB15
:10141000174B18EB0B0840F1000018EB0E0B58EBC4
:10142000000840F100008F1A4FF000013CBFC94393
:10143000661B14BFB5EB040C00213CBFC943F61B6F
:101440004FEA17444EEA8E0E27EA04454FEA1C473E
:1014500004FB07622CEA074C05FB07F70CFB05F6BB
:1014600004FB0CFC16EB074642EB174216EB0C464E
:1014700042EB1C421BEB060658EB0202414146EAD6
:101480009E0601D5BDE80189B619524141EB010123
:10149000A3F10103BDE801894FEA14454FEA114762
:1014A00024EA054621EA074C05FB07F406FB07F78B
:1014B0000CFB06F105FB0CFC11EB074144EB174458
:1014C0004FEA124711EB0C4144EB1C4422EA074C53
:1014D00005FB07F206FB07F70CFB06F605FB0CFC09
:1014E00016EB074642EB174216EB0C4642EB1C4547
:1014F0006A1854F1000148BF7047B619524141EBD8
:101500000101A3F10103704795F0000F37D04FEAB6
:1015100011424FEA144721EA024624EA074C02FB33
:1015200007F106FB07F70CFB06F402FB0CFC14EBBF
:10153000074441EB17414FEA154714EB0C4441EBCC
:101540001C4125EA074C02FB07F506FB07F70CFBDD
:1015500006F602FB0CFC16EB074645EB174516EBAF
:101560000C4645EB1C42121951F1000148BF70476F
:10157000B619524141EB0101A3F1010370474FEA53
:1015800014454FEA114724EA054621EA074C05FBBA
:1015900007F106FB07F70CFB06F24FF0000605FB10
:1015A0000CFC12EB074241EB174112EB0C4251EBE2
:1015B0001C4148BF7047921841EB0101A3F10103A0
:1015C0007047FEE7014800F0D7B800000003002094
:1015D000014800F0D1B8000060030020014800F08D
:1015E000CBB80000A002002010B501680E4CCAB2B2
:1015F0001423083AA14203D2B2FBF3F20B4904E0F0
:10160000B2FBF3F2094920310832436C02F01F02A9
:1016100023F003031944816404498031C16401212A
:101620009140016510BD000008040240000802401E
:101630000179084A01F07F0102EB81024265054A07
:101640004432491E826501F01F0201219140C165AB
:1016500070470000FC08024030B5D0E913456560D2
:10166000446D14B1D0E91645656090F8444004F02B
:101670001F050124AC40056C6C60046863608368DE
:10168000102B036803D099600068C26030BD9A6077
:101690000068C16030BD704772B6FEE730B590F8A3
:1016A00021300022012B06D0416A41F00201416243
:1016B0000122104630BD8C690B680D6923434C68CC
:1016C00000682C4323434C6923438C68C968234337
:1016D0000B430168024C21400B430360E9E7000023
:1016E00000F887FF70B5040004D094F821000025AD
:1016F00010B106E0012070BD84F82050204600F0B3
:101700000BF865626560A560E56025610120656193
:1017100084F82100002070BD38B5054600681249E4
:10172000884220D11148816C41F008018164806CAD
:10173000104C00F0080000900D48206070206060A0
:1017400000208021A060C4E9030189006161890053
:10175000C4E906102062204600F06CF808B1FFF7DB
:101760009BFFEC61A56238BD000C024000100240F6
:1017700030000240A0020020F0B4016C0C68016847
:101780000D6890F8442002F01F06042202FA06F3C6
:10179000234211D06B070FD50B689B0603D40B684F
:1017A00023F004030B6090F8441001F01F018A40FD
:1017B000016C4A60016B1DE0022303FA06F7274221
:1017C0004FF0000C4FF0010218D0AF0716D50C688F
:1017D000A40605D40C6824F00A040C6080F82520C7
:1017E00090F8441001F01F018B40016C4B6080F8B1
:1017F00024C0C16A00291AD0F0BC08470823B340AE
:10180000234214D02B0712D50B6823F00E030B6074
:1018100090F84410036C01F01F0102FA01F15960C5
:10182000C26380F8252080F824C0416BE2E7F0BC59
:101830007047000070B504000CD02C4A21681420B9
:10184000914209D22A4A0A44B2FBF0F08000606457
:1018500028480AE0012070BD244A52420A44B2FBE3
:10186000F0F080006064214808382064022084F889
:1018700025000A6847F6F0708243D4E90203184352
:10188000D4E904352B431843A3691843E36918438B
:10189000236A1843104308602046FFF7A5FEA0689E
:1018A0000025B0F5804F00D165602079A16C00F073
:1018B0007F000860D4E9130141606068401E03287E
:1018C00008D82046FFF7B4FE606D0560D4E9160124
:1018D000416002E06565A565E565E563012084F882
:1018E000250084F82450002070BD00000804024048
:1018F000F8FFFDBF0000024070B5044690F82400D8
:10190000002501280CD0012084F8240094F82560DB
:101910000020012E06D084F824000225284670BD40
:10192000022070BD022684F82560E0632068066806
:1019300026F0010606602046FFF78EFE206B002889
:101940002068016802D041F00E0106E021F0040198
:1019500001602068016841F00A010160A06C016823
:10196000C90303D5016841F480710160606D18B14D
:10197000016841F4807101602068016841F0010153
:101980000160CBE770B5044600F02EF90546601CF7
:1019900002D004484068044400F026F9401BA042ED
:1019A000FAD370BD000000202DE9F04FDFF80C9253
:1019B000002301260325A9F1040B85B00F2709F1A7
:1019C000040AABF1040EF1E006FA03FC12EA0C0281
:1019D0007ED00C7904F00304012C01D0022C20D11C
:1019E000846800945C0005FA04F80494009C24EADE
:1019F00008040094D1F80C80049C08FA04F8009CB8
:101A000048EA0408C0F80880446824EA0C0491F805
:101A100004C0CCF3001C0CFA03FC4CEA040CC0F824
:101A200004C00C79E443A40702D18C68012C0ED0C9
:101A3000C4684FEA430805FA08FC24EA0C04D1F80C
:101A400008C00CFA08FC4CEA040CC0F80CC00C7975
:101A500004F00304022C16D1DC0800EB840CCDF852
:101A600008C0DCF820C05C074FEAD46807FA08F425
:101A70002CEA040C0C6904FA08F444EA0C04DDF8BE
:101A800008C0CCF8204004684FEA430805FA08FC77
:101A900024EA0C0491F804C00CF0030C0CFA08FCC6
:101AA0004CEA040CC0F800C04C6814F4403F7CD0F1
:101AB000434CD4F860C04CF0010CC4F860C0246EF4
:101AC00023F0030C04F0010400943E4C644400E055
:101AD0006BE00294A4684FEA837C4FEA1C7807FA13
:101AE00008FC24EA0C04B0F1904F06D0DFF8D8C00F
:101AF000604505D14FF0010C20E04FF0000C1DE0D7
:101B0000DFF8C8C0604502D14FF0020C16E0DFF8E4
:101B1000C0C0604502D14FF0030C0FE0DFF8B4C045
:101B2000604502D14FF0040C08E0DFF8ACC060451E
:101B300002D14FF0050C01E04FF0060C0CFA08FC46
:101B40004CEA040C029CC4F808C0D9F80040CC460A
:101B5000D1F8048094435FEAC82800D51443CCF838
:101B60000040DAF80040D446D1F8048094435FEA9C
:101B7000882800D51443CCF80040DBF80040DC4650
:101B8000D1F8048094435FEA883800D51443CCF838
:101B90000040DEF80040F446D1F8048094435FEA48
:101BA000C83800D51443CCF800405B1C0C682246B2
:101BB000DC407FF409AF05B0BDE8F08F08040140B8
:101BC00000100240000001400004004800080048E6
:101BD000000C004800100048001400480AB1816160
:101BE00070478162704700000148806870470000BC
:101BF000000000207047704770477047704770477B
:101C000070477047704710B590F8DC20012A21D04A
:101C1000012280F8DC20022380F8DD304B1C1BD031
:101C20000368D3F8CC4344F00204C3F8CC43036800
:101C3000D3F8CC4324F00C040C43C3F8CC43016824
:101C4000D1F8CC3343F00103C1F8CC3380F8DD2068
:101C5000002010BD022010BD0168D1F8CC3323F064
:101C60000203C1F8CC33EAE770B590F8DD30022BFF
:101C70003CD090F8DC30012B38D0012500F8DC5F37
:101C8000022343701388948803F4E053C4F30804D8
:101C90001C4313896FF07E4603F400732343148AB8
:101CA00004F480441C43938903F400432343948A3F
:101CB00006EA04441C43936903F000732343146A47
:101CC000D26904F080441C4302F00042224350F8E1
:101CD000DC3CB82404EBC1141959054E31401143C2
:101CE0001951457000210170084670BD022070BD79
:101CF0000020003C7047704770477047704770473E
:101D00007047000030B590F8DD30022B14D090F809
:101D1000DC30012B10D0012380F8DC30022480F865
:101D2000DD40002408293FD008DC01291AD002290F
:101D300022D0042906D12CE0022030BD10293ED04B
:101D4000202946D0072180F8DD1080F8DC4000BF54
:101D500090F8DD10072949D080F8DD3080F8DC40AC
:101D6000002030BD0168D1F80854926825F00305C1
:101D700045EA4202521C09E00168D1F80854926811
:101D800025F4407545EA422242F48072C1F80824E5
:101D9000DEE70168D1F80854128925F4403545EA98
:101DA000424242F48032F1E70168D1F80854127AD5
:101DB00025F0407545EA426242F08072E6E701682C
:101DC000D1F80C54926825F0030545EA4202521CF2
:101DD00009E00168D1F80C54926825F4407545EA91
:101DE000422242F48072C1F80C24B1E7012030BDD8
:101DF0002DE9F04F90F8DD30022B26D090F8DC3042
:101E0000012B22D04FF0010B80F8DCB0022380F8C8
:101E1000DD300768D7F8D043D7F8D43315784FF4BE
:101E2000007805F00106C5F340054FF4F04C4FF47F
:101E300000494FF0000A08297ED009DC012935D07D
:101E4000022947D0042907D159E00220BDE8F08FCC
:101E500010296FD020296ED0072180F8DD1080F87E
:101E6000DCA000BF90F8DD1007297CD004F07F31A2
:101E7000C7F8D013056848F2800123EA0102C5F8CB
:101E8000D4230268D2F8D05304F080342543C2F83A
:101E9000D0530268D2F8D4430B401C43C2F8D44359
:101EA00080F8DDB080F8DCA00020CFE7117924F0C5
:101EB000FE0401F00201214341EA860423F480314B
:101EC00041EA0543117A127B01F07801214302F0C7
:101ED000800412E0516824F47E4408EA0121214381
:101EE00041EA862423F4003141EA454391680CEA33
:101EF00001212143D46809EA04240C43B2E7918804
:101F00004FF4003C24F47E040CEA0141214341EAF1
:101F1000864423F4802141EA854311894FF4F0057A
:101F200005EA0141214392894FF4000404EA024486
:101F3000E3E701E01BE02EE011794FF0007C24F094
:101F40007E440CEA0161214341EA866423F40021C6
:101F500041EAC543117A4FF0F04505EA016121439A
:101F6000127B2C0100E02BE004EA0264C5E7117942
:101F700023F0FE0301F00201194341EA860121F436
:101F8000801141EA0553117A127B01F0780119435F
:101F900002F0800312E0516823F47E4308EA012135
:101FA000194341EA862121F4001141EA4553916821
:101FB0000CEA01211943D36809EA03230B4351E7D3
:101FC000012043E730B590F8DD30022B14D090F8B3
:101FD000DC30012B10D0012380F8DC30022480F8A3
:101FE000DD400024082941D008DC01291AD002294B
:101FF00023D0042906D12EE0022030BD102940D084
:10200000202949D0072180F8DD1080F8DC4000BF8E
:1020100090F8DD1007294DD080F8DD3080F8DC40E5
:10202000002030BD11685268890041EAC21201687F
:10203000D1F8085425F0BC0509E0116852688902FE
:1020400041EAC2320168D1F8085425F43C452A43DC
:10205000C1F80824DCE711889288890441EAC25259
:102060000168D1F8085425F43C05F0E7117812799D
:10207000890641EAC2720168D1F8085425F03C454E
:10208000E5E711685268890041EAC2120168D1F897
:102090000C5425F0BC0509E011685268890241EA38
:1020A000C2320168D1F80C5425F43C452A43C1F8EA
:1020B0000C24ADE7012030BD10B5CB0706D0036876
:1020C000D3F8D04362F30004C3F8D0438B0706D59E
:1020D0000368D3F8D04362F30824C3F8D0434B0716
:1020E00006D50368D3F8D04362F31044C3F8D04355
:1020F0000B0706D50368D3F8D04362F31864C3F81E
:10210000D043CB0606D50368D3F8D44362F300046A
:10211000C3F8D443890606D50068D0F8D41362F317
:102120000821C0F8D41310BD10B590F8DD20022AA4
:1021300018D090F8DC20012A14D0012200F8DC2FFE
:102140000223437050F8DC3CD3F8D44301F04071D3
:1021500024F040740C43C3F8D44342700021017052
:10216000084610BD022010BDFF2903D0062903D068
:1021700001F05CBD01F0D6BB01F071BC38B50400C4
:1021800056D0022084F8DD000025C4F8E050C4F8E1
:10219000E450C4F8E850C4F8EC50C4F8F050C4F867
:1021A000F450C4F8F850207AC0071BD021492068A9
:1021B000884208D12048016E41F080610166006EBE
:1021C00000F0806000902168086820F44042208A76
:1021D00000F44040104320F44052A08A00F44050E4
:1021E00010430860204600F029F8207A800708D5BF
:1021F0002168086820F44072A08900F44070104300
:102200000860012084F8DD0084F8DC505FF00001F4
:10221000C1EBC10004EB8000491C8561C56105620A
:1022200045628562C9B205630629F1D9002038BD2F
:10223000012038BD006801400010024070B586B032
:10224000044614216846FEF7C6F9204920688842F2
:1022500039D11F48016E41F080610166016E01F0C5
:1022600080610591C16C41F00201C164C16C01F053
:1022700002010591C16C41F00101C164C06C0225ED
:1022800000F0010005904FF4006000900024CDE9BB
:1022900001540D26CDE9034669460E48FFF784FB3D
:1022A000E8020090CDE90154CDE9034669464FF0BC
:1022B0009040FFF779FB00221146442000F07CFAA1
:1022C000442000F06BFA06B070BD000000680140C9
:1022D0000010024000040048F0B587B00446142105
:1022E0006846FEF778F916492068884225D11548D6
:1022F000C16C41F00201C164C16C01F002010591A1
:10230000C16C41F00101C164C06C022400F0010005
:1023100005904FF44050002503260D278DE8F1006D
:1023200069460948FFF740FB4FF470608DE8F10003
:1023300069464FF09040FFF737FB07B0F0BD000053
:1023400000680140001002400004004870477047D8
:102350007047704770B50D460446FFF745FC0646CA
:1023600007E0681C05D0FFF73FFC801BA8420DD892
:1023700065B12068D0F88803C043C003F1D40120C0
:1023800084F8DD00002084F8DC0070BD072084F8AC
:10239000DD00032070BD7047002902D1014802F022
:1023A00025B97047880200207047704770B590F8D3
:1023B000DD30022B23D0022380F8DD30062920D027
:1023C0008023046803EBC115635923F00706936863
:1023D000334323F01806D3683343635194250468CC
:1023E00005EBC115136863519824036804EBC11110
:1023F00052685A50012180F8DD10002070BD022083
:1024000070BD0368196821F007049168214321F029
:102410001804D16821431960036811685961516833
:1024200002689161E6E72DE9F04F90F8DD40022C5B
:1024300025D090F8DC40012C21D04FF0010980F824
:10244000DC90022480F8DD4000274FF0070C0629BD
:1024500018D09C2404EBC116012A39D08024A82569
:102460004FF4005A4FF4405B05EBC11504EBC11467
:10247000022A2FD0042A45D0082A0BD144E002209A
:10248000BDE8F08F012A0AD0022A0CD0042A0ED00F
:10249000082A10D080F8DDC080F8DC700EE00268F9
:1024A0001968D1610AE002681968516206E00268A1
:1024B0001968916202E002681968D16290F8DD1033
:1024C000072948D080F8DD9080F8DC700020D7E73D
:1024D000196835E04FF0A408D0F800C008EBC1112E
:1024E0001A684CF801205968002901680A5922F439
:1024F00040522ED00A5101680A59D3F804C042EA6A
:102500000C0218E0196821E04FF0AC08D0F800C0C8
:1025100008EBC1111A684CF80120596800290168BC
:102520000A5922F4404214D00A5101680A59D3F8DA
:1025300004C042EA8C020A515968514503D1996896
:1025400002689151BAE75945B8D19968026851516A
:10255000B4E70A51B2E7012092E710B590F8DC2009
:10256000012A0ED0012200F8DC2F0223437050F81C
:10257000DC3C1C680C431C60427000210170084662
:1025800010BD022010BD70B5044690F8DD00022891
:1025900011D094F8DC0001280ED0012584F8DC501D
:1025A000022084F8DD00204601F0D1FA84F8DD50E5
:1025B000002084F8DC0070BD022070BD10B590F8DA
:1025C000DC20012A10D0012200F8DC2F0223437006
:1025D00050F8DC3CD3F894430C43C3F89443427066
:1025E00000210170084610BD022010BD2DE9F04108
:1025F000044690F8DD0015460E46022826D094F8D1
:10260000DC00012821D0012784F8DC70022084F846
:10261000DD00062E1CD0204601F0BCFBC6EBC60038
:1026200004EB80002968016269684162A9688162DF
:10263000E968C162296901633146204601F03EF92B
:10264000062E15D0E86A40B112E00220BDE8F08104
:102650001146204601F0BAF9E0E78021206801EB3D
:10266000C6114258EB6D22F4007242EA43224250F6
:1026700084F8DD70002084F8DC00E7E770B590F89E
:10268000DD30022B23D090F8DC30012B1FD001234A
:1026900080F8DC30022480F8DD40EC25046805EB8E
:1026A000C1156159166821F0100141EA061121F4A3
:1026B00080165168314321F48036D168314321F4CA
:1026C0000036916831439669012E02D00BE002205A
:1026D00070BD21F004061169314321F002065169F1
:1026E000314341F00101615180F8DD30002180F873
:1026F000DC10084670BD0000024881684268114441
:10270000816070470000002010B50024032000F015
:1027100073F80F2000F008F808B1012401E000F080
:1027200025F8204610BD000070B50E4E0546002469
:10273000706898B14FF47A71B1FBF0F00A490968FA
:10274000B1FBF0F000F065FF40B9102D06D2002279
:102750002946501E00F030F8356000E00124204684
:1027600070BD0000000000200C0000200A4882B06C
:10277000016E41F001010166016E01F0010100915D
:10278000816D41F080518165806D00F08050009036
:1027900002B000F0A1B8000000100240002809DBE0
:1027A00000F01F02012191404009800000F1E0206B
:1027B000C0F8001170470000F0B40E4B1B680C46C7
:1027C000C3F30223C3F10705042D00D90425191D05
:1027D000072901D2002300E0DB1E012606FA05F1DD
:1027E000491E214099409E40761E16403143F0BC60
:1027F00002F0D5BB0CED00E0064900F007020868C6
:102800004FF6FF03184040EA0220034A10430860D5
:10281000704700000CED00E00000FA052B492C4B3E
:102820000A6832214A432B4940B1B0F5007F08685D
:1028300029D020F4C06040F480602CE00868C0F328
:102840004120022804D051F8800F20F4807022E04B
:10285000D1F8800020F48070C1F88000086820F46E
:10286000C06040F400700860B2FBF3F0401C00E070
:10287000401E4A69520501D50028F9D14869400532
:102880000AD503207047C0F34120022806D051F832
:10289000800F40F48070086000207047D1F88000FD
:1028A00040F48070C1F88000086820F4C06040F4F3
:1028B00000700860B2FBF3F0401C00E0401E4A6963
:1028C0005205DBD50028F9D1D8E700000C00002024
:1028D00040420F00007000400248816841F480418E
:1028E00081607047007000402DE9F843044600689D
:1028F0000026BB4D00035ED5A86D0027C00008D49C
:10290000A86D40F08050A865A86D012700F08050A8
:102910000090DFF8D092D9F8001041F48071C9F826
:102920000010FFF761F9804606E000BFFFF75CF991
:10293000A0EB080002282BD8D9F80000C005F5D577
:10294000D5F8900010F4407014D0216D814211D060
:10295000D5F89000D5F8901020F4407041F4803103
:10296000C5F89010D5F8901021F48031C5F890107A
:10297000C5F89000C00711D0FFF736F9804641F244
:10298000883907E0FFF730F9A0EB0801494501D984
:1029900003260BE0D5F890008007F3D5D5F890001A
:1029A000216D20F440700843C5F890001FB1A86D58
:1029B00020F08050A8652078C00707D0D5F888009F
:1029C000616820F003000843C5F88800207880077C
:1029D00007D5D5F88800A16820F00C000843C5F899
:1029E00088002078400707D5D5F88800E16820F0F6
:1029F00030000843C5F888002078000707D5D5F8CF
:102A00008800216920F0C0000843C5F888002078BC
:102A1000C00607D5D5F88800616920F440700843E6
:102A2000C5F888002078800607D5D5F88800A16908
:102A300020F440600843C5F888002078400607D598
:102A4000D5F88800E16920F440500843C5F88800B3
:102A50002078000607D5D5F88800216A20F4404088
:102A60000843C5F888002088C00507D5D5F8880038
:102A7000616A20F440300843C5F88800206880036C
:102A800007D5D5F89C00A16A20F003000843C5F8DB
:102A90009C002088800507D5D5F88800E16A20F4DD
:102AA00040200843C5F88800208840050FD5D5F898
:102AB0008800216B20F440100843C5F88800206B83
:102AC000B0F5801F03D1E86840F48010E8602088EA
:102AD00000050FD5D5F88800616B20F4400008434D
:102AE000C5F88800606BB0F5800F03D1E86840F44A
:102AF0008010E8602088C0040FD5D5F88800A16B4D
:102B000020F040700843C5F88800A06BB0F1807FCA
:102B100003D1E86840F48010E86020884FF000613D
:102B200080040ED5D5F88800E26B20F04060104399
:102B3000C5F88800E06B884203D1E86840F4801053
:102B4000E860208840040ED5D5F88800226C20F07B
:102B500040601043C5F88800206C884203D1E868C3
:102B600040F48010E860208800040FD5D5F8880074
:102B7000616C20F040500843C5F88800606CB0F1EB
:102B8000805F03D1E86840F48030E8602068C003CB
:102B90000FD5D5F88800A16C20F040400843C5F857
:102BA0008800A06CB0F1804F03D1E86840F4803019
:102BB000E860206840030FD5D5F89C00E16C20F454
:102BC00040100843C5F89C00E06CB0F5001F03D12D
:102BD000E86840F48010E8603046BDE8F883000003
:102BE00000100240007000402DE9F0470E4605003D
:102BF0004FF0000725D0DFF8AC81D8F8000000F0D6
:102C00000F00B0420CD2D8F8001021F00F01314370
:102C1000C8F80010D8F8000000F00F00B04210D142
:102C20002968614CC80741F2883A5AD06868DFF8D1
:102C30007C91032808D0022820682DD04005002868
:102C40002CDB0120BDE8F08720688001F9D5E06821
:102C500000F00302E068C0F30310401C032A19D0FF
:102C6000534A00BFB2FBF0F0E268C2F306225043C1
:102C7000E268C2F34162521C5200B0FBF2F04845D8
:102C800017D9A06810F0F00F0CD0880711D5A868EC
:102C900040B10EE0474AE5E78003D0E700F0B6F820
:102CA000484506D9A06820F0F00040F08000A06000
:102CB0008027A068696820F003000843A060FEF741
:102CC00093FF814606E000BFFEF78EFFA0EB0901EF
:102CD00051453AD8A068696800F00C00B0EB810F4C
:102CE000F2D12868810714D5400703D5A06840F4C5
:102CF000E060A0602878000705D5A06820F4605047
:102D000040F4E060A060A068A96820F0F0000843EB
:102D100004E0802F03D1A06820F0F000A060D8F874
:102D20000010404601F00F01B14216D9016821F0B0
:102D30000F0131430160FEF757FF074607E000BF70
:102D4000FEF752FFC11B514501D903207AE7D8F89D
:102D5000000000F00F00B042F2D12878400705D5FE
:102D6000A068E96820F4E0600843A06028780007C4
:102D700006D5A068296920F4605040EAC100A0602F
:102D800000F044F8A1680C4AC1F30311515C01F052
:102D90001F01C8400949086009480068BDE8F047BC
:102DA000FFF7C2BC002002400010024000B4C4047F
:102DB0000024F40040787D01305200080C0000200F
:102DC000000000200548064900688968054AC1F3EB
:102DD0000221515C01F01F01C84070470C00002027
:102DE0000010024040520008054806490068896802
:102DF000054AC1F3C221515C01F01F01C840704770
:102E00000C0000200010024040520008184910B584
:102E10008868C0F381021748012A0BD08A68164BD4
:102E2000C2F38102022A06D08A68C2F38102032A11
:102E300003D0002010BD184610BDCA6802F003047C
:102E4000CA68C2F30312521C032C02D0B0FBF2F08A
:102E500001E0B3FBF2F0CA68C968C2F3062250432E
:102E6000C1F34161491C4900B0FBF1F010BD000005
:102E7000001002400024F40040787D012DE9F84361
:102E800004007AD02078F84DC00747D0A868E968D8
:102E900000F00C0001F003010C2802D0082817D024
:102EA00001E0032914D06068B0F5803F17D0B0F579
:102EB000A02F286817D020F480302860286820F4DC
:102EC000802028606068E0B1FEF78EFE064614E0C0
:102ED0002868800322D560680028D2D01EE02868C8
:102EE00040F48030EDE740F480202860F7E700BF31
:102EF000FEF77AFE801B642870D828688003F7D517
:102F00000CE0FEF771FE064605E000BFFEF76CFE22
:102F1000801B6428F0D828688003F7D420788007C5
:102F20004CD5A868E96800F00C0001F003010C28FA
:102F300002D004280DD001E002290AD0E068002860
:102F400028682BD040F480702860FEF74DFE0646BE
:102F500019E02868400502D5E068002891D068682B
:102F6000217C20F0FE4040EA01606860BF480068B4
:102F7000FFF7DAFB002800D120E072E1FEF734FE13
:102F8000801B0228B8D828684005F7D56868217CDE
:102F900020F0FE4040EA016068600FE020F480709D
:102FA0002860FEF721FE064605E000BFFEF71CFE86
:102FB000801B0228A0D828684005F7D42078000795
:102FC00029D560690028D5F8940013D040F001009D
:102FD000C5F89400FEF708FE064606E090E000BF44
:102FE000FEF702FE801B022886D8D5F894008007E1
:102FF000F6D510E020F00100C5F89400FEF7F4FDCE
:10300000064604E0FEF7F0FD801B022878D8D5F8CC
:1030100094008007F6D42078400761D5A86D00267B
:10302000C00008D4A86D40F08050A865A86D0126A6
:1030300000F0805000908E480168C90511D40168E5
:10304000804641F480710160FEF7CEFD074604E042
:10305000FEF7CAFDC01B022852D8D8F80000C005F0
:10306000F6D5A068012815D00528D5F8900016D00F
:1030700020F00100C5F89000D5F8900020F0040081
:10308000C5F89000A06841F28838B8B1FEF7ACFDF1
:1030900007460EE0D5F8900040F00100F0E740F060
:1030A0000400C5F89000F5E7FEF79EFDC11B414501
:1030B00026D8D5F890008007F6D50CE0FEF794FDF1
:1030C000074604E0FEF790FDC11B414518D8D5F82E
:1030D00090008007F6D41EB1A86D20F08050A8653E
:1030E0002078800629D5A0690028D5F8980013D04B
:1030F00040F00100C5F89800FEF776FD064606E0B0
:1031000075E000BFFEF770FD801B02286FD8D5F870
:1031100098008007F6D510E020F00100C5F898006F
:10312000FEF762FD064604E0FEF75EFD801B022806
:103130005DD8D5F898008007F6D4E069F0B3A968A7
:10314000C1F3810103295DD00228286820F0807036
:10315000286003D0FEF748FD04464BE0FEF744FD2F
:10316000064604E0FEF740FD801B02283FD8286891
:103170008001F7D4F4E908016FF00F0202EB0111AE
:103180000843218A5204490802EB4151A26841EAEE
:1031900002210843217D4FF07E42490802EB416144
:1031A0000843217B40EAC160E968324A1140084384
:1031B000E860286840F08070286000E05EE0E86821
:1031C00040F08070E860FEF70FFD044605E000BFA8
:1031D000FEF70AFD001B022809D828688001F7D5F0
:1031E0004CE000BFFEF700FD001B022802D90320BF
:1031F000BDE8F88328688001F4D4E8681E490840D7
:10320000E8603BE00128F3D0E868226A00F003019F
:10321000914226D1616A00F0F00209011039914211
:103220001FD1A26A00F4FE41B1EB022F19D194F82C
:103230002C2000F07841B1EBC26F12D1218E00F446
:10324000C00249084905A1F50011914209D194F83D
:10325000341000F0C06049084906A1F100718142B4
:103260000CD00120C4E70000001002400000002044
:10327000007000400C809F01FCFFEEFE0020B7E7CD
:10328000704770B5040009D0606A002540B125611F
:103290006561A56294F85D0040B10CE0012070BD4D
:1032A0006068B0F5827FF4D0E561F2E784F85C50A5
:1032B000204600F05BF8022084F85D002068016879
:1032C00021F040010160E1684FF4E062914201D9D0
:1032D000002001E04FF48050B1F5706F02D09142B0
:1032E00000D0A562A188228901F4827102F404420F
:1032F0001143227C02F002021143227D02F00102FE
:103300001143228B02F400721143227F02F0380233
:10331000114394F8202002F080021143228D02F420
:103320000052114322681160A169042202EA11418E
:1033300094F8242000F4805002F01002114394F815
:10334000342002F008021143A28902F47062114392
:103350000143206841602068C16921F40061C161B6
:103360002566012084F85D00002070BDF0B587B0AF
:10337000064614216846FDF72EF928493068884230
:103380004AD12748016E41F480510166016E01F473
:1033900080510591C16C41F00101C164C06C0024F1
:1033A00000F001000590E02000900220CDE901042A
:1033B0000520CDE9034069464FF09040FEF7F4FA4E
:1033C000194D1848802728600A20C5E90104C5E97D
:1033D00003476C61AC61EC6128462C62FEF72AFA67
:1033E00008B1FEF759F9B565AE620E480F4D1430BD
:1033F00005F1080128600B206860102081E8910029
:103400006C61AC61EC6128462C62FEF713FA08B1DE
:10341000FEF742F97565AE6207B0F0BD00300140BD
:10342000001002400800024000030020600300205A
:103430007047704770B5044690F85D0065680128D4
:1034400006D0B5F5827F32D1A5687DBB04282ED188
:1034500051B34AB343B394F85C00012827D001204C
:1034600084F85C0094F85D50042D02D0052584F8A2
:103470005D5000252566A163A387E3872264A4F835
:103480004430A4F84630E564256521684A6822F492
:10349000C0424A60E168B1F5E06F0AD9206841682E
:1034A00021F48051416035E0012070BDFFE702202A
:1034B000FBE721684A6842F480524A60616D4FF42C
:1034C0008062896991420CD194F83C10C907216847
:1034D0004B6838D043F480434B60E18F00EB5101DF
:1034E000E187A16D8969914214D121684A6822F46B
:1034F00080524A60B4F84610C9072AD021684A6849
:1035000042F400524A60B4F8461000EB510000BF8C
:10351000A4F8460094F85D00042823D0A16D2D483E
:1035200008632D48A16DC862A16D2C484863A06D49
:103530008563B4F846302168226C0C31A06DFEF72B
:10354000DBF948BB13E023F480434B60E18F49086B
:10355000C6E72068416821F400514160B4F8460094
:103560004008D5E7A16D1E4808631E48DAE72068C9
:10357000416841F001014160606D0563606DC562A5
:10358000606D4563606D8563E38F2268A16B0C32CB
:10359000606DFEF7B1F930B1206E40F0100020668A
:1035A00084F85C5080E720680168490603D401680C
:1035B00041F04001016084F85C502068416841F0AE
:1035C000200141602068416841F002014160002013
:1035D0006BE7000085460008FB46000859460008D6
:1035E0007B4600088F46000810B5006806498842EF
:1035F00008D1064800F09BFC0448BDE810401C3090
:1036000000F04CBF10BD0000003001406C020020F3
:10361000704710B5401EB0F1807F01D3012010BD6E
:103620004FF0E02460610F21601701F0B8FC00202A
:10363000A06107202061002010BD90F884100129AE
:1036400018D0012180F884102421C0F88810016866
:103650000A680B6823F001030B6022F0005100227E
:103660004266036819602021C0F8881080F8842021
:10367000104670470220704770B5044690F88400E9
:1036800001281DD0012084F884002420C4F888007B
:1036900020680568026822F00102026020688268E2
:1036A00022F060620A438260204601F0C3F920687C
:1036B00005602020C4F88800002084F8840070BDD4
:1036C000022070BD70B5044690F8840001281DD01A
:1036D000012084F884002420C4F88800206805684C
:1036E000026822F0010202602068826822F06042D3
:1036F0000A438260204601F09DF920680560202081
:10370000C4F88800002084F8840070BD022070BDD9
:1037100010B5040003D0D4F8880010B107E00120F0
:1037200010BD002084F88400204600F027F82420F3
:10373000C4F888002068016821F001010160A06AD6
:1037400010B1204601F098F9204601F079FA0128DD
:10375000E6D02068416821F490414160206881688A
:1037600021F02A0181602068016841F001010160B7
:103770002046BDE8104001F0E3B9000010B59CB050
:103780000446142115A8FCF726FF54216846FCF7CF
:1037900022FF16492068884226D101200224CDE963
:1037A00000046846FFF7A0F808B1FDF775FF104860
:1037B000016E41F480410166016E01F480411A916D
:1037C000C16C41F00401C164C06C15A900F0040093
:1037D0001A903020CDE9150400201790189007208A
:1037E00019900448FEF7E0F81CB010BD0038014005
:1037F00000100240000800482DE9F84F0446D0F8B8
:103800008800984615460E46202802D00220BDE8C2
:10381000F88F96B38DB30020C4F890004FF02109C3
:10382000C4F888901834FEF7DFF9A5878246E5874B
:1038300054F8100C183CB0F5805F01D1206910B12C
:103840003546002600E000255FF02007B4F856005A
:1038500053464FF00002CDF80080D8B180212046B9
:1038600001F03AFBD8B955B115F8010B216888620F
:10387000D4F8881039EA010006D00120C7E736F8ED
:10388000020BC0F30800F1E7B4F85600401EA4F89C
:103890005600DBE74021204601F01EFB18B1C4F8BA
:1038A00088700320B3E7C4F888700020AFE70000F9
:1038B00000210148FEF758BC38000020072912D229
:1038C000DFE801F00A12181E242A04000068D0F86C
:1038D000841341F0010104E00068D0F8841341F042
:1038E0000201C0F8841370470068D0F8841341F0D7
:1038F0000401F6E70068D0F8841341F00801F0E70E
:103900000068D0F8841341F01001EAE70068D0F8AD
:10391000841341F02001E4E70068D0F8841341F0FB
:103920004001DEE770B506460068D0F88853D0F84D
:103930009043E90707D0E10705D00121C0F88C13B7
:103940003046FEF7D8F9A80708D5A00706D5316894
:103950000220C1F88C033046FEF7CEF9680708D57F
:10396000600706D531680420C1F88C033046FEF7A5
:10397000C4F9280708D5200706D531680820C1F802
:103980008C033046FEF7BAF9E80608D5E00606D5FE
:1039900031681020C1F88C033046FEF7B0F9680694
:1039A00008D5600606D531684020C1F88C03304642
:1039B000FEF7A6F9A80608D5A00606D5316820208E
:1039C000C1F88C033046FEF7F0FC70BD70B503689B
:1039D0001A68D3F8A0534C6922F0200226461443FB
:1039E00024F0C002202E2BD08C69022C28D0032C6E
:1039F0002BD0042C2ED022F0E00200BF22F4006471
:103A0000CA69224322F480640A6A224322F0C06415
:103A10004A6A224322F000648A6A2243CC6A22F076
:103A2000404242EA840222F000544A6B096B22436E
:103A300025F4803421431A600068C0F8A01370BDDB
:103A400022F0C00242F02002D8E722F0800242F0C9
:103A50004002D3E722F0400242F08002CEE72DE997
:103A6000F04704460068D0F88883D0F89073466821
:103A7000C5685FEAC8314FF001090DD5F9030BD5D0
:103A80004FF48031C0F88C1384F8DD90002084F866
:103A9000DC002046FEF7B6F85FEA883009D5B803A7
:103AA00007D521684FF40030C1F88C032046FEF79B
:103AB000A1F8F00708D0E80706D02168C1F80890FF
:103AC00006212046FEF799F8B00708D5A80706D5C5
:103AD00021680220886006212046FEF78FF87007D3
:103AE00008D5680706D5216804208860062120468D
:103AF000FEF785F8300708D5280706D52168082085
:103B0000886006212046FEF77BF8F00608D5E80617
:103B100006D521681020886006212046FEF73CFC6F
:103B2000B00607D5A80605D5216820208860204664
:103B3000FEF73AFC700608D5680606D521684020D5
:103B4000886006212046FEF726FCBDE8F087F0B528
:103B50000024E426056806EBC11755F807C0B8260F
:103B600006EBC116AE59402A20D00EDC082A2CD014
:103B700006DC012A1AD0022A27D0042A31D115E006
:103B8000102A13D0202A2CD11FE0B2F5007F1CD0C0
:103B900005DC802A19D0B2F5807F22D106E0B2F58B
:103BA000806F03D0B2F5006F1BD10EE04FF0BC0E5A
:103BB0000EEBC11E5A6845F80E204FF0C00E056886
:103BC0000EEBC1119A686A500BE0C42404EBC114D7
:103BD0005A682A51C825046805EBC1119A686250D9
:103BE0001024FE21A1401A682CEA010CA240D968D9
:103BF00042EA0C02A14011431A69D3F814C01546D9
:103C0000A2400A430CFA04FC99694CEA020CA14058
:103C100041EA0C01082D06D1B20504D4B20102D448
:103C2000DA69A24011430068C151F0BD2DE9F041AD
:103C3000074688460068842202EBC81146588C2249
:103C400002EBC81145584FF08802F30702EBC81485
:103C500007D0E90705D00121015141463846FDF75B
:103C6000CCFFB00708D5A80706D53968022008514F
:103C700041463846FDF7C2FF700708D5680706D5EC
:103C800039680420085141463846FDF7B8FF30072F
:103C900008D5280706D53968082008514146384616
:103CA000FDF7AEFFF00608D5E80606D53968102006
:103CB000085141463846FEF76FFB700608D5680686
:103CC00006D539684020085141463846FEF763FB67
:103CD000300608D5280606D53968802008514146A7
:103CE0003846FDF788FFF00509D5E80507D539689E
:103CF0004FF48070085141463846FDF77DFFB0050E
:103D000009D5A80507D539684FF400700851414618
:103D10003846FEF71CFB700509D5680507D53968DC
:103D20004FF48060085141463846FEF70FFB3005DE
:103D300009D5280507D539684FF400600851414678
:103D40003846FEF706FBF00409D5E80407D53968C4
:103D50004FF48050085141463846FEF7F9FAB00456
:103D600009D5A80407D539684FF4005008514146D9
:103D70003846FDF746FF700409D5680407D5396851
:103D80004FF48040085141463846FDF7B3FFBDE887
:103D9000F08100002DE9F04F8024036804EBC11688
:103DA0009C5924F070449C5103689A469D59E8241C
:103DB00004EBC114A64653F80490E42404EBC114A8
:103DC000A3461C59D3F8A033576925F020053D437D
:103DD000202F24D09769022F21D0032F24D0042F25
:103DE00027D025F4D07500BF25F40067D5693D4381
:103DF00025F48067156A3D4325F0C067556A3D4349
:103E000025F00067956A3D4325F07047D56A3D432C
:103E1000576B25F40035B7F1005F0FD010E025F4A3
:103E2000C07545F02005DFE725F4807545F0800575
:103E3000DAE725F0800545F48075D5E745F40035CF
:103E400025F04007956BD2F850802F4327F4802C43
:103E5000976D47EA0C07DFF8D0C007EA0C0748EA7D
:103E6000070892F83C7029F03F0C07F03F0747EA3B
:103E70000C0727F0004C176C47EA0C0725B924F40F
:103E8000807C546C44EA0C04D2F848C0BCF5606FE6
:103E900002D0BCF5F05F01D1402D03D124F4F054E1
:103EA0004CEA040424F48045D46C2C43556D062957
:103EB00027D2DFE801F003090F151B21126B23F451
:103EC000003343EA42031CE0126B23F4802343EAED
:103ED000820316E0126B23F4002343EAC20310E0CE
:103EE000126B23F4801343EA02130AE0126B23F4EB
:103EF000001343EA421304E0126B23F4800343EA05
:103F000082134AF80680066846F80E70066846F87E
:103F10000B40D424026804EBC11155500068C0F86E
:103F2000A033BDE8F08F0000FFFF06FEFEE710B5EE
:103F30000446018940680122FDF750FEA07CE17C27
:103F4000C00140EA51002083207DA076607DE076AC
:103F50000120A07510BD008B704770B50446164651
:103F6000C4E9001203810120A07500252583A576F0
:103F70000246E57619463046FDF730FEA020A072D5
:103F80000320E07225736573A573E57370BD10B5EA
:103F900004460020A075218900226068FDF71EFEFE
:103FA00004F1100220680623BDE81040911FFFF7BE
:103FB00041BA0000154808B5816C41F004018164E4
:103FC000816C01F004010091816C41F00101816478
:103FD000806C002200F00100009011460B20FEF7DB
:103FE000EBFB0B20FEF7DAFB002211460C20FEF75C
:103FF000E3FB0C20FEF7D2FB002211460D20FEF75A
:10400000DBFBBDE808400D20FEF7C8BB00100240F6
:1040100010B586B014216846FCF7DDFA1A48C16C69
:1040200041F02001C164C16C01F020010591C16C17
:1040300041F00101C164C16C01F001010591C16C45
:1040400041F00401C164C16C01F004010591C16C2F
:1040500041F00201C164C06C4FF0904400F00200D6
:104060000590002218212046FDF7B8FD18200121F7
:10407000CDE900010020CDE9021069462046FDF798
:1040800093FC06B010BD00000010024030B5BFB078
:10409000002439943A94389434943594369437946F
:1040A00029942A942B94602168462C94FCF793FA67
:1040B0001C212DA8FCF78FFA3B943C94242120A8C6
:1040C0003D94FCF788FA202118A8FCF784FABF4831
:1040D000BD49C0E900148460FEF750F808B172B61B
:1040E000FEE70C21B948FDF78EFD08B172B6FEE778
:1040F0000A21B648FEF72EF908B172B6FEE7002194
:10410000B248FEF711F808B172B6FEE70220CDE919
:104110003740399437AA0121AC483A94FDF768FE3C
:1041200008B172B6FEE73494359434AA0121A74849
:104130003694FDF747FF08B172B6FEE734AA0121B5
:10414000A248FDF7DFFD08B172B6FEE70122114675
:104150009E48FDF7B1FF34AA08219C48FDF732FFC5
:1041600008B172B6FEE734AA08219848FDF7CAFDE7
:1041700008B172B6FEE737AA08219448FDF738FE69
:1041800008B172B6FEE7012208219048FDF794FFBE
:104190004FF6DF70CDE92904082529AA06218B48AE
:1041A000CDE92B45FEF702F908B172B6FEE700949F
:1041B000019401200294CDE90340089405940694EB
:1041C00007940D9409940A940B940C946A46062162
:1041D0007E481794FEF70AFA08B172B6FEE748F275
:1041E000D040299003202B9029AA00217748FEF780
:1041F000DDF808B172B6FEE72D9430942DAA0021A7
:1042000072483394FEF73AFA08B172B6FEE70094AA
:104210004FF000600A9001948000CDE90D04401534
:10422000CDE910400F941294149415946A4600211D
:1042300066481694FEF7DAF908B172B6FEE76A46E8
:1042400001216248FEF7D2F908B172B6FEE70A947E
:104250006A4602215D480D94FEF7C8F908B172B6AE
:10426000FEE74FF6FB703B903BAB01220021574825
:10427000FEF7D9F808B172B6FEE74FF4C0502090AF
:104280004FF48870CDE92104CDE92440239426948D
:10429000279420AA00214D482894FDF7E5FC08B199
:1042A00072B6FEE720AA01214848FDF7DDFC08B1FF
:1042B00072B6FEE720AA02214448FDF7D5FC08B1FA
:1042C00072B6FEE70420CDE91840CDE91A541C94DB
:1042D0001D941E9418AB012200213C481F94FEF748
:1042E00052F908B172B6FEE718AB04220121374833
:1042F000FEF749F908B172B6FEE718AB10220221A9
:104300003248FEF740F908B172B6FEE7199418ABCF
:10431000022200212D481A94FEF735F908B172B631
:10432000FEE718AB082201212848FEF72CF908B156
:1043300072B6FEE718AB202202212448FEF723F9CB
:1043400008B172B6FEE729AA01212048FEF72EF82F
:1043500008B172B6FEE72DAA01211C48FEF78EF9BE
:1043600008B172B6FEE701223BAB11461748FEF7D3
:104370005AF808B172B6FEE729AA02211348FEF7DF
:1043800015F808B172B6FEE72DAA02210F482F9446
:10439000FEF774F908B172B6FEE73BAB01220221C9
:1043A0000A48FEF740F808B172B6FEE73BAB0422BC
:1043B00002210648FEF737F808B172B6FEE7034857
:1043C000FDF78AFF3FB030BD006801403800002093
:1043D000114810B50F4901604FF48271416000210E
:1043E0004FF4E062C0E9021202220261012242613E
:1043F000520282611822C0E9072107224162C0E906
:104400000A1201634163FEF73CFF002801D072B637
:10441000FEE710BD0030014034010020174810B500
:10442000154901604FF4E1314160002181600C22A7
:10443000C160C0E904128161C161016241628162AF
:10444000FFF766F908B172B6FEE700210B48FFF7E7
:1044500039F908B172B6FEE700210848FFF70CF9F8
:1044600008B172B6FEE70548FFF7E7F8002801D06B
:1044700072B6FEE710BD0000003801409801002030
:10448000FEE7602801DA6020704748F270418842F8
:1044900001DD0846704780B27047000070B50446E1
:1044A000807D00285FD0A068FFF755FD6168C0EBF4
:1044B000C000400409684860606800680168C9433A
:1044C000FCD48168806800EE101ADFED270A9FEDAA
:1044D000283AB8EEC00AD4ED032A20EE201A00EEE6
:1044E000100AB8EEC00A60EE201ABEEE000ADFED38
:1044F0001F0A21EE000AB0EE402A01EEC30A01EEC7
:10450000832A60EEA21AF0EE602A41EE812ABDEE07
:10451000E21A11EE100AB0EE601A41EE820A01EEC4
:10452000801ABDEEC10A10EE106ABDEEE00A10EE70
:10453000105AFFF7A6FF20823046FFF7A2FF6082E5
:104540002846FFF79EFFA0822168208A0968C1F8EB
:104550009C002168608A0968C1F81C012168A08A52
:104560000968C1F89C0170BD0000003000D084468D
:10457000D7B35D3FF0B587B004469FED1B0A0160DD
:10458000C4E9012380ED030A44F26820208260829E
:10459000A082002617460D46A6750868D0F880113F
:1045A00041F00061C0F880111C216846FCF713F847
:1045B0000120CDE90006C004CDE90460602006902A
:1045C0000296039669463846FDF768F82968208AFE
:1045D000C1F89C002968608AC1F81C012968A08A7A
:1045E000C1F89C0107B0F0BD00000000817D0029EA
:1045F00005D08068817D002901D0FFF7C8BC7047D5
:10460000B5EEC00AF1EE10FA02D29FED060A06E0FE
:1046100010EE101AB1F17E5F01DDB7EE000A80EDF9
:10462000030A70470000000010B504460120A07581
:104630002068006850F88C1F41F0100101603F2194
:104640002068FDF7BBFF2068BDE810404FF46021F3
:10465000FDF783BFFEE7704710B5806A01684A68BE
:1046600022F003024A60016E41F01001016601214F
:1046700080F85D10FEF704FE10BD10B5806AFEF7ED
:10468000D8FE10BD10B5806AFEF7C2FF10BD70B530
:104690000546846AFDF7A8FA024628680068800685
:1046A00027D42068416821F020014160A06818B932
:1046B0006068B0F5827F17D02068416821F0010161
:1046C00041606421204600F046F808B120202066B1
:1046D0000020A4F84600012084F85D00206E40B15F
:1046E0002046FEF7CDFD70BD2068416821F0030132
:1046F000E6E72046FEF79CFE70BD70B50546846A6D
:10470000FDF772FA02462868006880061FD4206808
:10471000416821F0200141606421204600F055F8F5
:1047200018B1206E40F0200020662068416821F01A
:10473000030141600020E087A4F84600012084F8CE
:104740005D00206E18B12046FEF79AFD70BD204630
:10475000FEF74AFF70BD2DE9F843044640684FF468
:104760008276154689464FF400474FF48068B04280
:1047700009D1A068B84201D0404504D12068016841
:1047800021F0400101604B46002280212046009527
:1047900000F0B0F880B96068B04214D1A068B842A7
:1047A00001D040450FD14B4600224FF4C061204656
:1047B000009500F02FF830B1206E40F02000206608
:1047C0000320BDE8F8830020FBE7F8B515460E4648
:1047D0000B460092044600224FF4C05100F01AF834
:1047E00088B93346002280212046009500F082F8E7
:1047F00048B9334600224FF4C0612046009500F0CE
:1048000009F8002804D0206E40F020002066032024
:10481000F8BD00002DE9FE4F4FF0000A98461746FC
:104820000E4604460C9D8DF804A0FDF7DDF9411BF2
:10483000A8EB0105FDF7D8F9814620684FF4C06B5D
:104840000C3002902A480068C0EBC00000EB8000EA
:10485000000D6843009016E05E4506D12FB902981E
:1048600000788DF804009DF80400B8F1FF3F0AD0ED
:10487000FDF7BAF9A0EB0900A8420CD25DB100988F
:1048800098B3401E0090206880683040B842E3D161
:104890000020BDE8FE8F2068416821F0E001416002
:1048A0006068B0F5827F0BD1A068B0F5004F02D0F0
:1048B000B0F5806F04D12068016821F040010160EB
:1048C000A06AB0F5005F09D12068016821F40051A9
:1048D00001602068016841F400510160012084F802
:1048E0005D0084F85CA00320D3E7FFE70025CAE75A
:1048F0000C0000202DE9F8431E46914688460446E8
:10490000089DFDF771F9401B351AFDF76DF9074653
:1049100026480068C0F3CB3068430AE0701C09D019
:10492000FDF762F9C01BA8420FD275B10098B8B369
:10493000401E00902068816838EA010033D00021D1
:104940004945EBD10020BDE8F8832068416821F09B
:10495000E00141606068B0F5827F0BD1A068B0F5DE
:10496000004F02D0B0F5806F04D12068016821F0BB
:1049700040010160A06AB0F5005F09D120680168BC
:1049800021F4005101602068016841F40051016088
:10499000012084F85D00002084F85C000320D2E749
:1049A000FFE70025C6E70121CAE700000C00002050
:1049B0007047FDF7A1BE10B594B038216846FBF7EB
:1049C0000AFE14210EA8FBF706FE0020FDF726FFC5
:1049D00003244FF48030CDE90040001203904020C2
:1049E00004900521CDE9084102204421CDE90A10B7
:1049F00007900C900D906846FEF740FA08B172B629
:104A0000FEE70F20CDE90E040020109011901290C7
:104A100004210EA8FEF7E8F8002801D072B6FEE7E0
:104A200014B010BD0248016841F470010160704784
:104A300088ED00E030B5416EB9B1026891689268C6
:104A4000C1F342610B4B520F9C5CE50003F108047B
:104A5000A25CB5FBF2F2A0F86A205A5C615CD2005D
:104A6000B2FBF1F1A0F8681030BD0121A0F86A1086
:104A7000F8E700002052000890F82810090706D532
:104A800001684A68836B22F400421A434A6090F836
:104A90002810C90706D001684A68C36A22F40032A8
:104AA0001A434A6090F82810890706D501684A68B9
:104AB000036B22F480321A434A6090F828104907A9
:104AC00006D501684A68436B22F480221A434A6083
:104AD00090F82810C90606D501688A68C36B22F4CD
:104AE00080521A438A6090F82810890606D501681A
:104AF0008A68036C22F400521A438A6090F82810E6
:104B0000490611D501684A68436C22F480121A43A1
:104B10004A60416CB1F5801F06D101684A68836C18
:104B200022F4C0021A434A6090F82810090606D5FC
:104B300001684A68C06C22F4002202434A60704750
:104B40002DE9F84300260446C0F89060FDF74CF8C4
:104B50008046206800684FF0200500076FF07E4710
:104B600013D54346002229042046009700F0B4F9EB
:104B700058B1216851E8000F20F0800041E80002A0
:104B8000002AF6D1C4F8885021E020680068400768
:104B900022D5434600224FF480012046009700F0C2
:104BA0009BF9C8B1216851E8000F20F4907041E8EA
:104BB0000002002AF6D12068083050E8001F21F0DA
:104BC000010140E80012002AF5D1C4F88C5084F8A5
:104BD00084600320BDE8F883C4F88850C4F88C5082
:104BE00044F86C6F666026760020F3E710B5026823
:104BF00052E8001F21F4907142E80013002BF6D117
:104C00000E4B0268083252E8001F194042E80014B7
:104C1000002CF6D1C16E012908D1016851E8002F9E
:104C200022F0100241E80023002BF6D12021C0F829
:104C30008C100021C166416710BD0000FEFFFFEF30
:104C40002DE9F0410446016880682269E369104358
:104C5000626900251A431043DFF84CC20A68934B7F
:104C60001A4002430A6020684168E26821F440511A
:104C7000114341602168A069614501D0226A104357
:104C80008A688B4B1A4002438A602068C16A626A54
:104C900021F00F011143C1628649236886488B4287
:104CA0000DD1D0F8880010F0030006D0012867D09D
:104CB000022854D0032851D164E001204FE07F49FD
:104CC0008B420BD1D0F8880010F00C0047D004289C
:104CD00045D0082852D00C2840D153E078498B4267
:104CE0000BD1D0F8880010F0300038D0102847D011
:104CF000202843D0302831D144E072498B420BD177
:104D0000D0F8880010F0C00029D0402838D0802882
:104D100034D0C02822D135E06B498B420ED1D0F877
:104D2000880010F440701AD0B0F5807F28D0B0F51C
:104D3000007F23D0B0F5407F10D123E063450DD133
:104D4000D0F8880010F4406009D0B0F5806F17D01B
:104D5000B0F5006F12D0B0F5406F13D010205B4A51
:104D60005B4F00264FF40041634539D160B1022802
:104D70000DD004280DD0082831D10EE00220EEE736
:104D80000420ECE70820EAE7FEF71CF803E01146F0
:104D900003E0FEF73BF801007BD0606A37F8102093
:104DA0006768B1FBF2F007EB4703834269D8B0EBC9
:104DB000073F66D8002308461946FBF78DFA09021B
:104DC00041EA106102027808101871413A46002346
:104DD000FBF782FA3F4AA0F54071914257D950E063
:104DE000E3694FF6EF788B422BD1092849D2DFE8EF
:104DF00000F005080D48254848480E00FDF7E2FF81
:104E000001E0FDF7F1FF010001D142E01146606AC7
:104E100037F81000B1FBF0F04100606801EB500181
:104E2000B1FBF0F1A1F1100040452AD84FF6F07225
:104E300001EA0200C1F34201084328E0FDF7E6FF62
:104E4000E1E709281DD2DFE800F005080D1C1E1C53
:104E50001C1C0E00FDF7B6FF01E0FDF7C5FF0100C9
:104E600001D116E01146606A37F81000B1FBF0F18D
:104E7000606801EB5001B1FBF0F0A0F11001414579
:104E800004D9012505E0FDF7C1FFE8E780B22168FC
:104E9000C8600120A4F86A0024F8680F2846E6607C
:104EA0002661BDE8F081000000800040F369FFCF7B
:104EB000FFF4FF11003801400010024000440040A0
:104EC00000480040004C0040005000400024F40026
:104ED00008520008FFFC0F002DE9F04799461746DD
:104EE0000D4604464FF00008089E33E0701C31D098
:104EF000FCF77AFEA0EB0900B04218D8BEB12068DA
:104F00000168490726D5802D24D0402D22D0C169C3
:104F1000C94309070DD4082505622046FFF766FE40
:104F2000C4F8905084F884800120BDE8F087032005
:104F3000FBE7C069C04300050CD421684FF4006052
:104F400008622046FFF752FE2020C4F8900084F843
:104F50008480ECE72068C06935EA000004D00020B6
:104F6000B842C3D00020E0E70120F9E7FEE703B430
:104F700001984100009850EAC12018BF04204A0D52
:104F800018BF40F0010040F2FF72B2EB515F08BF62
:104F900040F00200012808BF052002B07047090751
:104FA000090E002804DB00F1E02080F800147047AF
:104FB00000F00F0000F1E02080F8141D7047303839
:104FC0000A2801D201207047002070472DED028B86
:104FD00086B0FDF799FBFFF7EEFCFFF719F8FEF737
:104FE000E9FFFFF71BFAFFF751F8FFF7F1F92E4938
:104FF0002C4808600846FCF775FB08B172B6FEE75E
:105000004FF09044012210212046FCF7E7FD27498C
:105010000823224601F59C70FEF79FFF0A20FCF74B
:10502000B1FC214A224B02F1280101F51470FFF76F
:10503000A1FA1F489FED1F0A1C30FFF7E1FA1C4838
:105040001C30FFF7F1FA1A4D9FED1B8ADFED1B8A2A
:1050500005F11C044FF4FA76288B00EE100AB8EE26
:10506000400A20EE080A20EE280A10EE100A00F08E
:1050700053F8A28A638A278ACDE903328DE8830038
:105080000B480FA240214038FBF79EF9084982B235
:1050900040396423A1F19400FEF7AEFB3046FCF7E3
:1050A00071FCD9E7000C0240100000203401002000
:1050B0006C020020CDCC4C3F0000B443000000380F
:1050C000416E673A25362E32662020413A253575E5
:1050D00020423A25357520433A2535750D0A0000E2
:1050E00010B500290AD00878002807D00548784470
:1050F000FBF758FE002801D0002010BD024878447C
:1051000010BD00000E020000060200000808A0F515
:1051100000114FEA3101704743004FEAD30C4FEAC8
:105120003C0C43401FBF40070CF1605113F0FE4F91
:1051300070471CF0006F03D100200CF00041704755
:105140000CF0004343EA507010B540EACC0000F088
:105150000EF800BF000000924FEA0001FFF7D6BF33
:105160004FF000414FF00000A1F5002170470EF113
:10517000020E2EF0030E5EF8044B244204D44FEAD4
:105180004102B2F17F4F11D84FEA4003B3F17F4F94
:105190000CD80ED14FEAD07CB2F17F4F0CEB4C0C07
:1051A0000CF1020C08BF4CEBD17C04E04FF0080C72
:1051B00001E04FEAD17C0CEB4C0324FA03F404F039
:1051C0000704B4F1040C06D20EEB840CBDE81040C9
:1051D0004CF0010C6047DFE80CF0070802024FF0CA
:1051E0000040A0F5800010BD0846420018BFD2F173
:1051F000807288BF00F0004010BD4FF04070E1EEBB
:10520000100A7047FBF743BB0100020004000600D0
:1052100008000A000C00100020004000800000017F
:105220000101010307010000080402040801010153
:105230000000000000000000010203040607080946
:10524000000000000102030402400000000000A072
:105250000000000005400000000000C80000000041
:105260000C4000000000409C0000000019400000BD
:105270000020BCBE0000000034400000BFC91B8EEF
:1052800000000004B5400000504BCFD06607E2CFCD
:10529000010000006C4100003E8251AADFEEA734FD
:1052A00001000000D9420000DCB5A0E23A301F97AF
:1052B000FFFFFFFFB4450000FD25A0C8E9A3C14FD3
:1052C000FFFFFFFFFF3F0000000000800000000024
:1052D000FF3F00000000008000000000185300089D
:1052E00000000020100000001402000828530008ED
:1052F00010000020100A0000300200081C0000000E
:1053000043000000F8FFFFFF0C0000000E0000004B
:105310000F0000002E00000010000000010000003F
:08532000000000000024F4006D
:04000005080001D915
:00000001FF
